{
	"BasicMath.sol": {
		"BasicMath": {
			"abi": [
				{
					"inputs": [
						{
							"internalType": "uint256",
							"name": "_a",
							"type": "uint256"
						},
						{
							"internalType": "uint256",
							"name": "_b",
							"type": "uint256"
						}
					],
					"name": "adder",
					"outputs": [
						{
							"internalType": "uint256",
							"name": "",
							"type": "uint256"
						},
						{
							"internalType": "bool",
							"name": "",
							"type": "bool"
						}
					],
					"stateMutability": "pure",
					"type": "function"
				},
				{
					"inputs": [
						{
							"internalType": "uint256",
							"name": "_a",
							"type": "uint256"
						},
						{
							"internalType": "uint256",
							"name": "_b",
							"type": "uint256"
						}
					],
					"name": "subtractor",
					"outputs": [
						{
							"internalType": "uint256",
							"name": "",
							"type": "uint256"
						},
						{
							"internalType": "bool",
							"name": "",
							"type": "bool"
						}
					],
					"stateMutability": "pure",
					"type": "function"
				}
			],
			"devdoc": {
				"kind": "dev",
				"methods": {},
				"version": 1
			},
			"evm": {
				"assembly": "    /* \"BasicMath.sol\":61:585  contract BasicMath {... */\n  mstore(0x40, 0x80)\n  callvalue\n  dup1\n  iszero\n  tag_1\n  jumpi\n  0x00\n  dup1\n  revert\ntag_1:\n  pop\n  dataSize(sub_0)\n  dup1\n  dataOffset(sub_0)\n  0x00\n  codecopy\n  0x00\n  return\nstop\n\nsub_0: assembly {\n        /* \"BasicMath.sol\":61:585  contract BasicMath {... */\n      mstore(0x40, 0x80)\n      callvalue\n      dup1\n      iszero\n      tag_1\n      jumpi\n      0x00\n      dup1\n      revert\n    tag_1:\n      pop\n      jumpi(tag_2, lt(calldatasize, 0x04))\n      shr(0xe0, calldataload(0x00))\n      dup1\n      0x06b034e9\n      eq\n      tag_3\n      jumpi\n      dup1\n      0x5270312a\n      eq\n      tag_4\n      jumpi\n    tag_2:\n      0x00\n      dup1\n      revert\n        /* \"BasicMath.sol\":87:382  function adder(uint _a, uint _b) public pure returns (uint, bool) {... */\n    tag_3:\n      tag_5\n      tag_6\n      calldatasize\n      0x04\n      tag_7\n      jump\t// in\n    tag_6:\n      tag_8\n      jump\t// in\n    tag_5:\n      0x40\n      dup1\n      mload\n        /* \"#utility.yul\":435:460   */\n      swap3\n      dup4\n      mstore\n        /* \"#utility.yul\":503:517   */\n      swap1\n      iszero\n        /* \"#utility.yul\":496:518   */\n      iszero\n        /* \"#utility.yul\":491:493   */\n      0x20\n        /* \"#utility.yul\":476:494   */\n      dup4\n      add\n        /* \"#utility.yul\":469:519   */\n      mstore\n        /* \"#utility.yul\":408:426   */\n      add\n        /* \"BasicMath.sol\":87:382  function adder(uint _a, uint _b) public pure returns (uint, bool) {... */\n      mload(0x40)\n      dup1\n      swap2\n      sub\n      swap1\n      return\n        /* \"BasicMath.sol\":390:582  function subtractor(uint _a, uint _b) public pure returns (uint, bool) {... */\n    tag_4:\n      tag_5\n      tag_12\n      calldatasize\n      0x04\n      tag_7\n      jump\t// in\n    tag_12:\n      tag_13\n      jump\t// in\n        /* \"BasicMath.sol\":87:382  function adder(uint _a, uint _b) public pure returns (uint, bool) {... */\n    tag_8:\n        /* \"BasicMath.sol\":141:145  uint */\n      0x00\n      dup1\n        /* \"BasicMath.sol\":200:207  _a + _b */\n      dup4\n      dup4\n      add\n        /* \"BasicMath.sol\":257:265  sum < _a */\n      dup5\n      dup2\n      lt\n        /* \"BasicMath.sol\":253:330  if (sum < _a) {... */\n      iszero\n      tag_16\n      jumpi\n        /* \"BasicMath.sol\":294:295  0 */\n      0x00\n        /* \"BasicMath.sol\":297:301  true */\n      0x01\n        /* \"BasicMath.sol\":286:302  return (0, true) */\n      swap3\n      pop\n      swap3\n      pop\n      pop\n      jump(tag_15)\n        /* \"BasicMath.sol\":253:330  if (sum < _a) {... */\n    tag_16:\n        /* \"BasicMath.sol\":352:355  sum */\n      swap2\n      pop\n        /* \"BasicMath.sol\":357:362  false */\n      0x00\n      swap1\n      pop\n        /* \"BasicMath.sol\":87:382  function adder(uint _a, uint _b) public pure returns (uint, bool) {... */\n    tag_15:\n      swap3\n      pop\n      swap3\n      swap1\n      pop\n      jump\t// out\n        /* \"BasicMath.sol\":390:582  function subtractor(uint _a, uint _b) public pure returns (uint, bool) {... */\n    tag_13:\n        /* \"BasicMath.sol\":449:453  uint */\n      0x00\n        /* \"BasicMath.sol\":455:459  bool */\n      dup1\n        /* \"BasicMath.sol\":481:483  _a */\n      dup4\n        /* \"BasicMath.sol\":476:478  _b */\n      dup4\n        /* \"BasicMath.sol\":476:483  _b > _a */\n      gt\n        /* \"BasicMath.sol\":472:541  if (_b > _a) {... */\n      iszero\n      tag_18\n      jumpi\n      pop\n        /* \"BasicMath.sol\":508:509  0 */\n      0x00\n      swap1\n      pop\n        /* \"BasicMath.sol\":511:515  true */\n      0x01\n        /* \"BasicMath.sol\":500:516  return (0, true) */\n      jump(tag_15)\n        /* \"BasicMath.sol\":472:541  if (_b > _a) {... */\n    tag_18:\n        /* \"BasicMath.sol\":559:566  _a - _b */\n      tag_19\n        /* \"BasicMath.sol\":564:566  _b */\n      dup4\n        /* \"BasicMath.sol\":559:561  _a */\n      dup6\n        /* \"BasicMath.sol\":559:566  _a - _b */\n      tag_20\n      jump\t// in\n    tag_19:\n        /* \"BasicMath.sol\":551:574  return (_a - _b, false) */\n      swap5\n        /* \"BasicMath.sol\":568:573  false */\n      0x00\n      swap5\n      pop\n        /* \"BasicMath.sol\":390:582  function subtractor(uint _a, uint _b) public pure returns (uint, bool) {... */\n      swap3\n      pop\n      pop\n      pop\n      jump\t// out\n        /* \"#utility.yul\":14:262   */\n    tag_7:\n        /* \"#utility.yul\":82:88   */\n      0x00\n        /* \"#utility.yul\":90:96   */\n      dup1\n        /* \"#utility.yul\":143:145   */\n      0x40\n        /* \"#utility.yul\":131:140   */\n      dup4\n        /* \"#utility.yul\":122:129   */\n      dup6\n        /* \"#utility.yul\":118:141   */\n      sub\n        /* \"#utility.yul\":114:146   */\n      slt\n        /* \"#utility.yul\":111:163   */\n      iszero\n      tag_23\n      jumpi\n        /* \"#utility.yul\":159:160   */\n      0x00\n        /* \"#utility.yul\":156:157   */\n      dup1\n        /* \"#utility.yul\":149:161   */\n      revert\n        /* \"#utility.yul\":111:163   */\n    tag_23:\n      pop\n      pop\n        /* \"#utility.yul\":182:205   */\n      dup1\n      calldataload\n      swap3\n        /* \"#utility.yul\":252:254   */\n      0x20\n        /* \"#utility.yul\":237:255   */\n      swap1\n      swap2\n      add\n        /* \"#utility.yul\":224:256   */\n      calldataload\n      swap2\n      pop\n        /* \"#utility.yul\":14:262   */\n      jump\t// out\n        /* \"#utility.yul\":530:755   */\n    tag_20:\n        /* \"#utility.yul\":597:606   */\n      dup2\n      dup2\n      sub\n        /* \"#utility.yul\":618:629   */\n      dup2\n      dup2\n      gt\n        /* \"#utility.yul\":615:749   */\n      iszero\n      tag_26\n      jumpi\n        /* \"#utility.yul\":671:681   */\n      0x4e487b71\n        /* \"#utility.yul\":666:669   */\n      0xe0\n        /* \"#utility.yul\":662:682   */\n      shl\n        /* \"#utility.yul\":659:660   */\n      0x00\n        /* \"#utility.yul\":652:683   */\n      mstore\n        /* \"#utility.yul\":706:710   */\n      0x11\n        /* \"#utility.yul\":703:704   */\n      0x04\n        /* \"#utility.yul\":696:711   */\n      mstore\n        /* \"#utility.yul\":734:738   */\n      0x24\n        /* \"#utility.yul\":731:732   */\n      0x00\n        /* \"#utility.yul\":724:739   */\n      revert\n        /* \"#utility.yul\":615:749   */\n    tag_26:\n        /* \"#utility.yul\":530:755   */\n      swap3\n      swap2\n      pop\n      pop\n      jump\t// out\n\n    auxdata: 0xa26469706673582212201273a74503496abcd58ea30c5b7457a89b41e07df7f1e0d667a3121113e8a4e064736f6c63430008140033\n}\n",
				"bytecode": {
					"linkReferences": {},
					"object": "608060405234801561000f575f80fd5b506101428061001d5f395ff3fe608060405234801561000f575f80fd5b5060043610610034575f3560e01c806306b034e9146100385780635270312a14610064575b5f80fd5b61004b6100463660046100c7565b610077565b6040805192835290151560208301520160405180910390f35b61004b6100723660046100c7565b61009e565b5f8083830184811015610091575f60019250925050610097565b91505f90505b9250929050565b5f80838311156100b357505f90506001610097565b6100bd83856100e7565b945f945092505050565b5f80604083850312156100d8575f80fd5b50508035926020909101359150565b8181038181111561010657634e487b7160e01b5f52601160045260245ffd5b9291505056fea26469706673582212201273a74503496abcd58ea30c5b7457a89b41e07df7f1e0d667a3121113e8a4e064736f6c63430008140033",
					"opcodes": "PUSH1 0x80 PUSH1 0x40 MSTORE CALLVALUE DUP1 ISZERO PUSH2 0xF JUMPI PUSH0 DUP1 REVERT JUMPDEST POP PUSH2 0x142 DUP1 PUSH2 0x1D PUSH0 CODECOPY PUSH0 RETURN INVALID PUSH1 0x80 PUSH1 0x40 MSTORE CALLVALUE DUP1 ISZERO PUSH2 0xF JUMPI PUSH0 DUP1 REVERT JUMPDEST POP PUSH1 0x4 CALLDATASIZE LT PUSH2 0x34 JUMPI PUSH0 CALLDATALOAD PUSH1 0xE0 SHR DUP1 PUSH4 0x6B034E9 EQ PUSH2 0x38 JUMPI DUP1 PUSH4 0x5270312A EQ PUSH2 0x64 JUMPI JUMPDEST PUSH0 DUP1 REVERT JUMPDEST PUSH2 0x4B PUSH2 0x46 CALLDATASIZE PUSH1 0x4 PUSH2 0xC7 JUMP JUMPDEST PUSH2 0x77 JUMP JUMPDEST PUSH1 0x40 DUP1 MLOAD SWAP3 DUP4 MSTORE SWAP1 ISZERO ISZERO PUSH1 0x20 DUP4 ADD MSTORE ADD PUSH1 0x40 MLOAD DUP1 SWAP2 SUB SWAP1 RETURN JUMPDEST PUSH2 0x4B PUSH2 0x72 CALLDATASIZE PUSH1 0x4 PUSH2 0xC7 JUMP JUMPDEST PUSH2 0x9E JUMP JUMPDEST PUSH0 DUP1 DUP4 DUP4 ADD DUP5 DUP2 LT ISZERO PUSH2 0x91 JUMPI PUSH0 PUSH1 0x1 SWAP3 POP SWAP3 POP POP PUSH2 0x97 JUMP JUMPDEST SWAP2 POP PUSH0 SWAP1 POP JUMPDEST SWAP3 POP SWAP3 SWAP1 POP JUMP JUMPDEST PUSH0 DUP1 DUP4 DUP4 GT ISZERO PUSH2 0xB3 JUMPI POP PUSH0 SWAP1 POP PUSH1 0x1 PUSH2 0x97 JUMP JUMPDEST PUSH2 0xBD DUP4 DUP6 PUSH2 0xE7 JUMP JUMPDEST SWAP5 PUSH0 SWAP5 POP SWAP3 POP POP POP JUMP JUMPDEST PUSH0 DUP1 PUSH1 0x40 DUP4 DUP6 SUB SLT ISZERO PUSH2 0xD8 JUMPI PUSH0 DUP1 REVERT JUMPDEST POP POP DUP1 CALLDATALOAD SWAP3 PUSH1 0x20 SWAP1 SWAP2 ADD CALLDATALOAD SWAP2 POP JUMP JUMPDEST DUP2 DUP2 SUB DUP2 DUP2 GT ISZERO PUSH2 0x106 JUMPI PUSH4 0x4E487B71 PUSH1 0xE0 SHL PUSH0 MSTORE PUSH1 0x11 PUSH1 0x4 MSTORE PUSH1 0x24 PUSH0 REVERT JUMPDEST SWAP3 SWAP2 POP POP JUMP INVALID LOG2 PUSH5 0x6970667358 0x22 SLT KECCAK256 SLT PUSH20 0xA74503496ABCD58EA30C5B7457A89B41E07DF7F1 0xE0 0xD6 PUSH8 0xA3121113E8A4E064 PUSH20 0x6F6C634300081400330000000000000000000000 "
				},
				"gasEstimates": {
					"creation": {
						"codeDepositCost": "64400",
						"executionCost": "115",
						"totalCost": "64515"
					},
					"external": {
						"adder(uint256,uint256)": "370",
						"subtractor(uint256,uint256)": "436"
					}
				},
				"methodIdentifiers": {
					"adder(uint256,uint256)": "06b034e9",
					"subtractor(uint256,uint256)": "5270312a"
				}
			},
			"storageLayout": {
				"storage": [],
				"types": null
			},
			"userdoc": {
				"kind": "user",
				"methods": {},
				"version": 1
			}
		}
	}
}