{
	"InheritanceUT.sol": {
		"Salaried": {
			"abi": [
				{
					"inputs": [
						{
							"internalType": "uint256",
							"name": "_idNumber",
							"type": "uint256"
						},
						{
							"internalType": "uint256",
							"name": "_managerId",
							"type": "uint256"
						},
						{
							"internalType": "uint256",
							"name": "_annualSalary",
							"type": "uint256"
						}
					],
					"stateMutability": "nonpayable",
					"type": "constructor"
				},
				{
					"inputs": [],
					"name": "annualSalary",
					"outputs": [
						{
							"internalType": "uint256",
							"name": "",
							"type": "uint256"
						}
					],
					"stateMutability": "view",
					"type": "function"
				},
				{
					"inputs": [],
					"name": "getAnnualCost",
					"outputs": [
						{
							"internalType": "uint256",
							"name": "",
							"type": "uint256"
						}
					],
					"stateMutability": "view",
					"type": "function"
				},
				{
					"inputs": [],
					"name": "idNumber",
					"outputs": [
						{
							"internalType": "uint256",
							"name": "",
							"type": "uint256"
						}
					],
					"stateMutability": "view",
					"type": "function"
				},
				{
					"inputs": [],
					"name": "managerId",
					"outputs": [
						{
							"internalType": "uint256",
							"name": "",
							"type": "uint256"
						}
					],
					"stateMutability": "view",
					"type": "function"
				}
			],
			"devdoc": {
				"kind": "dev",
				"methods": {},
				"version": 1
			},
			"evm": {
				"assembly": "    /* \"InheritanceUT.sol\":519:857  contract Salaried is Employee {... */\n  mstore(0x40, 0x80)\n    /* \"InheritanceUT.sol\":589:747  constructor(uint _idNumber, uint _managerId, uint _annualSalary)... */\n  callvalue\n  dup1\n  iszero\n  tag_1\n  jumpi\n  0x00\n  dup1\n  revert\ntag_1:\n  pop\n  mload(0x40)\n  sub(codesize, bytecodeSize)\n  dup1\n  bytecodeSize\n  dup4\n  codecopy\n  dup2\n  add\n  0x40\n  dup2\n  swap1\n  mstore\n  tag_2\n  swap2\n  tag_3\n  jump\t// in\ntag_2:\n    /* \"InheritanceUT.sol\":300:308  idNumber */\n  0x00\n    /* \"InheritanceUT.sol\":300:320  idNumber = _idNumber */\n  swap3\n  swap1\n  swap3\n  sstore\n    /* \"InheritanceUT.sol\":331:340  managerId */\n  0x01\n    /* \"InheritanceUT.sol\":331:353  managerId = _managerId */\n  sstore\n    /* \"InheritanceUT.sol\":711:723  annualSalary */\n  0x02\n    /* \"InheritanceUT.sol\":711:739  annualSalary = _annualSalary */\n  sstore\n    /* \"InheritanceUT.sol\":519:857  contract Salaried is Employee {... */\n  jump(tag_9)\n    /* \"#utility.yul\":14:320   */\ntag_3:\n    /* \"#utility.yul\":102:108   */\n  0x00\n    /* \"#utility.yul\":110:116   */\n  dup1\n    /* \"#utility.yul\":118:124   */\n  0x00\n    /* \"#utility.yul\":171:173   */\n  0x60\n    /* \"#utility.yul\":159:168   */\n  dup5\n    /* \"#utility.yul\":150:157   */\n  dup7\n    /* \"#utility.yul\":146:169   */\n  sub\n    /* \"#utility.yul\":142:174   */\n  slt\n    /* \"#utility.yul\":139:191   */\n  iszero\n  tag_11\n  jumpi\n    /* \"#utility.yul\":187:188   */\n  0x00\n    /* \"#utility.yul\":184:185   */\n  dup1\n    /* \"#utility.yul\":177:189   */\n  revert\n    /* \"#utility.yul\":139:191   */\ntag_11:\n    /* \"#utility.yul\":216:225   */\n  dup4\n    /* \"#utility.yul\":210:226   */\n  mload\n    /* \"#utility.yul\":200:226   */\n  swap3\n  pop\n    /* \"#utility.yul\":266:268   */\n  0x20\n    /* \"#utility.yul\":255:264   */\n  dup5\n    /* \"#utility.yul\":251:269   */\n  add\n    /* \"#utility.yul\":245:270   */\n  mload\n    /* \"#utility.yul\":235:270   */\n  swap2\n  pop\n    /* \"#utility.yul\":310:312   */\n  0x40\n    /* \"#utility.yul\":299:308   */\n  dup5\n    /* \"#utility.yul\":295:313   */\n  add\n    /* \"#utility.yul\":289:314   */\n  mload\n    /* \"#utility.yul\":279:314   */\n  swap1\n  pop\n    /* \"#utility.yul\":14:320   */\n  swap3\n  pop\n  swap3\n  pop\n  swap3\n  jump\t// out\ntag_9:\n    /* \"InheritanceUT.sol\":519:857  contract Salaried is Employee {... */\n  dataSize(sub_0)\n  dup1\n  dataOffset(sub_0)\n  0x00\n  codecopy\n  0x00\n  return\nstop\n\nsub_0: assembly {\n        /* \"InheritanceUT.sol\":519:857  contract Salaried is Employee {... */\n      mstore(0x40, 0x80)\n      callvalue\n      dup1\n      iszero\n      tag_1\n      jumpi\n      0x00\n      dup1\n      revert\n    tag_1:\n      pop\n      jumpi(tag_2, lt(calldatasize, 0x04))\n      shr(0xe0, calldataload(0x00))\n      dup1\n      0x3f83ea3b\n      eq\n      tag_3\n      jumpi\n      dup1\n      0x50dca6ab\n      eq\n      tag_4\n      jumpi\n      dup1\n      0x5cdee0c0\n      eq\n      tag_5\n      jumpi\n      dup1\n      0xf5895a0a\n      eq\n      tag_6\n      jumpi\n    tag_2:\n      0x00\n      dup1\n      revert\n        /* \"InheritanceUT.sol\":187:207  uint public idNumber */\n    tag_3:\n      tag_7\n      sload(0x00)\n      dup2\n      jump\n    tag_7:\n      mload(0x40)\n        /* \"#utility.yul\":160:185   */\n      swap1\n      dup2\n      mstore\n        /* \"#utility.yul\":148:150   */\n      0x20\n        /* \"#utility.yul\":133:151   */\n      add\n        /* \"InheritanceUT.sol\":187:207  uint public idNumber */\n      mload(0x40)\n      dup1\n      swap2\n      sub\n      swap1\n      return\n        /* \"InheritanceUT.sol\":556:580  uint public annualSalary */\n    tag_4:\n      tag_7\n      sload(0x02)\n      dup2\n      jump\n        /* \"InheritanceUT.sol\":755:854  function getAnnualCost() public view override returns (uint) {... */\n    tag_5:\n        /* \"InheritanceUT.sol\":834:846  annualSalary */\n      sload(0x02)\n        /* \"InheritanceUT.sol\":755:854  function getAnnualCost() public view override returns (uint) {... */\n      jump(tag_7)\n        /* \"InheritanceUT.sol\":214:235  uint public managerId */\n    tag_6:\n      tag_7\n      sload(0x01)\n      dup2\n      jump\n\n    auxdata: 0xa2646970667358221220fb4936b87bf352e5ba11bf75f0f3cd971df86d1d2d3bee8d7c28b686f6922ffc64736f6c63430008140033\n}\n",
				"bytecode": {
					"linkReferences": {},
					"object": "608060405234801561000f575f80fd5b5060405161012338038061012383398101604081905261002e9161003e565b5f92909255600155600255610069565b5f805f60608486031215610050575f80fd5b8351925060208401519150604084015190509250925092565b60ae806100755f395ff3fe6080604052348015600e575f80fd5b50600436106044575f3560e01c80633f83ea3b14604857806350dca6ab1460615780635cdee0c0146069578063f5895a0a146070575b5f80fd5b604f5f5481565b60405190815260200160405180910390f35b604f60025481565b600254604f565b604f6001548156fea2646970667358221220fb4936b87bf352e5ba11bf75f0f3cd971df86d1d2d3bee8d7c28b686f6922ffc64736f6c63430008140033",
					"opcodes": "PUSH1 0x80 PUSH1 0x40 MSTORE CALLVALUE DUP1 ISZERO PUSH2 0xF JUMPI PUSH0 DUP1 REVERT JUMPDEST POP PUSH1 0x40 MLOAD PUSH2 0x123 CODESIZE SUB DUP1 PUSH2 0x123 DUP4 CODECOPY DUP2 ADD PUSH1 0x40 DUP2 SWAP1 MSTORE PUSH2 0x2E SWAP2 PUSH2 0x3E JUMP JUMPDEST PUSH0 SWAP3 SWAP1 SWAP3 SSTORE PUSH1 0x1 SSTORE PUSH1 0x2 SSTORE PUSH2 0x69 JUMP JUMPDEST PUSH0 DUP1 PUSH0 PUSH1 0x60 DUP5 DUP7 SUB SLT ISZERO PUSH2 0x50 JUMPI PUSH0 DUP1 REVERT JUMPDEST DUP4 MLOAD SWAP3 POP PUSH1 0x20 DUP5 ADD MLOAD SWAP2 POP PUSH1 0x40 DUP5 ADD MLOAD SWAP1 POP SWAP3 POP SWAP3 POP SWAP3 JUMP JUMPDEST PUSH1 0xAE DUP1 PUSH2 0x75 PUSH0 CODECOPY PUSH0 RETURN INVALID PUSH1 0x80 PUSH1 0x40 MSTORE CALLVALUE DUP1 ISZERO PUSH1 0xE JUMPI PUSH0 DUP1 REVERT JUMPDEST POP PUSH1 0x4 CALLDATASIZE LT PUSH1 0x44 JUMPI PUSH0 CALLDATALOAD PUSH1 0xE0 SHR DUP1 PUSH4 0x3F83EA3B EQ PUSH1 0x48 JUMPI DUP1 PUSH4 0x50DCA6AB EQ PUSH1 0x61 JUMPI DUP1 PUSH4 0x5CDEE0C0 EQ PUSH1 0x69 JUMPI DUP1 PUSH4 0xF5895A0A EQ PUSH1 0x70 JUMPI JUMPDEST PUSH0 DUP1 REVERT JUMPDEST PUSH1 0x4F PUSH0 SLOAD DUP2 JUMP JUMPDEST PUSH1 0x40 MLOAD SWAP1 DUP2 MSTORE PUSH1 0x20 ADD PUSH1 0x40 MLOAD DUP1 SWAP2 SUB SWAP1 RETURN JUMPDEST PUSH1 0x4F PUSH1 0x2 SLOAD DUP2 JUMP JUMPDEST PUSH1 0x2 SLOAD PUSH1 0x4F JUMP JUMPDEST PUSH1 0x4F PUSH1 0x1 SLOAD DUP2 JUMP INVALID LOG2 PUSH5 0x6970667358 0x22 SLT KECCAK256 0xFB 0x49 CALLDATASIZE 0xB8 PUSH28 0xF352E5BA11BF75F0F3CD971DF86D1D2D3BEE8D7C28B686F6922FFC64 PUSH20 0x6F6C634300081400330000000000000000000000 "
				},
				"gasEstimates": {
					"creation": {
						"codeDepositCost": "34800",
						"executionCost": "infinite",
						"totalCost": "infinite"
					},
					"external": {
						"annualSalary()": "2282",
						"getAnnualCost()": "2301",
						"idNumber()": "2259",
						"managerId()": "2326"
					}
				},
				"methodIdentifiers": {
					"annualSalary()": "50dca6ab",
					"getAnnualCost()": "5cdee0c0",
					"idNumber()": "3f83ea3b",
					"managerId()": "f5895a0a"
				}
			},
			"storageLayout": {
				"storage": [
					{
						"astId": 3,
						"contract": "InheritanceUT.sol:Salaried",
						"label": "idNumber",
						"offset": 0,
						"slot": "0",
						"type": "t_uint256"
					},
					{
						"astId": 5,
						"contract": "InheritanceUT.sol:Salaried",
						"label": "managerId",
						"offset": 0,
						"slot": "1",
						"type": "t_uint256"
					},
					{
						"astId": 31,
						"contract": "InheritanceUT.sol:Salaried",
						"label": "annualSalary",
						"offset": 0,
						"slot": "2",
						"type": "t_uint256"
					}
				],
				"types": {
					"t_uint256": {
						"encoding": "inplace",
						"label": "uint256",
						"numberOfBytes": "32"
					}
				}
			},
			"userdoc": {
				"kind": "user",
				"methods": {},
				"version": 1
			}
		}
	}
}