{
	"InheritanceUT.sol": {
		"Salesperson": {
			"abi": [
				{
					"inputs": [
						{
							"internalType": "uint256",
							"name": "_idNumber",
							"type": "uint256"
						},
						{
							"internalType": "uint256",
							"name": "_managerId",
							"type": "uint256"
						},
						{
							"internalType": "uint256",
							"name": "_hourlyRate",
							"type": "uint256"
						}
					],
					"stateMutability": "nonpayable",
					"type": "constructor"
				},
				{
					"inputs": [],
					"name": "getAnnualCost",
					"outputs": [
						{
							"internalType": "uint256",
							"name": "",
							"type": "uint256"
						}
					],
					"stateMutability": "view",
					"type": "function"
				},
				{
					"inputs": [],
					"name": "hourlyRate",
					"outputs": [
						{
							"internalType": "uint256",
							"name": "",
							"type": "uint256"
						}
					],
					"stateMutability": "view",
					"type": "function"
				},
				{
					"inputs": [],
					"name": "idNumber",
					"outputs": [
						{
							"internalType": "uint256",
							"name": "",
							"type": "uint256"
						}
					],
					"stateMutability": "view",
					"type": "function"
				},
				{
					"inputs": [],
					"name": "managerId",
					"outputs": [
						{
							"internalType": "uint256",
							"name": "",
							"type": "uint256"
						}
					],
					"stateMutability": "view",
					"type": "function"
				}
			],
			"devdoc": {
				"kind": "dev",
				"methods": {},
				"version": 1
			},
			"evm": {
				"assembly": "    /* \"InheritanceUT.sol\":1803:1966  contract Salesperson is Hourly {... */\n  mstore(0x40, 0x80)\n    /* \"InheritanceUT.sol\":1841:1963  constructor(uint _idNumber, uint _managerId, uint _hourlyRate)... */\n  callvalue\n  dup1\n  iszero\n  tag_1\n  jumpi\n  0x00\n  dup1\n  revert\ntag_1:\n  pop\n  mload(0x40)\n  sub(codesize, bytecodeSize)\n  dup1\n  bytecodeSize\n  dup4\n  codecopy\n  dup2\n  add\n  0x40\n  dup2\n  swap1\n  mstore\n  tag_2\n  swap2\n  tag_3\n  jump\t// in\ntag_2:\n    /* \"InheritanceUT.sol\":300:308  idNumber */\n  0x00\n    /* \"InheritanceUT.sol\":300:320  idNumber = _idNumber */\n  swap3\n  swap1\n  swap3\n  sstore\n    /* \"InheritanceUT.sol\":331:340  managerId */\n  0x01\n    /* \"InheritanceUT.sol\":331:353  managerId = _managerId */\n  sstore\n    /* \"InheritanceUT.sol\":1128:1138  hourlyRate */\n  0x02\n    /* \"InheritanceUT.sol\":1128:1152  hourlyRate = _hourlyRate */\n  sstore\n    /* \"InheritanceUT.sol\":1803:1966  contract Salesperson is Hourly {... */\n  jump(tag_11)\n    /* \"#utility.yul\":14:320   */\ntag_3:\n    /* \"#utility.yul\":102:108   */\n  0x00\n    /* \"#utility.yul\":110:116   */\n  dup1\n    /* \"#utility.yul\":118:124   */\n  0x00\n    /* \"#utility.yul\":171:173   */\n  0x60\n    /* \"#utility.yul\":159:168   */\n  dup5\n    /* \"#utility.yul\":150:157   */\n  dup7\n    /* \"#utility.yul\":146:169   */\n  sub\n    /* \"#utility.yul\":142:174   */\n  slt\n    /* \"#utility.yul\":139:191   */\n  iszero\n  tag_13\n  jumpi\n    /* \"#utility.yul\":187:188   */\n  0x00\n    /* \"#utility.yul\":184:185   */\n  dup1\n    /* \"#utility.yul\":177:189   */\n  revert\n    /* \"#utility.yul\":139:191   */\ntag_13:\n    /* \"#utility.yul\":216:225   */\n  dup4\n    /* \"#utility.yul\":210:226   */\n  mload\n    /* \"#utility.yul\":200:226   */\n  swap3\n  pop\n    /* \"#utility.yul\":266:268   */\n  0x20\n    /* \"#utility.yul\":255:264   */\n  dup5\n    /* \"#utility.yul\":251:269   */\n  add\n    /* \"#utility.yul\":245:270   */\n  mload\n    /* \"#utility.yul\":235:270   */\n  swap2\n  pop\n    /* \"#utility.yul\":310:312   */\n  0x40\n    /* \"#utility.yul\":299:308   */\n  dup5\n    /* \"#utility.yul\":295:313   */\n  add\n    /* \"#utility.yul\":289:314   */\n  mload\n    /* \"#utility.yul\":279:314   */\n  swap1\n  pop\n    /* \"#utility.yul\":14:320   */\n  swap3\n  pop\n  swap3\n  pop\n  swap3\n  jump\t// out\ntag_11:\n    /* \"InheritanceUT.sol\":1803:1966  contract Salesperson is Hourly {... */\n  dataSize(sub_0)\n  dup1\n  dataOffset(sub_0)\n  0x00\n  codecopy\n  0x00\n  return\nstop\n\nsub_0: assembly {\n        /* \"InheritanceUT.sol\":1803:1966  contract Salesperson is Hourly {... */\n      mstore(0x40, 0x80)\n      callvalue\n      dup1\n      iszero\n      tag_1\n      jumpi\n      0x00\n      dup1\n      revert\n    tag_1:\n      pop\n      jumpi(tag_2, lt(calldatasize, 0x04))\n      shr(0xe0, calldataload(0x00))\n      dup1\n      0x3f83ea3b\n      eq\n      tag_3\n      jumpi\n      dup1\n      0x59a7b3fe\n      eq\n      tag_4\n      jumpi\n      dup1\n      0x5cdee0c0\n      eq\n      tag_5\n      jumpi\n      dup1\n      0xf5895a0a\n      eq\n      tag_6\n      jumpi\n    tag_2:\n      0x00\n      dup1\n      revert\n        /* \"InheritanceUT.sol\":187:207  uint public idNumber */\n    tag_3:\n      tag_7\n      sload(0x00)\n      dup2\n      jump\n    tag_7:\n      mload(0x40)\n        /* \"#utility.yul\":160:185   */\n      swap1\n      dup2\n      mstore\n        /* \"#utility.yul\":148:150   */\n      0x20\n        /* \"#utility.yul\":133:151   */\n      add\n        /* \"InheritanceUT.sol\":187:207  uint public idNumber */\n      mload(0x40)\n      dup1\n      swap2\n      sub\n      swap1\n      return\n        /* \"InheritanceUT.sol\":977:999  uint public hourlyRate */\n    tag_4:\n      tag_7\n      sload(0x02)\n      dup2\n      jump\n        /* \"InheritanceUT.sol\":1168:1300  function getAnnualCost() public view override returns (uint) {... */\n    tag_5:\n      tag_7\n      tag_15\n      jump\t// in\n        /* \"InheritanceUT.sol\":214:235  uint public managerId */\n    tag_6:\n      tag_7\n      sload(0x01)\n      dup2\n      jump\n        /* \"InheritanceUT.sol\":1168:1300  function getAnnualCost() public view override returns (uint) {... */\n    tag_15:\n        /* \"InheritanceUT.sol\":1223:1227  uint */\n      0x00\n        /* \"InheritanceUT.sol\":1247:1257  hourlyRate */\n      sload(0x02)\n        /* \"InheritanceUT.sol\":1260:1264  2080 */\n      0x0820\n        /* \"InheritanceUT.sol\":1247:1264  hourlyRate * 2080 */\n      tag_21\n      swap2\n      swap1\n      tag_22\n      jump\t// in\n    tag_21:\n        /* \"InheritanceUT.sol\":1240:1264  return hourlyRate * 2080 */\n      swap1\n      pop\n        /* \"InheritanceUT.sol\":1168:1300  function getAnnualCost() public view override returns (uint) {... */\n      swap1\n      jump\t// out\n        /* \"#utility.yul\":196:461   */\n    tag_22:\n        /* \"#utility.yul\":269:278   */\n      dup1\n      dup3\n      mul\n        /* \"#utility.yul\":300:309   */\n      dup2\n      iszero\n        /* \"#utility.yul\":317:332   */\n      dup3\n      dup3\n      div\n        /* \"#utility.yul\":311:333   */\n      dup5\n      eq\n        /* \"#utility.yul\":297:334   */\n      or\n        /* \"#utility.yul\":287:455   */\n      tag_26\n      jumpi\n        /* \"#utility.yul\":377:387   */\n      0x4e487b71\n        /* \"#utility.yul\":372:375   */\n      0xe0\n        /* \"#utility.yul\":368:388   */\n      shl\n        /* \"#utility.yul\":365:366   */\n      0x00\n        /* \"#utility.yul\":358:389   */\n      mstore\n        /* \"#utility.yul\":412:416   */\n      0x11\n        /* \"#utility.yul\":409:410   */\n      0x04\n        /* \"#utility.yul\":402:417   */\n      mstore\n        /* \"#utility.yul\":440:444   */\n      0x24\n        /* \"#utility.yul\":437:438   */\n      0x00\n        /* \"#utility.yul\":430:445   */\n      revert\n        /* \"#utility.yul\":287:455   */\n    tag_26:\n        /* \"#utility.yul\":196:461   */\n      swap3\n      swap2\n      pop\n      pop\n      jump\t// out\n\n    auxdata: 0xa2646970667358221220d8c3f25b643a8a6426a32ab431d5b908ae653ef339110eae48c032838cdc08fa64736f6c63430008140033\n}\n",
				"bytecode": {
					"linkReferences": {},
					"object": "608060405234801561000f575f80fd5b5060405161015e38038061015e83398101604081905261002e9161003e565b5f92909255600155600255610069565b5f805f60608486031215610050575f80fd5b8351925060208401519150604084015190509250925092565b60e9806100755f395ff3fe6080604052348015600e575f80fd5b50600436106044575f3560e01c80633f83ea3b14604857806359a7b3fe1460615780635cdee0c0146069578063f5895a0a14606f575b5f80fd5b604f5f5481565b60405190815260200160405180910390f35b604f60025481565b604f6077565b604f60015481565b5f60025461082060869190608b565b905090565b808202811582820484141760ad57634e487b7160e01b5f52601160045260245ffd5b9291505056fea2646970667358221220d8c3f25b643a8a6426a32ab431d5b908ae653ef339110eae48c032838cdc08fa64736f6c63430008140033",
					"opcodes": "PUSH1 0x80 PUSH1 0x40 MSTORE CALLVALUE DUP1 ISZERO PUSH2 0xF JUMPI PUSH0 DUP1 REVERT JUMPDEST POP PUSH1 0x40 MLOAD PUSH2 0x15E CODESIZE SUB DUP1 PUSH2 0x15E DUP4 CODECOPY DUP2 ADD PUSH1 0x40 DUP2 SWAP1 MSTORE PUSH2 0x2E SWAP2 PUSH2 0x3E JUMP JUMPDEST PUSH0 SWAP3 SWAP1 SWAP3 SSTORE PUSH1 0x1 SSTORE PUSH1 0x2 SSTORE PUSH2 0x69 JUMP JUMPDEST PUSH0 DUP1 PUSH0 PUSH1 0x60 DUP5 DUP7 SUB SLT ISZERO PUSH2 0x50 JUMPI PUSH0 DUP1 REVERT JUMPDEST DUP4 MLOAD SWAP3 POP PUSH1 0x20 DUP5 ADD MLOAD SWAP2 POP PUSH1 0x40 DUP5 ADD MLOAD SWAP1 POP SWAP3 POP SWAP3 POP SWAP3 JUMP JUMPDEST PUSH1 0xE9 DUP1 PUSH2 0x75 PUSH0 CODECOPY PUSH0 RETURN INVALID PUSH1 0x80 PUSH1 0x40 MSTORE CALLVALUE DUP1 ISZERO PUSH1 0xE JUMPI PUSH0 DUP1 REVERT JUMPDEST POP PUSH1 0x4 CALLDATASIZE LT PUSH1 0x44 JUMPI PUSH0 CALLDATALOAD PUSH1 0xE0 SHR DUP1 PUSH4 0x3F83EA3B EQ PUSH1 0x48 JUMPI DUP1 PUSH4 0x59A7B3FE EQ PUSH1 0x61 JUMPI DUP1 PUSH4 0x5CDEE0C0 EQ PUSH1 0x69 JUMPI DUP1 PUSH4 0xF5895A0A EQ PUSH1 0x6F JUMPI JUMPDEST PUSH0 DUP1 REVERT JUMPDEST PUSH1 0x4F PUSH0 SLOAD DUP2 JUMP JUMPDEST PUSH1 0x40 MLOAD SWAP1 DUP2 MSTORE PUSH1 0x20 ADD PUSH1 0x40 MLOAD DUP1 SWAP2 SUB SWAP1 RETURN JUMPDEST PUSH1 0x4F PUSH1 0x2 SLOAD DUP2 JUMP JUMPDEST PUSH1 0x4F PUSH1 0x77 JUMP JUMPDEST PUSH1 0x4F PUSH1 0x1 SLOAD DUP2 JUMP JUMPDEST PUSH0 PUSH1 0x2 SLOAD PUSH2 0x820 PUSH1 0x86 SWAP2 SWAP1 PUSH1 0x8B JUMP JUMPDEST SWAP1 POP SWAP1 JUMP JUMPDEST DUP1 DUP3 MUL DUP2 ISZERO DUP3 DUP3 DIV DUP5 EQ OR PUSH1 0xAD JUMPI PUSH4 0x4E487B71 PUSH1 0xE0 SHL PUSH0 MSTORE PUSH1 0x11 PUSH1 0x4 MSTORE PUSH1 0x24 PUSH0 REVERT JUMPDEST SWAP3 SWAP2 POP POP JUMP INVALID LOG2 PUSH5 0x6970667358 0x22 SLT KECCAK256 0xD8 0xC3 CALLCODE JUMPDEST PUSH5 0x3A8A6426A3 0x2A 0xB4 BALANCE 0xD5 0xB9 ADDMOD 0xAE PUSH6 0x3EF339110EAE BASEFEE 0xC0 ORIGIN DUP4 DUP13 0xDC ADDMOD STATICCALL PUSH5 0x736F6C6343 STOP ADDMOD EQ STOP CALLER "
				},
				"gasEstimates": {
					"creation": {
						"codeDepositCost": "46600",
						"executionCost": "infinite",
						"totalCost": "infinite"
					},
					"external": {
						"getAnnualCost()": "2417",
						"hourlyRate()": "2282",
						"idNumber()": "2259",
						"managerId()": "2326"
					}
				},
				"methodIdentifiers": {
					"getAnnualCost()": "5cdee0c0",
					"hourlyRate()": "59a7b3fe",
					"idNumber()": "3f83ea3b",
					"managerId()": "f5895a0a"
				}
			},
			"storageLayout": {
				"storage": [
					{
						"astId": 3,
						"contract": "InheritanceUT.sol:Salesperson",
						"label": "idNumber",
						"offset": 0,
						"slot": "0",
						"type": "t_uint256"
					},
					{
						"astId": 5,
						"contract": "InheritanceUT.sol:Salesperson",
						"label": "managerId",
						"offset": 0,
						"slot": "1",
						"type": "t_uint256"
					},
					{
						"astId": 63,
						"contract": "InheritanceUT.sol:Salesperson",
						"label": "hourlyRate",
						"offset": 0,
						"slot": "2",
						"type": "t_uint256"
					}
				],
				"types": {
					"t_uint256": {
						"encoding": "inplace",
						"label": "uint256",
						"numberOfBytes": "32"
					}
				}
			},
			"userdoc": {
				"kind": "user",
				"methods": {},
				"version": 1
			}
		}
	}
}