{
	"ArraysExercise.sol": {
		"Submission": {
			"abi": [
				{
					"inputs": [],
					"stateMutability": "nonpayable",
					"type": "constructor"
				},
				{
					"inputs": [],
					"name": "afterY2K",
					"outputs": [
						{
							"internalType": "uint256[]",
							"name": "",
							"type": "uint256[]"
						},
						{
							"internalType": "address[]",
							"name": "",
							"type": "address[]"
						}
					],
					"stateMutability": "view",
					"type": "function"
				},
				{
					"inputs": [
						{
							"internalType": "uint256[]",
							"name": "_toAppend",
							"type": "uint256[]"
						}
					],
					"name": "appendToNumbers",
					"outputs": [],
					"stateMutability": "nonpayable",
					"type": "function"
				},
				{
					"inputs": [],
					"name": "getNumbers",
					"outputs": [
						{
							"internalType": "uint256[]",
							"name": "",
							"type": "uint256[]"
						}
					],
					"stateMutability": "view",
					"type": "function"
				},
				{
					"inputs": [],
					"name": "resetNumbers",
					"outputs": [],
					"stateMutability": "nonpayable",
					"type": "function"
				},
				{
					"inputs": [],
					"name": "resetSenders",
					"outputs": [],
					"stateMutability": "nonpayable",
					"type": "function"
				},
				{
					"inputs": [],
					"name": "resetTimestamps",
					"outputs": [],
					"stateMutability": "nonpayable",
					"type": "function"
				},
				{
					"inputs": [
						{
							"internalType": "uint256",
							"name": "_unixTimestamp",
							"type": "uint256"
						}
					],
					"name": "saveTimestamp",
					"outputs": [],
					"stateMutability": "nonpayable",
					"type": "function"
				}
			],
			"devdoc": {
				"kind": "dev",
				"methods": {},
				"version": 1
			},
			"evm": {
				"assembly": "    /* \"ArraysExercise.sol\":68:1750  contract Submission {... */\n  mstore(0x40, 0x80)\n    /* \"ArraysExercise.sol\":190:237  constructor() {... */\n  callvalue\n  dup1\n  iszero\n  tag_1\n  jumpi\n  0x00\n  dup1\n  revert\ntag_1:\n  pop\n    /* \"ArraysExercise.sol\":215:229  resetNumbers() */\n  tag_4\n    /* \"ArraysExercise.sol\":215:227  resetNumbers */\n  tag_5\n    /* \"ArraysExercise.sol\":215:229  resetNumbers() */\n  jump\t// in\ntag_4:\n    /* \"ArraysExercise.sol\":68:1750  contract Submission {... */\n  jump(tag_21)\n    /* \"ArraysExercise.sol\":245:392  function resetNumbers() public {... */\ntag_5:\n    /* \"ArraysExercise.sol\":287:301  delete numbers */\n  tag_8\n    /* \"ArraysExercise.sol\":294:301  numbers */\n  0x00\n  dup1\n    /* \"ArraysExercise.sol\":287:301  delete numbers */\n  tag_9\n  jump\t// in\ntag_8:\n    /* \"ArraysExercise.sol\":326:327  1 */\n  0x01\n    /* \"ArraysExercise.sol\":312:385  for (uint i = 1; i <= 10; i++) {... */\ntag_10:\n    /* \"ArraysExercise.sol\":334:336  10 */\n  0x0a\n    /* \"ArraysExercise.sol\":329:330  i */\n  dup2\n    /* \"ArraysExercise.sol\":329:336  i <= 10 */\n  gt\n    /* \"ArraysExercise.sol\":312:385  for (uint i = 1; i <= 10; i++) {... */\n  tag_11\n  jumpi\n    /* \"ArraysExercise.sol\":358:365  numbers */\n  0x00\n    /* \"ArraysExercise.sol\":358:373  numbers.push(i) */\n  dup1\n  sload\n  0x01\n  dup2\n  add\n  dup3\n  sstore\n  swap1\n  dup1\n  mstore\n  0x290decd9548b62a8d60345a988386fc84ba6bc95484008f6362f93160ef3e563\n  add\n  dup2\n  swap1\n  sstore\n    /* \"ArraysExercise.sol\":371:372  i */\n  dup1\n    /* \"ArraysExercise.sol\":338:341  i++ */\n  tag_14\n    /* \"ArraysExercise.sol\":371:372  i */\n  dup2\n    /* \"ArraysExercise.sol\":338:341  i++ */\n  tag_15\n  jump\t// in\ntag_14:\n  swap2\n  pop\n  pop\n    /* \"ArraysExercise.sol\":312:385  for (uint i = 1; i <= 10; i++) {... */\n  jump(tag_10)\ntag_11:\n  pop\n    /* \"ArraysExercise.sol\":245:392  function resetNumbers() public {... */\n  jump\t// out\n    /* \"ArraysExercise.sol\":68:1750  contract Submission {... */\ntag_9:\n  pop\n  dup1\n  sload\n  0x00\n  dup3\n  sstore\n  swap1\n  0x00\n  mstore\n  keccak256(0x00, 0x20)\n  swap1\n  dup2\n  add\n  swap1\n  tag_11\n  swap2\n  swap1\ntag_19:\n  dup1\n  dup3\n  gt\n  iszero\n  tag_20\n  jumpi\n  0x00\n  dup2\n  sstore\n  0x01\n  add\n  jump(tag_19)\ntag_20:\n  pop\n  swap1\n  jump\t// out\n    /* \"#utility.yul\":14:246   */\ntag_15:\n    /* \"#utility.yul\":53:56   */\n  0x00\n    /* \"#utility.yul\":74:91   */\n  0x01\n  dup3\n  add\n    /* \"#utility.yul\":71:211   */\n  tag_23\n  jumpi\n    /* \"#utility.yul\":133:143   */\n  0x4e487b71\n    /* \"#utility.yul\":128:131   */\n  0xe0\n    /* \"#utility.yul\":124:144   */\n  shl\n    /* \"#utility.yul\":121:122   */\n  0x00\n    /* \"#utility.yul\":114:145   */\n  mstore\n    /* \"#utility.yul\":168:172   */\n  0x11\n    /* \"#utility.yul\":165:166   */\n  0x04\n    /* \"#utility.yul\":158:173   */\n  mstore\n    /* \"#utility.yul\":196:200   */\n  0x24\n    /* \"#utility.yul\":193:194   */\n  0x00\n    /* \"#utility.yul\":186:201   */\n  revert\n    /* \"#utility.yul\":71:211   */\ntag_23:\n  pop\n    /* \"#utility.yul\":238:239   */\n  0x01\n    /* \"#utility.yul\":227:240   */\n  add\n  swap1\n    /* \"#utility.yul\":14:246   */\n  jump\t// out\ntag_21:\n    /* \"ArraysExercise.sol\":68:1750  contract Submission {... */\n  dataSize(sub_0)\n  dup1\n  dataOffset(sub_0)\n  0x00\n  codecopy\n  0x00\n  return\nstop\n\nsub_0: assembly {\n        /* \"ArraysExercise.sol\":68:1750  contract Submission {... */\n      mstore(0x40, 0x80)\n      callvalue\n      dup1\n      iszero\n      tag_1\n      jumpi\n      0x00\n      dup1\n      revert\n    tag_1:\n      pop\n      jumpi(tag_2, lt(calldatasize, 0x04))\n      shr(0xe0, calldataload(0x00))\n      dup1\n      0x89f915f6\n      gt\n      tag_10\n      jumpi\n      dup1\n      0x89f915f6\n      eq\n      tag_6\n      jumpi\n      dup1\n      0xa00b7acd\n      eq\n      tag_7\n      jumpi\n      dup1\n      0xade82bfd\n      eq\n      tag_8\n      jumpi\n      dup1\n      0xb1cebac5\n      eq\n      tag_9\n      jumpi\n      0x00\n      dup1\n      revert\n    tag_10:\n      dup1\n      0x20aaf79a\n      eq\n      tag_3\n      jumpi\n      dup1\n      0x4f9377db\n      eq\n      tag_4\n      jumpi\n      dup1\n      0x7f66b1b8\n      eq\n      tag_5\n      jumpi\n    tag_2:\n      0x00\n      dup1\n      revert\n        /* \"ArraysExercise.sol\":985:1747  function afterY2K() external view returns (uint[] memory, address[] memory) {... */\n    tag_3:\n      tag_11\n      tag_12\n      jump\t// in\n    tag_11:\n      mload(0x40)\n      tag_13\n      swap3\n      swap2\n      swap1\n      tag_14\n      jump\t// in\n    tag_13:\n      mload(0x40)\n      dup1\n      swap2\n      sub\n      swap1\n      return\n        /* \"ArraysExercise.sol\":400:576  function appendToNumbers(uint[] calldata _toAppend) external {... */\n    tag_4:\n      tag_15\n      tag_16\n      calldatasize\n      0x04\n      tag_17\n      jump\t// in\n    tag_16:\n      tag_18\n      jump\t// in\n    tag_15:\n      stop\n        /* \"ArraysExercise.sol\":911:977  function resetSenders() external {... */\n    tag_5:\n      tag_15\n      tag_20\n      jump\t// in\n        /* \"ArraysExercise.sol\":584:677  function getNumbers() external view returns (uint[] memory) {... */\n    tag_6:\n      tag_21\n      tag_22\n      jump\t// in\n    tag_21:\n      mload(0x40)\n      tag_13\n      swap2\n      swap1\n      tag_24\n      jump\t// in\n        /* \"ArraysExercise.sol\":685:823  function saveTimestamp(uint _unixTimestamp) external {... */\n    tag_7:\n      tag_15\n      tag_26\n      calldatasize\n      0x04\n      tag_27\n      jump\t// in\n    tag_26:\n        /* \"ArraysExercise.sol\":749:759  timestamps */\n      0x01\n        /* \"ArraysExercise.sol\":749:780  timestamps.push(_unixTimestamp) */\n      dup1\n      sload\n      dup1\n      dup3\n      add\n      dup3\n      sstore\n      0xb10e2d527612073b26eecdfd717e6a320cf44b4afac2b0732d9fcbe2b7fa0cf6\n      add\n      swap2\n      swap1\n      swap2\n      sstore\n        /* \"ArraysExercise.sol\":791:798  senders */\n      0x02\n        /* \"ArraysExercise.sol\":791:815  senders.push(msg.sender) */\n      dup1\n      sload\n      swap2\n      dup3\n      add\n      dup2\n      sstore\n      0x00\n      mstore\n      0x405787fa12a823e0f2b7631cc41b3ba8828b3321ca811111fa75cd3aa3bb5ace\n      add\n      dup1\n      sload\n      not(sub(shl(0xa0, 0x01), 0x01))\n      and\n        /* \"ArraysExercise.sol\":804:814  msg.sender */\n      caller\n        /* \"ArraysExercise.sol\":791:815  senders.push(msg.sender) */\n      or\n      swap1\n      sstore\n        /* \"ArraysExercise.sol\":685:823  function saveTimestamp(uint _unixTimestamp) external {... */\n      jump\n        /* \"ArraysExercise.sol\":831:903  function resetTimestamps() external {... */\n    tag_8:\n      tag_15\n      tag_30\n      jump\t// in\n        /* \"ArraysExercise.sol\":245:392  function resetNumbers() public {... */\n    tag_9:\n      tag_15\n      tag_32\n      jump\t// in\n        /* \"ArraysExercise.sol\":985:1747  function afterY2K() external view returns (uint[] memory, address[] memory) {... */\n    tag_12:\n        /* \"ArraysExercise.sol\":1028:1041  uint[] memory */\n      0x60\n        /* \"ArraysExercise.sol\":1043:1059  address[] memory */\n      dup1\n        /* \"ArraysExercise.sol\":1072:1082  uint count */\n      0x00\n        /* \"ArraysExercise.sol\":1102:1108  uint i */\n      dup1\n        /* \"ArraysExercise.sol\":1097:1242  for (uint i = 0; i < timestamps.length; i++) {... */\n    tag_34:\n        /* \"ArraysExercise.sol\":1118:1128  timestamps */\n      0x01\n        /* \"ArraysExercise.sol\":1118:1135  timestamps.length */\n      sload\n        /* \"ArraysExercise.sol\":1114:1135  i < timestamps.length */\n      dup2\n      lt\n        /* \"ArraysExercise.sol\":1097:1242  for (uint i = 0; i < timestamps.length; i++) {... */\n      iszero\n      tag_35\n      jumpi\n        /* \"ArraysExercise.sol\":1178:1187  946702900 */\n      0x386d8a34\n        /* \"ArraysExercise.sol\":1161:1171  timestamps */\n      0x01\n        /* \"ArraysExercise.sol\":1172:1173  i */\n      dup3\n        /* \"ArraysExercise.sol\":1161:1174  timestamps[i] */\n      dup2\n      sload\n      dup2\n      lt\n      tag_38\n      jumpi\n      tag_38\n      tag_39\n      jump\t// in\n    tag_38:\n      swap1\n      0x00\n      mstore\n      keccak256(0x00, 0x20)\n      add\n      sload\n        /* \"ArraysExercise.sol\":1161:1187  timestamps[i] >= 946702900 */\n      lt\n        /* \"ArraysExercise.sol\":1157:1231  if (timestamps[i] >= 946702900) {... */\n      tag_41\n      jumpi\n        /* \"ArraysExercise.sol\":1208:1215  count++ */\n      dup2\n      tag_42\n      dup2\n      tag_43\n      jump\t// in\n    tag_42:\n      swap3\n      pop\n      pop\n        /* \"ArraysExercise.sol\":1157:1231  if (timestamps[i] >= 946702900) {... */\n    tag_41:\n        /* \"ArraysExercise.sol\":1137:1140  i++ */\n      0x01\n      add\n        /* \"ArraysExercise.sol\":1097:1242  for (uint i = 0; i < timestamps.length; i++) {... */\n      jump(tag_34)\n    tag_35:\n      pop\n        /* \"ArraysExercise.sol\":1254:1286  uint[] memory filteredTimestamps */\n      0x00\n        /* \"ArraysExercise.sol\":1300:1305  count */\n      dup2\n        /* \"ArraysExercise.sol\":1289:1306  new uint[](count) */\n      0xffffffffffffffff\n      dup2\n      gt\n      iszero\n      tag_45\n      jumpi\n      tag_45\n      tag_46\n      jump\t// in\n    tag_45:\n      mload(0x40)\n      swap1\n      dup1\n      dup3\n      mstore\n      dup1\n      0x20\n      mul\n      0x20\n      add\n      dup3\n      add\n      0x40\n      mstore\n      dup1\n      iszero\n      tag_47\n      jumpi\n      dup2\n      0x20\n      add\n      0x20\n      dup3\n      mul\n      dup1\n      calldatasize\n      dup4\n      calldatacopy\n      add\n      swap1\n      pop\n    tag_47:\n      pop\n        /* \"ArraysExercise.sol\":1254:1306  uint[] memory filteredTimestamps = new uint[](count) */\n      swap1\n      pop\n        /* \"ArraysExercise.sol\":1317:1351  address[] memory filteredAddresses */\n      0x00\n        /* \"ArraysExercise.sol\":1368:1373  count */\n      dup3\n        /* \"ArraysExercise.sol\":1354:1374  new address[](count) */\n      0xffffffffffffffff\n      dup2\n      gt\n      iszero\n      tag_49\n      jumpi\n      tag_49\n      tag_46\n      jump\t// in\n    tag_49:\n      mload(0x40)\n      swap1\n      dup1\n      dup3\n      mstore\n      dup1\n      0x20\n      mul\n      0x20\n      add\n      dup3\n      add\n      0x40\n      mstore\n      dup1\n      iszero\n      tag_50\n      jumpi\n      dup2\n      0x20\n      add\n      0x20\n      dup3\n      mul\n      dup1\n      calldatasize\n      dup4\n      calldatacopy\n      add\n      swap1\n      pop\n    tag_50:\n      pop\n        /* \"ArraysExercise.sol\":1317:1374  address[] memory filteredAddresses = new address[](count) */\n      swap1\n      pop\n        /* \"ArraysExercise.sol\":1385:1397  uint counter */\n      0x00\n        /* \"ArraysExercise.sol\":1419:1425  uint i */\n      dup1\n        /* \"ArraysExercise.sol\":1414:1681  for (uint i = 0; i < timestamps.length; i++) {... */\n    tag_51:\n        /* \"ArraysExercise.sol\":1435:1445  timestamps */\n      0x01\n        /* \"ArraysExercise.sol\":1435:1452  timestamps.length */\n      sload\n        /* \"ArraysExercise.sol\":1431:1452  i < timestamps.length */\n      dup2\n      lt\n        /* \"ArraysExercise.sol\":1414:1681  for (uint i = 0; i < timestamps.length; i++) {... */\n      iszero\n      tag_52\n      jumpi\n        /* \"ArraysExercise.sol\":1495:1504  946702900 */\n      0x386d8a34\n        /* \"ArraysExercise.sol\":1478:1488  timestamps */\n      0x01\n        /* \"ArraysExercise.sol\":1489:1490  i */\n      dup3\n        /* \"ArraysExercise.sol\":1478:1491  timestamps[i] */\n      dup2\n      sload\n      dup2\n      lt\n      tag_55\n      jumpi\n      tag_55\n      tag_39\n      jump\t// in\n    tag_55:\n      swap1\n      0x00\n      mstore\n      keccak256(0x00, 0x20)\n      add\n      sload\n        /* \"ArraysExercise.sol\":1478:1504  timestamps[i] >= 946702900 */\n      lt\n        /* \"ArraysExercise.sol\":1474:1670  if (timestamps[i] >= 946702900) {... */\n      tag_57\n      jumpi\n        /* \"ArraysExercise.sol\":1555:1565  timestamps */\n      0x01\n        /* \"ArraysExercise.sol\":1566:1567  i */\n      dup2\n        /* \"ArraysExercise.sol\":1555:1568  timestamps[i] */\n      dup2\n      sload\n      dup2\n      lt\n      tag_59\n      jumpi\n      tag_59\n      tag_39\n      jump\t// in\n    tag_59:\n      swap1\n      0x00\n      mstore\n      keccak256(0x00, 0x20)\n      add\n      sload\n        /* \"ArraysExercise.sol\":1525:1543  filteredTimestamps */\n      dup5\n        /* \"ArraysExercise.sol\":1544:1551  counter */\n      dup4\n        /* \"ArraysExercise.sol\":1525:1552  filteredTimestamps[counter] */\n      dup2\n      mload\n      dup2\n      lt\n      tag_62\n      jumpi\n      tag_62\n      tag_39\n      jump\t// in\n    tag_62:\n      0x20\n      mul\n      0x20\n      add\n      add\n        /* \"ArraysExercise.sol\":1525:1568  filteredTimestamps[counter] = timestamps[i] */\n      dup2\n      dup2\n      mstore\n      pop\n      pop\n        /* \"ArraysExercise.sol\":1616:1623  senders */\n      0x02\n        /* \"ArraysExercise.sol\":1624:1625  i */\n      dup2\n        /* \"ArraysExercise.sol\":1616:1626  senders[i] */\n      dup2\n      sload\n      dup2\n      lt\n      tag_64\n      jumpi\n      tag_64\n      tag_39\n      jump\t// in\n    tag_64:\n      swap1\n      0x00\n      mstore\n      keccak256(0x00, 0x20)\n      add\n      0x00\n      swap1\n      sload\n      swap1\n      0x0100\n      exp\n      swap1\n      div\n      sub(shl(0xa0, 0x01), 0x01)\n      and\n        /* \"ArraysExercise.sol\":1587:1604  filteredAddresses */\n      dup4\n        /* \"ArraysExercise.sol\":1605:1612  counter */\n      dup4\n        /* \"ArraysExercise.sol\":1587:1613  filteredAddresses[counter] */\n      dup2\n      mload\n      dup2\n      lt\n      tag_67\n      jumpi\n      tag_67\n      tag_39\n      jump\t// in\n    tag_67:\n      sub(shl(0xa0, 0x01), 0x01)\n        /* \"ArraysExercise.sol\":1587:1626  filteredAddresses[counter] = senders[i] */\n      swap1\n      swap3\n      and\n        /* \"ArraysExercise.sol\":1587:1613  filteredAddresses[counter] */\n      0x20\n      swap3\n      dup4\n      mul\n      swap2\n      swap1\n      swap2\n      add\n      swap1\n      swap2\n      add\n        /* \"ArraysExercise.sol\":1587:1626  filteredAddresses[counter] = senders[i] */\n      mstore\n        /* \"ArraysExercise.sol\":1645:1654  counter++ */\n      dup2\n      tag_68\n      dup2\n      tag_43\n      jump\t// in\n    tag_68:\n      swap3\n      pop\n      pop\n        /* \"ArraysExercise.sol\":1474:1670  if (timestamps[i] >= 946702900) {... */\n    tag_57:\n        /* \"ArraysExercise.sol\":1454:1457  i++ */\n      0x01\n      add\n        /* \"ArraysExercise.sol\":1414:1681  for (uint i = 0; i < timestamps.length; i++) {... */\n      jump(tag_51)\n    tag_52:\n      pop\n        /* \"ArraysExercise.sol\":1701:1719  filteredTimestamps */\n      swap2\n      swap6\n        /* \"ArraysExercise.sol\":1721:1738  filteredAddresses */\n      swap1\n      swap5\n      pop\n        /* \"ArraysExercise.sol\":985:1747  function afterY2K() external view returns (uint[] memory, address[] memory) {... */\n      swap3\n      pop\n      pop\n      pop\n      jump\t// out\n        /* \"ArraysExercise.sol\":400:576  function appendToNumbers(uint[] calldata _toAppend) external {... */\n    tag_18:\n        /* \"ArraysExercise.sol\":477:483  uint i */\n      0x00\n        /* \"ArraysExercise.sol\":472:569  for (uint i = 0; i < _toAppend.length; i++) {... */\n    tag_70:\n        /* \"ArraysExercise.sol\":489:509  i < _toAppend.length */\n      dup2\n      dup2\n      lt\n        /* \"ArraysExercise.sol\":472:569  for (uint i = 0; i < _toAppend.length; i++) {... */\n      iszero\n      tag_71\n      jumpi\n        /* \"ArraysExercise.sol\":531:538  numbers */\n      0x00\n        /* \"ArraysExercise.sol\":544:553  _toAppend */\n      dup4\n      dup4\n        /* \"ArraysExercise.sol\":554:555  i */\n      dup4\n        /* \"ArraysExercise.sol\":544:556  _toAppend[i] */\n      dup2\n      dup2\n      lt\n      tag_74\n      jumpi\n      tag_74\n      tag_39\n      jump\t// in\n    tag_74:\n        /* \"ArraysExercise.sol\":531:557  numbers.push(_toAppend[i]) */\n      dup4\n      sload\n      0x01\n      dup1\n      dup3\n      add\n      dup7\n      sstore\n      0x00\n      swap6\n      dup7\n      mstore\n        /* \"ArraysExercise.sol\":544:556  _toAppend[i] */\n      0x20\n        /* \"ArraysExercise.sol\":531:557  numbers.push(_toAppend[i]) */\n      swap6\n      dup7\n      swap1\n      keccak256\n        /* \"ArraysExercise.sol\":544:556  _toAppend[i] */\n      swap3\n      swap1\n      swap6\n      mul\n      swap4\n      swap1\n      swap4\n      add\n      calldataload\n        /* \"ArraysExercise.sol\":531:557  numbers.push(_toAppend[i]) */\n      swap3\n      add\n      swap2\n      swap1\n      swap2\n      sstore\n      pop\n        /* \"ArraysExercise.sol\":511:514  i++ */\n      add\n        /* \"ArraysExercise.sol\":472:569  for (uint i = 0; i < _toAppend.length; i++) {... */\n      jump(tag_70)\n    tag_71:\n      pop\n        /* \"ArraysExercise.sol\":400:576  function appendToNumbers(uint[] calldata _toAppend) external {... */\n      pop\n      pop\n      jump\t// out\n        /* \"ArraysExercise.sol\":911:977  function resetSenders() external {... */\n    tag_20:\n        /* \"ArraysExercise.sol\":955:969  delete senders */\n      tag_77\n        /* \"ArraysExercise.sol\":962:969  senders */\n      0x02\n      0x00\n        /* \"ArraysExercise.sol\":955:969  delete senders */\n      tag_78\n      jump\t// in\n    tag_77:\n        /* \"ArraysExercise.sol\":911:977  function resetSenders() external {... */\n      jump\t// out\n        /* \"ArraysExercise.sol\":584:677  function getNumbers() external view returns (uint[] memory) {... */\n    tag_22:\n        /* \"ArraysExercise.sol\":629:642  uint[] memory */\n      0x60\n        /* \"ArraysExercise.sol\":662:669  numbers */\n      0x00\n        /* \"ArraysExercise.sol\":655:669  return numbers */\n      dup1\n      sload\n      dup1\n      0x20\n      mul\n      0x20\n      add\n      mload(0x40)\n      swap1\n      dup2\n      add\n      0x40\n      mstore\n      dup1\n      swap3\n      swap2\n      swap1\n      dup2\n      dup2\n      mstore\n      0x20\n      add\n      dup3\n      dup1\n      sload\n      dup1\n      iszero\n      tag_80\n      jumpi\n      0x20\n      mul\n      dup3\n      add\n      swap2\n      swap1\n      0x00\n      mstore\n      keccak256(0x00, 0x20)\n      swap1\n    tag_81:\n      dup2\n      sload\n      dup2\n      mstore\n      0x20\n      add\n      swap1\n      0x01\n      add\n      swap1\n      dup1\n      dup4\n      gt\n      tag_81\n      jumpi\n    tag_80:\n      pop\n      pop\n      pop\n      pop\n      pop\n      swap1\n      pop\n        /* \"ArraysExercise.sol\":584:677  function getNumbers() external view returns (uint[] memory) {... */\n      swap1\n      jump\t// out\n        /* \"ArraysExercise.sol\":831:903  function resetTimestamps() external {... */\n    tag_30:\n        /* \"ArraysExercise.sol\":878:895  delete timestamps */\n      tag_77\n        /* \"ArraysExercise.sol\":885:895  timestamps */\n      0x01\n      0x00\n        /* \"ArraysExercise.sol\":878:895  delete timestamps */\n      tag_78\n      jump\t// in\n        /* \"ArraysExercise.sol\":245:392  function resetNumbers() public {... */\n    tag_32:\n        /* \"ArraysExercise.sol\":287:301  delete numbers */\n      tag_89\n        /* \"ArraysExercise.sol\":294:301  numbers */\n      0x00\n      dup1\n        /* \"ArraysExercise.sol\":287:301  delete numbers */\n      tag_78\n      jump\t// in\n    tag_89:\n        /* \"ArraysExercise.sol\":326:327  1 */\n      0x01\n        /* \"ArraysExercise.sol\":312:385  for (uint i = 1; i <= 10; i++) {... */\n    tag_90:\n        /* \"ArraysExercise.sol\":334:336  10 */\n      0x0a\n        /* \"ArraysExercise.sol\":329:330  i */\n      dup2\n        /* \"ArraysExercise.sol\":329:336  i <= 10 */\n      gt\n        /* \"ArraysExercise.sol\":312:385  for (uint i = 1; i <= 10; i++) {... */\n      tag_91\n      jumpi\n        /* \"ArraysExercise.sol\":358:365  numbers */\n      0x00\n        /* \"ArraysExercise.sol\":358:373  numbers.push(i) */\n      dup1\n      sload\n      0x01\n      dup2\n      add\n      dup3\n      sstore\n      swap1\n      dup1\n      mstore\n      0x290decd9548b62a8d60345a988386fc84ba6bc95484008f6362f93160ef3e563\n      add\n      dup2\n      swap1\n      sstore\n        /* \"ArraysExercise.sol\":371:372  i */\n      dup1\n        /* \"ArraysExercise.sol\":338:341  i++ */\n      tag_94\n        /* \"ArraysExercise.sol\":371:372  i */\n      dup2\n        /* \"ArraysExercise.sol\":338:341  i++ */\n      tag_43\n      jump\t// in\n    tag_94:\n      swap2\n      pop\n      pop\n        /* \"ArraysExercise.sol\":312:385  for (uint i = 1; i <= 10; i++) {... */\n      jump(tag_90)\n    tag_91:\n      pop\n        /* \"ArraysExercise.sol\":245:392  function resetNumbers() public {... */\n      jump\t// out\n    tag_78:\n      pop\n      dup1\n      sload\n      0x00\n      dup3\n      sstore\n      swap1\n      0x00\n      mstore\n      keccak256(0x00, 0x20)\n      swap1\n      dup2\n      add\n      swap1\n      tag_91\n      swap2\n      swap1\n    tag_100:\n      dup1\n      dup3\n      gt\n      iszero\n      tag_101\n      jumpi\n      0x00\n      dup2\n      sstore\n      0x01\n      add\n      jump(tag_100)\n    tag_101:\n      pop\n      swap1\n      jump\t// out\n        /* \"#utility.yul\":14:453   */\n    tag_102:\n        /* \"#utility.yul\":67:70   */\n      0x00\n        /* \"#utility.yul\":105:110   */\n      dup2\n        /* \"#utility.yul\":99:111   */\n      mload\n        /* \"#utility.yul\":132:138   */\n      dup1\n        /* \"#utility.yul\":127:130   */\n      dup5\n        /* \"#utility.yul\":120:139   */\n      mstore\n        /* \"#utility.yul\":158:162   */\n      0x20\n        /* \"#utility.yul\":187:191   */\n      dup1\n        /* \"#utility.yul\":182:185   */\n      dup6\n        /* \"#utility.yul\":178:192   */\n      add\n        /* \"#utility.yul\":171:192   */\n      swap5\n      pop\n        /* \"#utility.yul\":226:230   */\n      0x20\n        /* \"#utility.yul\":219:224   */\n      dup5\n        /* \"#utility.yul\":215:231   */\n      add\n        /* \"#utility.yul\":249:250   */\n      0x00\n        /* \"#utility.yul\":259:428   */\n    tag_105:\n        /* \"#utility.yul\":273:279   */\n      dup4\n        /* \"#utility.yul\":270:271   */\n      dup2\n        /* \"#utility.yul\":267:280   */\n      lt\n        /* \"#utility.yul\":259:428   */\n      iszero\n      tag_107\n      jumpi\n        /* \"#utility.yul\":334:347   */\n      dup2\n      mload\n        /* \"#utility.yul\":322:348   */\n      dup8\n      mstore\n        /* \"#utility.yul\":368:380   */\n      swap6\n      dup3\n      add\n      swap6\n        /* \"#utility.yul\":403:418   */\n      swap1\n      dup3\n      add\n      swap1\n        /* \"#utility.yul\":295:296   */\n      0x01\n        /* \"#utility.yul\":288:297   */\n      add\n        /* \"#utility.yul\":259:428   */\n      jump(tag_105)\n    tag_107:\n      pop\n        /* \"#utility.yul\":444:447   */\n      swap5\n      swap6\n        /* \"#utility.yul\":14:453   */\n      swap5\n      pop\n      pop\n      pop\n      pop\n      pop\n      jump\t// out\n        /* \"#utility.yul\":458:1288   */\n    tag_14:\n        /* \"#utility.yul\":715:717   */\n      0x40\n        /* \"#utility.yul\":704:713   */\n      dup2\n        /* \"#utility.yul\":697:718   */\n      mstore\n        /* \"#utility.yul\":678:682   */\n      0x00\n        /* \"#utility.yul\":741:797   */\n      tag_109\n        /* \"#utility.yul\":793:795   */\n      0x40\n        /* \"#utility.yul\":782:791   */\n      dup4\n        /* \"#utility.yul\":778:796   */\n      add\n        /* \"#utility.yul\":770:776   */\n      dup6\n        /* \"#utility.yul\":741:797   */\n      tag_102\n      jump\t// in\n    tag_109:\n        /* \"#utility.yul\":854:876   */\n      dup3\n      dup2\n      sub\n        /* \"#utility.yul\":816:818   */\n      0x20\n        /* \"#utility.yul\":834:852   */\n      dup5\n      dup2\n      add\n        /* \"#utility.yul\":827:877   */\n      swap2\n      swap1\n      swap2\n      mstore\n        /* \"#utility.yul\":926:939   */\n      dup5\n      mload\n        /* \"#utility.yul\":948:970   */\n      dup1\n      dup4\n      mstore\n        /* \"#utility.yul\":1024:1039   */\n      dup6\n      dup3\n      add\n      swap3\n        /* \"#utility.yul\":986:1001   */\n      dup3\n      add\n      swap1\n        /* \"#utility.yul\":1057:1058   */\n      0x00\n        /* \"#utility.yul\":1067:1262   */\n    tag_110:\n        /* \"#utility.yul\":1081:1087   */\n      dup2\n        /* \"#utility.yul\":1078:1079   */\n      dup2\n        /* \"#utility.yul\":1075:1088   */\n      lt\n        /* \"#utility.yul\":1067:1262   */\n      iszero\n      tag_112\n      jumpi\n        /* \"#utility.yul\":1146:1159   */\n      dup5\n      mload\n      sub(shl(0xa0, 0x01), 0x01)\n        /* \"#utility.yul\":1142:1181   */\n      and\n        /* \"#utility.yul\":1130:1182   */\n      dup4\n      mstore\n        /* \"#utility.yul\":1237:1252   */\n      swap4\n      dup4\n      add\n      swap4\n        /* \"#utility.yul\":1202:1214   */\n      swap2\n      dup4\n      add\n      swap2\n        /* \"#utility.yul\":1178:1179   */\n      0x01\n        /* \"#utility.yul\":1096:1105   */\n      add\n        /* \"#utility.yul\":1067:1262   */\n      jump(tag_110)\n    tag_112:\n      pop\n        /* \"#utility.yul\":1279:1282   */\n      swap1\n      swap8\n        /* \"#utility.yul\":458:1288   */\n      swap7\n      pop\n      pop\n      pop\n      pop\n      pop\n      pop\n      pop\n      jump\t// out\n        /* \"#utility.yul\":1293:1908   */\n    tag_17:\n        /* \"#utility.yul\":1379:1385   */\n      0x00\n        /* \"#utility.yul\":1387:1393   */\n      dup1\n        /* \"#utility.yul\":1440:1442   */\n      0x20\n        /* \"#utility.yul\":1428:1437   */\n      dup4\n        /* \"#utility.yul\":1419:1426   */\n      dup6\n        /* \"#utility.yul\":1415:1438   */\n      sub\n        /* \"#utility.yul\":1411:1443   */\n      slt\n        /* \"#utility.yul\":1408:1460   */\n      iszero\n      tag_114\n      jumpi\n        /* \"#utility.yul\":1456:1457   */\n      0x00\n        /* \"#utility.yul\":1453:1454   */\n      dup1\n        /* \"#utility.yul\":1446:1458   */\n      revert\n        /* \"#utility.yul\":1408:1460   */\n    tag_114:\n        /* \"#utility.yul\":1496:1505   */\n      dup3\n        /* \"#utility.yul\":1483:1506   */\n      calldataload\n        /* \"#utility.yul\":1525:1543   */\n      0xffffffffffffffff\n        /* \"#utility.yul\":1566:1568   */\n      dup1\n        /* \"#utility.yul\":1558:1564   */\n      dup3\n        /* \"#utility.yul\":1555:1569   */\n      gt\n        /* \"#utility.yul\":1552:1586   */\n      iszero\n      tag_115\n      jumpi\n        /* \"#utility.yul\":1582:1583   */\n      0x00\n        /* \"#utility.yul\":1579:1580   */\n      dup1\n        /* \"#utility.yul\":1572:1584   */\n      revert\n        /* \"#utility.yul\":1552:1586   */\n    tag_115:\n        /* \"#utility.yul\":1620:1626   */\n      dup2\n        /* \"#utility.yul\":1609:1618   */\n      dup6\n        /* \"#utility.yul\":1605:1627   */\n      add\n        /* \"#utility.yul\":1595:1627   */\n      swap2\n      pop\n        /* \"#utility.yul\":1665:1672   */\n      dup6\n        /* \"#utility.yul\":1658:1662   */\n      0x1f\n        /* \"#utility.yul\":1654:1656   */\n      dup4\n        /* \"#utility.yul\":1650:1663   */\n      add\n        /* \"#utility.yul\":1646:1673   */\n      slt\n        /* \"#utility.yul\":1636:1691   */\n      tag_116\n      jumpi\n        /* \"#utility.yul\":1687:1688   */\n      0x00\n        /* \"#utility.yul\":1684:1685   */\n      dup1\n        /* \"#utility.yul\":1677:1689   */\n      revert\n        /* \"#utility.yul\":1636:1691   */\n    tag_116:\n        /* \"#utility.yul\":1727:1729   */\n      dup2\n        /* \"#utility.yul\":1714:1730   */\n      calldataload\n        /* \"#utility.yul\":1753:1755   */\n      dup2\n        /* \"#utility.yul\":1745:1751   */\n      dup2\n        /* \"#utility.yul\":1742:1756   */\n      gt\n        /* \"#utility.yul\":1739:1773   */\n      iszero\n      tag_117\n      jumpi\n        /* \"#utility.yul\":1769:1770   */\n      0x00\n        /* \"#utility.yul\":1766:1767   */\n      dup1\n        /* \"#utility.yul\":1759:1771   */\n      revert\n        /* \"#utility.yul\":1739:1773   */\n    tag_117:\n        /* \"#utility.yul\":1822:1829   */\n      dup7\n        /* \"#utility.yul\":1817:1819   */\n      0x20\n        /* \"#utility.yul\":1807:1813   */\n      dup3\n        /* \"#utility.yul\":1804:1805   */\n      0x05\n        /* \"#utility.yul\":1800:1814   */\n      shl\n        /* \"#utility.yul\":1796:1798   */\n      dup6\n        /* \"#utility.yul\":1792:1815   */\n      add\n        /* \"#utility.yul\":1788:1820   */\n      add\n        /* \"#utility.yul\":1785:1830   */\n      gt\n        /* \"#utility.yul\":1782:1847   */\n      iszero\n      tag_118\n      jumpi\n        /* \"#utility.yul\":1843:1844   */\n      0x00\n        /* \"#utility.yul\":1840:1841   */\n      dup1\n        /* \"#utility.yul\":1833:1845   */\n      revert\n        /* \"#utility.yul\":1782:1847   */\n    tag_118:\n        /* \"#utility.yul\":1874:1876   */\n      0x20\n        /* \"#utility.yul\":1866:1877   */\n      swap3\n      swap1\n      swap3\n      add\n      swap7\n        /* \"#utility.yul\":1896:1902   */\n      swap2\n      swap6\n      pop\n        /* \"#utility.yul\":1293:1908   */\n      swap1\n      swap4\n      pop\n      pop\n      pop\n      pop\n      jump\t// out\n        /* \"#utility.yul\":1913:2174   */\n    tag_24:\n        /* \"#utility.yul\":2092:2094   */\n      0x20\n        /* \"#utility.yul\":2081:2090   */\n      dup2\n        /* \"#utility.yul\":2074:2095   */\n      mstore\n        /* \"#utility.yul\":2055:2059   */\n      0x00\n        /* \"#utility.yul\":2112:2168   */\n      tag_120\n        /* \"#utility.yul\":2164:2166   */\n      0x20\n        /* \"#utility.yul\":2153:2162   */\n      dup4\n        /* \"#utility.yul\":2149:2167   */\n      add\n        /* \"#utility.yul\":2141:2147   */\n      dup5\n        /* \"#utility.yul\":2112:2168   */\n      tag_102\n      jump\t// in\n    tag_120:\n        /* \"#utility.yul\":2104:2168   */\n      swap4\n        /* \"#utility.yul\":1913:2174   */\n      swap3\n      pop\n      pop\n      pop\n      jump\t// out\n        /* \"#utility.yul\":2179:2359   */\n    tag_27:\n        /* \"#utility.yul\":2238:2244   */\n      0x00\n        /* \"#utility.yul\":2291:2293   */\n      0x20\n        /* \"#utility.yul\":2279:2288   */\n      dup3\n        /* \"#utility.yul\":2270:2277   */\n      dup5\n        /* \"#utility.yul\":2266:2289   */\n      sub\n        /* \"#utility.yul\":2262:2294   */\n      slt\n        /* \"#utility.yul\":2259:2311   */\n      iszero\n      tag_122\n      jumpi\n        /* \"#utility.yul\":2307:2308   */\n      0x00\n        /* \"#utility.yul\":2304:2305   */\n      dup1\n        /* \"#utility.yul\":2297:2309   */\n      revert\n        /* \"#utility.yul\":2259:2311   */\n    tag_122:\n      pop\n        /* \"#utility.yul\":2330:2353   */\n      calldataload\n      swap2\n        /* \"#utility.yul\":2179:2359   */\n      swap1\n      pop\n      jump\t// out\n        /* \"#utility.yul\":2364:2491   */\n    tag_39:\n        /* \"#utility.yul\":2425:2435   */\n      0x4e487b71\n        /* \"#utility.yul\":2420:2423   */\n      0xe0\n        /* \"#utility.yul\":2416:2436   */\n      shl\n        /* \"#utility.yul\":2413:2414   */\n      0x00\n        /* \"#utility.yul\":2406:2437   */\n      mstore\n        /* \"#utility.yul\":2456:2460   */\n      0x32\n        /* \"#utility.yul\":2453:2454   */\n      0x04\n        /* \"#utility.yul\":2446:2461   */\n      mstore\n        /* \"#utility.yul\":2480:2484   */\n      0x24\n        /* \"#utility.yul\":2477:2478   */\n      0x00\n        /* \"#utility.yul\":2470:2485   */\n      revert\n        /* \"#utility.yul\":2496:2728   */\n    tag_43:\n        /* \"#utility.yul\":2535:2538   */\n      0x00\n        /* \"#utility.yul\":2556:2573   */\n      0x01\n      dup3\n      add\n        /* \"#utility.yul\":2553:2693   */\n      tag_125\n      jumpi\n        /* \"#utility.yul\":2615:2625   */\n      0x4e487b71\n        /* \"#utility.yul\":2610:2613   */\n      0xe0\n        /* \"#utility.yul\":2606:2626   */\n      shl\n        /* \"#utility.yul\":2603:2604   */\n      0x00\n        /* \"#utility.yul\":2596:2627   */\n      mstore\n        /* \"#utility.yul\":2650:2654   */\n      0x11\n        /* \"#utility.yul\":2647:2648   */\n      0x04\n        /* \"#utility.yul\":2640:2655   */\n      mstore\n        /* \"#utility.yul\":2678:2682   */\n      0x24\n        /* \"#utility.yul\":2675:2676   */\n      0x00\n        /* \"#utility.yul\":2668:2683   */\n      revert\n        /* \"#utility.yul\":2553:2693   */\n    tag_125:\n      pop\n        /* \"#utility.yul\":2720:2721   */\n      0x01\n        /* \"#utility.yul\":2709:2722   */\n      add\n      swap1\n        /* \"#utility.yul\":2496:2728   */\n      jump\t// out\n        /* \"#utility.yul\":2733:2860   */\n    tag_46:\n        /* \"#utility.yul\":2794:2804   */\n      0x4e487b71\n        /* \"#utility.yul\":2789:2792   */\n      0xe0\n        /* \"#utility.yul\":2785:2805   */\n      shl\n        /* \"#utility.yul\":2782:2783   */\n      0x00\n        /* \"#utility.yul\":2775:2806   */\n      mstore\n        /* \"#utility.yul\":2825:2829   */\n      0x41\n        /* \"#utility.yul\":2822:2823   */\n      0x04\n        /* \"#utility.yul\":2815:2830   */\n      mstore\n        /* \"#utility.yul\":2849:2853   */\n      0x24\n        /* \"#utility.yul\":2846:2847   */\n      0x00\n        /* \"#utility.yul\":2839:2854   */\n      revert\n\n    auxdata: 0xa2646970667358221220f62cbbd0ae75cd69a0be55076d8f3c8029eaafb11e72d74feaae1644208d619d64736f6c63430008170033\n}\n",
				"bytecode": {
					"linkReferences": {},
					"object": "608060405234801561000f575f80fd5b5061001861001d565b6100ca565b6100275f80610078565b60015b600a8111610075575f80546001810182559080527f290decd9548b62a8d60345a988386fc84ba6bc95484008f6362f93160ef3e563018190558061006d816100a6565b91505061002a565b50565b5080545f8255905f5260205f209081019061007591905b808211156100a2575f815560010161008f565b5090565b5f600182016100c357634e487b7160e01b5f52601160045260245ffd5b5060010190565b610615806100d75f395ff3fe608060405234801561000f575f80fd5b506004361061007a575f3560e01c806389f915f61161005857806389f915f6146100ba578063a00b7acd146100cf578063ade82bfd1461014b578063b1cebac514610153575f80fd5b806320aaf79a1461007e5780634f9377db1461009d5780637f66b1b8146100b2575b5f80fd5b61008661015b565b604051610094929190610496565b60405180910390f35b6100b06100ab3660046104f4565b61031b565b005b6100b0610366565b6100c2610373565b6040516100949190610563565b6100b06100dd36600461057c565b6001805480820182557fb10e2d527612073b26eecdfd717e6a320cf44b4afac2b0732d9fcbe2b7fa0cf601919091556002805491820181555f527f405787fa12a823e0f2b7631cc41b3ba8828b3321ca811111fa75cd3aa3bb5ace0180546001600160a01b03191633179055565b6100b06103c8565b6100b06103d3565b6060805f805b6001548110156101a75763386d8a346001828154811061018357610183610593565b905f5260205f2001541061019f578161019b816105a7565b9250505b600101610161565b505f8167ffffffffffffffff8111156101c2576101c26105cb565b6040519080825280602002602001820160405280156101eb578160200160208202803683370190505b5090505f8267ffffffffffffffff811115610208576102086105cb565b604051908082528060200260200182016040528015610231578160200160208202803683370190505b5090505f805b60015481101561030f5763386d8a346001828154811061025957610259610593565b905f5260205f20015410610307576001818154811061027a5761027a610593565b905f5260205f20015484838151811061029557610295610593565b602002602001018181525050600281815481106102b4576102b4610593565b905f5260205f20015f9054906101000a90046001600160a01b03168383815181106102e1576102e1610593565b6001600160a01b039092166020928302919091019091015281610303816105a7565b9250505b600101610237565b50919590945092505050565b5f5b81811015610361575f83838381811061033857610338610593565b8354600180820186555f958652602095869020929095029390930135920191909155500161031d565b505050565b61037160025f61042e565b565b60605f8054806020026020016040519081016040528092919081815260200182805480156103be57602002820191905f5260205f20905b8154815260200190600101908083116103aa575b5050505050905090565b61037160015f61042e565b6103dd5f8061042e565b60015b600a811161042b575f80546001810182559080527f290decd9548b62a8d60345a988386fc84ba6bc95484008f6362f93160ef3e5630181905580610423816105a7565b9150506103e0565b50565b5080545f8255905f5260205f209081019061042b91905b80821115610458575f8155600101610445565b5090565b5f815180845260208085019450602084015f5b8381101561048b5781518752958201959082019060010161046f565b509495945050505050565b604081525f6104a8604083018561045c565b8281036020848101919091528451808352858201928201905f5b818110156104e75784516001600160a01b0316835293830193918301916001016104c2565b5090979650505050505050565b5f8060208385031215610505575f80fd5b823567ffffffffffffffff8082111561051c575f80fd5b818501915085601f83011261052f575f80fd5b81358181111561053d575f80fd5b8660208260051b8501011115610551575f80fd5b60209290920196919550909350505050565b602081525f610575602083018461045c565b9392505050565b5f6020828403121561058c575f80fd5b5035919050565b634e487b7160e01b5f52603260045260245ffd5b5f600182016105c457634e487b7160e01b5f52601160045260245ffd5b5060010190565b634e487b7160e01b5f52604160045260245ffdfea2646970667358221220f62cbbd0ae75cd69a0be55076d8f3c8029eaafb11e72d74feaae1644208d619d64736f6c63430008170033",
					"opcodes": "PUSH1 0x80 PUSH1 0x40 MSTORE CALLVALUE DUP1 ISZERO PUSH2 0xF JUMPI PUSH0 DUP1 REVERT JUMPDEST POP PUSH2 0x18 PUSH2 0x1D JUMP JUMPDEST PUSH2 0xCA JUMP JUMPDEST PUSH2 0x27 PUSH0 DUP1 PUSH2 0x78 JUMP JUMPDEST PUSH1 0x1 JUMPDEST PUSH1 0xA DUP2 GT PUSH2 0x75 JUMPI PUSH0 DUP1 SLOAD PUSH1 0x1 DUP2 ADD DUP3 SSTORE SWAP1 DUP1 MSTORE PUSH32 0x290DECD9548B62A8D60345A988386FC84BA6BC95484008F6362F93160EF3E563 ADD DUP2 SWAP1 SSTORE DUP1 PUSH2 0x6D DUP2 PUSH2 0xA6 JUMP JUMPDEST SWAP2 POP POP PUSH2 0x2A JUMP JUMPDEST POP JUMP JUMPDEST POP DUP1 SLOAD PUSH0 DUP3 SSTORE SWAP1 PUSH0 MSTORE PUSH1 0x20 PUSH0 KECCAK256 SWAP1 DUP2 ADD SWAP1 PUSH2 0x75 SWAP2 SWAP1 JUMPDEST DUP1 DUP3 GT ISZERO PUSH2 0xA2 JUMPI PUSH0 DUP2 SSTORE PUSH1 0x1 ADD PUSH2 0x8F JUMP JUMPDEST POP SWAP1 JUMP JUMPDEST PUSH0 PUSH1 0x1 DUP3 ADD PUSH2 0xC3 JUMPI PUSH4 0x4E487B71 PUSH1 0xE0 SHL PUSH0 MSTORE PUSH1 0x11 PUSH1 0x4 MSTORE PUSH1 0x24 PUSH0 REVERT JUMPDEST POP PUSH1 0x1 ADD SWAP1 JUMP JUMPDEST PUSH2 0x615 DUP1 PUSH2 0xD7 PUSH0 CODECOPY PUSH0 RETURN INVALID PUSH1 0x80 PUSH1 0x40 MSTORE CALLVALUE DUP1 ISZERO PUSH2 0xF JUMPI PUSH0 DUP1 REVERT JUMPDEST POP PUSH1 0x4 CALLDATASIZE LT PUSH2 0x7A JUMPI PUSH0 CALLDATALOAD PUSH1 0xE0 SHR DUP1 PUSH4 0x89F915F6 GT PUSH2 0x58 JUMPI DUP1 PUSH4 0x89F915F6 EQ PUSH2 0xBA JUMPI DUP1 PUSH4 0xA00B7ACD EQ PUSH2 0xCF JUMPI DUP1 PUSH4 0xADE82BFD EQ PUSH2 0x14B JUMPI DUP1 PUSH4 0xB1CEBAC5 EQ PUSH2 0x153 JUMPI PUSH0 DUP1 REVERT JUMPDEST DUP1 PUSH4 0x20AAF79A EQ PUSH2 0x7E JUMPI DUP1 PUSH4 0x4F9377DB EQ PUSH2 0x9D JUMPI DUP1 PUSH4 0x7F66B1B8 EQ PUSH2 0xB2 JUMPI JUMPDEST PUSH0 DUP1 REVERT JUMPDEST PUSH2 0x86 PUSH2 0x15B JUMP JUMPDEST PUSH1 0x40 MLOAD PUSH2 0x94 SWAP3 SWAP2 SWAP1 PUSH2 0x496 JUMP JUMPDEST PUSH1 0x40 MLOAD DUP1 SWAP2 SUB SWAP1 RETURN JUMPDEST PUSH2 0xB0 PUSH2 0xAB CALLDATASIZE PUSH1 0x4 PUSH2 0x4F4 JUMP JUMPDEST PUSH2 0x31B JUMP JUMPDEST STOP JUMPDEST PUSH2 0xB0 PUSH2 0x366 JUMP JUMPDEST PUSH2 0xC2 PUSH2 0x373 JUMP JUMPDEST PUSH1 0x40 MLOAD PUSH2 0x94 SWAP2 SWAP1 PUSH2 0x563 JUMP JUMPDEST PUSH2 0xB0 PUSH2 0xDD CALLDATASIZE PUSH1 0x4 PUSH2 0x57C JUMP JUMPDEST PUSH1 0x1 DUP1 SLOAD DUP1 DUP3 ADD DUP3 SSTORE PUSH32 0xB10E2D527612073B26EECDFD717E6A320CF44B4AFAC2B0732D9FCBE2B7FA0CF6 ADD SWAP2 SWAP1 SWAP2 SSTORE PUSH1 0x2 DUP1 SLOAD SWAP2 DUP3 ADD DUP2 SSTORE PUSH0 MSTORE PUSH32 0x405787FA12A823E0F2B7631CC41B3BA8828B3321CA811111FA75CD3AA3BB5ACE ADD DUP1 SLOAD PUSH1 0x1 PUSH1 0x1 PUSH1 0xA0 SHL SUB NOT AND CALLER OR SWAP1 SSTORE JUMP JUMPDEST PUSH2 0xB0 PUSH2 0x3C8 JUMP JUMPDEST PUSH2 0xB0 PUSH2 0x3D3 JUMP JUMPDEST PUSH1 0x60 DUP1 PUSH0 DUP1 JUMPDEST PUSH1 0x1 SLOAD DUP2 LT ISZERO PUSH2 0x1A7 JUMPI PUSH4 0x386D8A34 PUSH1 0x1 DUP3 DUP2 SLOAD DUP2 LT PUSH2 0x183 JUMPI PUSH2 0x183 PUSH2 0x593 JUMP JUMPDEST SWAP1 PUSH0 MSTORE PUSH1 0x20 PUSH0 KECCAK256 ADD SLOAD LT PUSH2 0x19F JUMPI DUP2 PUSH2 0x19B DUP2 PUSH2 0x5A7 JUMP JUMPDEST SWAP3 POP POP JUMPDEST PUSH1 0x1 ADD PUSH2 0x161 JUMP JUMPDEST POP PUSH0 DUP2 PUSH8 0xFFFFFFFFFFFFFFFF DUP2 GT ISZERO PUSH2 0x1C2 JUMPI PUSH2 0x1C2 PUSH2 0x5CB JUMP JUMPDEST PUSH1 0x40 MLOAD SWAP1 DUP1 DUP3 MSTORE DUP1 PUSH1 0x20 MUL PUSH1 0x20 ADD DUP3 ADD PUSH1 0x40 MSTORE DUP1 ISZERO PUSH2 0x1EB JUMPI DUP2 PUSH1 0x20 ADD PUSH1 0x20 DUP3 MUL DUP1 CALLDATASIZE DUP4 CALLDATACOPY ADD SWAP1 POP JUMPDEST POP SWAP1 POP PUSH0 DUP3 PUSH8 0xFFFFFFFFFFFFFFFF DUP2 GT ISZERO PUSH2 0x208 JUMPI PUSH2 0x208 PUSH2 0x5CB JUMP JUMPDEST PUSH1 0x40 MLOAD SWAP1 DUP1 DUP3 MSTORE DUP1 PUSH1 0x20 MUL PUSH1 0x20 ADD DUP3 ADD PUSH1 0x40 MSTORE DUP1 ISZERO PUSH2 0x231 JUMPI DUP2 PUSH1 0x20 ADD PUSH1 0x20 DUP3 MUL DUP1 CALLDATASIZE DUP4 CALLDATACOPY ADD SWAP1 POP JUMPDEST POP SWAP1 POP PUSH0 DUP1 JUMPDEST PUSH1 0x1 SLOAD DUP2 LT ISZERO PUSH2 0x30F JUMPI PUSH4 0x386D8A34 PUSH1 0x1 DUP3 DUP2 SLOAD DUP2 LT PUSH2 0x259 JUMPI PUSH2 0x259 PUSH2 0x593 JUMP JUMPDEST SWAP1 PUSH0 MSTORE PUSH1 0x20 PUSH0 KECCAK256 ADD SLOAD LT PUSH2 0x307 JUMPI PUSH1 0x1 DUP2 DUP2 SLOAD DUP2 LT PUSH2 0x27A JUMPI PUSH2 0x27A PUSH2 0x593 JUMP JUMPDEST SWAP1 PUSH0 MSTORE PUSH1 0x20 PUSH0 KECCAK256 ADD SLOAD DUP5 DUP4 DUP2 MLOAD DUP2 LT PUSH2 0x295 JUMPI PUSH2 0x295 PUSH2 0x593 JUMP JUMPDEST PUSH1 0x20 MUL PUSH1 0x20 ADD ADD DUP2 DUP2 MSTORE POP POP PUSH1 0x2 DUP2 DUP2 SLOAD DUP2 LT PUSH2 0x2B4 JUMPI PUSH2 0x2B4 PUSH2 0x593 JUMP JUMPDEST SWAP1 PUSH0 MSTORE PUSH1 0x20 PUSH0 KECCAK256 ADD PUSH0 SWAP1 SLOAD SWAP1 PUSH2 0x100 EXP SWAP1 DIV PUSH1 0x1 PUSH1 0x1 PUSH1 0xA0 SHL SUB AND DUP4 DUP4 DUP2 MLOAD DUP2 LT PUSH2 0x2E1 JUMPI PUSH2 0x2E1 PUSH2 0x593 JUMP JUMPDEST PUSH1 0x1 PUSH1 0x1 PUSH1 0xA0 SHL SUB SWAP1 SWAP3 AND PUSH1 0x20 SWAP3 DUP4 MUL SWAP2 SWAP1 SWAP2 ADD SWAP1 SWAP2 ADD MSTORE DUP2 PUSH2 0x303 DUP2 PUSH2 0x5A7 JUMP JUMPDEST SWAP3 POP POP JUMPDEST PUSH1 0x1 ADD PUSH2 0x237 JUMP JUMPDEST POP SWAP2 SWAP6 SWAP1 SWAP5 POP SWAP3 POP POP POP JUMP JUMPDEST PUSH0 JUMPDEST DUP2 DUP2 LT ISZERO PUSH2 0x361 JUMPI PUSH0 DUP4 DUP4 DUP4 DUP2 DUP2 LT PUSH2 0x338 JUMPI PUSH2 0x338 PUSH2 0x593 JUMP JUMPDEST DUP4 SLOAD PUSH1 0x1 DUP1 DUP3 ADD DUP7 SSTORE PUSH0 SWAP6 DUP7 MSTORE PUSH1 0x20 SWAP6 DUP7 SWAP1 KECCAK256 SWAP3 SWAP1 SWAP6 MUL SWAP4 SWAP1 SWAP4 ADD CALLDATALOAD SWAP3 ADD SWAP2 SWAP1 SWAP2 SSTORE POP ADD PUSH2 0x31D JUMP JUMPDEST POP POP POP JUMP JUMPDEST PUSH2 0x371 PUSH1 0x2 PUSH0 PUSH2 0x42E JUMP JUMPDEST JUMP JUMPDEST PUSH1 0x60 PUSH0 DUP1 SLOAD DUP1 PUSH1 0x20 MUL PUSH1 0x20 ADD PUSH1 0x40 MLOAD SWAP1 DUP2 ADD PUSH1 0x40 MSTORE DUP1 SWAP3 SWAP2 SWAP1 DUP2 DUP2 MSTORE PUSH1 0x20 ADD DUP3 DUP1 SLOAD DUP1 ISZERO PUSH2 0x3BE JUMPI PUSH1 0x20 MUL DUP3 ADD SWAP2 SWAP1 PUSH0 MSTORE PUSH1 0x20 PUSH0 KECCAK256 SWAP1 JUMPDEST DUP2 SLOAD DUP2 MSTORE PUSH1 0x20 ADD SWAP1 PUSH1 0x1 ADD SWAP1 DUP1 DUP4 GT PUSH2 0x3AA JUMPI JUMPDEST POP POP POP POP POP SWAP1 POP SWAP1 JUMP JUMPDEST PUSH2 0x371 PUSH1 0x1 PUSH0 PUSH2 0x42E JUMP JUMPDEST PUSH2 0x3DD PUSH0 DUP1 PUSH2 0x42E JUMP JUMPDEST PUSH1 0x1 JUMPDEST PUSH1 0xA DUP2 GT PUSH2 0x42B JUMPI PUSH0 DUP1 SLOAD PUSH1 0x1 DUP2 ADD DUP3 SSTORE SWAP1 DUP1 MSTORE PUSH32 0x290DECD9548B62A8D60345A988386FC84BA6BC95484008F6362F93160EF3E563 ADD DUP2 SWAP1 SSTORE DUP1 PUSH2 0x423 DUP2 PUSH2 0x5A7 JUMP JUMPDEST SWAP2 POP POP PUSH2 0x3E0 JUMP JUMPDEST POP JUMP JUMPDEST POP DUP1 SLOAD PUSH0 DUP3 SSTORE SWAP1 PUSH0 MSTORE PUSH1 0x20 PUSH0 KECCAK256 SWAP1 DUP2 ADD SWAP1 PUSH2 0x42B SWAP2 SWAP1 JUMPDEST DUP1 DUP3 GT ISZERO PUSH2 0x458 JUMPI PUSH0 DUP2 SSTORE PUSH1 0x1 ADD PUSH2 0x445 JUMP JUMPDEST POP SWAP1 JUMP JUMPDEST PUSH0 DUP2 MLOAD DUP1 DUP5 MSTORE PUSH1 0x20 DUP1 DUP6 ADD SWAP5 POP PUSH1 0x20 DUP5 ADD PUSH0 JUMPDEST DUP4 DUP2 LT ISZERO PUSH2 0x48B JUMPI DUP2 MLOAD DUP8 MSTORE SWAP6 DUP3 ADD SWAP6 SWAP1 DUP3 ADD SWAP1 PUSH1 0x1 ADD PUSH2 0x46F JUMP JUMPDEST POP SWAP5 SWAP6 SWAP5 POP POP POP POP POP JUMP JUMPDEST PUSH1 0x40 DUP2 MSTORE PUSH0 PUSH2 0x4A8 PUSH1 0x40 DUP4 ADD DUP6 PUSH2 0x45C JUMP JUMPDEST DUP3 DUP2 SUB PUSH1 0x20 DUP5 DUP2 ADD SWAP2 SWAP1 SWAP2 MSTORE DUP5 MLOAD DUP1 DUP4 MSTORE DUP6 DUP3 ADD SWAP3 DUP3 ADD SWAP1 PUSH0 JUMPDEST DUP2 DUP2 LT ISZERO PUSH2 0x4E7 JUMPI DUP5 MLOAD PUSH1 0x1 PUSH1 0x1 PUSH1 0xA0 SHL SUB AND DUP4 MSTORE SWAP4 DUP4 ADD SWAP4 SWAP2 DUP4 ADD SWAP2 PUSH1 0x1 ADD PUSH2 0x4C2 JUMP JUMPDEST POP SWAP1 SWAP8 SWAP7 POP POP POP POP POP POP POP JUMP JUMPDEST PUSH0 DUP1 PUSH1 0x20 DUP4 DUP6 SUB SLT ISZERO PUSH2 0x505 JUMPI PUSH0 DUP1 REVERT JUMPDEST DUP3 CALLDATALOAD PUSH8 0xFFFFFFFFFFFFFFFF DUP1 DUP3 GT ISZERO PUSH2 0x51C JUMPI PUSH0 DUP1 REVERT JUMPDEST DUP2 DUP6 ADD SWAP2 POP DUP6 PUSH1 0x1F DUP4 ADD SLT PUSH2 0x52F JUMPI PUSH0 DUP1 REVERT JUMPDEST DUP2 CALLDATALOAD DUP2 DUP2 GT ISZERO PUSH2 0x53D JUMPI PUSH0 DUP1 REVERT JUMPDEST DUP7 PUSH1 0x20 DUP3 PUSH1 0x5 SHL DUP6 ADD ADD GT ISZERO PUSH2 0x551 JUMPI PUSH0 DUP1 REVERT JUMPDEST PUSH1 0x20 SWAP3 SWAP1 SWAP3 ADD SWAP7 SWAP2 SWAP6 POP SWAP1 SWAP4 POP POP POP POP JUMP JUMPDEST PUSH1 0x20 DUP2 MSTORE PUSH0 PUSH2 0x575 PUSH1 0x20 DUP4 ADD DUP5 PUSH2 0x45C JUMP JUMPDEST SWAP4 SWAP3 POP POP POP JUMP JUMPDEST PUSH0 PUSH1 0x20 DUP3 DUP5 SUB SLT ISZERO PUSH2 0x58C JUMPI PUSH0 DUP1 REVERT JUMPDEST POP CALLDATALOAD SWAP2 SWAP1 POP JUMP JUMPDEST PUSH4 0x4E487B71 PUSH1 0xE0 SHL PUSH0 MSTORE PUSH1 0x32 PUSH1 0x4 MSTORE PUSH1 0x24 PUSH0 REVERT JUMPDEST PUSH0 PUSH1 0x1 DUP3 ADD PUSH2 0x5C4 JUMPI PUSH4 0x4E487B71 PUSH1 0xE0 SHL PUSH0 MSTORE PUSH1 0x11 PUSH1 0x4 MSTORE PUSH1 0x24 PUSH0 REVERT JUMPDEST POP PUSH1 0x1 ADD SWAP1 JUMP JUMPDEST PUSH4 0x4E487B71 PUSH1 0xE0 SHL PUSH0 MSTORE PUSH1 0x41 PUSH1 0x4 MSTORE PUSH1 0x24 PUSH0 REVERT INVALID LOG2 PUSH5 0x6970667358 0x22 SLT KECCAK256 0xF6 0x2C 0xBB 0xD0 0xAE PUSH22 0xCD69A0BE55076D8F3C8029EAAFB11E72D74FEAAE1644 KECCAK256 DUP14 PUSH2 0x9D64 PUSH20 0x6F6C634300081700330000000000000000000000 "
				},
				"gasEstimates": {
					"creation": {
						"codeDepositCost": "311400",
						"executionCost": "infinite",
						"totalCost": "infinite"
					},
					"external": {
						"afterY2K()": "infinite",
						"appendToNumbers(uint256[])": "infinite",
						"getNumbers()": "infinite",
						"resetNumbers()": "infinite",
						"resetSenders()": "infinite",
						"resetTimestamps()": "infinite",
						"saveTimestamp(uint256)": "95023"
					}
				},
				"methodIdentifiers": {
					"afterY2K()": "20aaf79a",
					"appendToNumbers(uint256[])": "4f9377db",
					"getNumbers()": "89f915f6",
					"resetNumbers()": "b1cebac5",
					"resetSenders()": "7f66b1b8",
					"resetTimestamps()": "ade82bfd",
					"saveTimestamp(uint256)": "a00b7acd"
				}
			},
			"storageLayout": {
				"storage": [
					{
						"astId": 4,
						"contract": "ArraysExercise.sol:Submission",
						"label": "numbers",
						"offset": 0,
						"slot": "0",
						"type": "t_array(t_uint256)dyn_storage"
					},
					{
						"astId": 7,
						"contract": "ArraysExercise.sol:Submission",
						"label": "timestamps",
						"offset": 0,
						"slot": "1",
						"type": "t_array(t_uint256)dyn_storage"
					},
					{
						"astId": 10,
						"contract": "ArraysExercise.sol:Submission",
						"label": "senders",
						"offset": 0,
						"slot": "2",
						"type": "t_array(t_address)dyn_storage"
					}
				],
				"types": {
					"t_address": {
						"encoding": "inplace",
						"label": "address",
						"numberOfBytes": "20"
					},
					"t_array(t_address)dyn_storage": {
						"base": "t_address",
						"encoding": "dynamic_array",
						"label": "address[]",
						"numberOfBytes": "32"
					},
					"t_array(t_uint256)dyn_storage": {
						"base": "t_uint256",
						"encoding": "dynamic_array",
						"label": "uint256[]",
						"numberOfBytes": "32"
					},
					"t_uint256": {
						"encoding": "inplace",
						"label": "uint256",
						"numberOfBytes": "32"
					}
				}
			},
			"userdoc": {
				"kind": "user",
				"methods": {},
				"version": 1
			}
		}
	}
}