{
	"data": {
		"bytecode": {
			"linkReferences": {},
			"object": "608060405234801561000f575f80fd5b506040516102f03803806102f083398101604081905261002e9161003e565b5f92909255600155600255610069565b5f805f60608486031215610050575f80fd5b8351925060208401519150604084015190509250925092565b61027a806100765f395ff3fe608060405234801561000f575f80fd5b5060043610610085575f3560e01c806387cc66de1161005857806387cc66de146100f9578063a3c86daf1461010c578063a596d3c814610121578063f5895a0a14610129575f80fd5b80633f83ea3b1461008957806350dca6ab146100a45780635cdee0c0146100ad57806386e73dc3146100b5575b5f80fd5b6100915f5481565b6040519081526020015b60405180910390f35b61009160025481565b600254610091565b6100f76100c33660046101ea565b600380546001810182555f919091527fc2575a0e9e593c00f959f8c92f12db2869c3395a3b0502d05e2516446f71f85b0155565b005b6100916101073660046101ea565b610132565b610114610151565b60405161009b9190610201565b6100f76101a7565b61009160015481565b60038181548110610141575f80fd5b5f91825260209091200154905081565b6060600380548060200260200160405190810160405280929190818152602001828054801561019d57602002820191905f5260205f20905b815481526020019060010190808311610189575b5050505050905090565b6101b260035f6101b4565b565b5080545f8255905f5260205f20908101906101cf91906101d2565b50565b5b808211156101e6575f81556001016101d3565b5090565b5f602082840312156101fa575f80fd5b5035919050565b602080825282518282018190525f9190848201906040850190845b818110156102385783518352928401929184019160010161021c565b5090969550505050505056fea2646970667358221220f6dce7fcb01584d7219ca714d97538950c021b0fdcee3bccd17cfa5a0d76690264736f6c63430008140033",
			"opcodes": "PUSH1 0x80 PUSH1 0x40 MSTORE CALLVALUE DUP1 ISZERO PUSH2 0xF JUMPI PUSH0 DUP1 REVERT JUMPDEST POP PUSH1 0x40 MLOAD PUSH2 0x2F0 CODESIZE SUB DUP1 PUSH2 0x2F0 DUP4 CODECOPY DUP2 ADD PUSH1 0x40 DUP2 SWAP1 MSTORE PUSH2 0x2E SWAP2 PUSH2 0x3E JUMP JUMPDEST PUSH0 SWAP3 SWAP1 SWAP3 SSTORE PUSH1 0x1 SSTORE PUSH1 0x2 SSTORE PUSH2 0x69 JUMP JUMPDEST PUSH0 DUP1 PUSH0 PUSH1 0x60 DUP5 DUP7 SUB SLT ISZERO PUSH2 0x50 JUMPI PUSH0 DUP1 REVERT JUMPDEST DUP4 MLOAD SWAP3 POP PUSH1 0x20 DUP5 ADD MLOAD SWAP2 POP PUSH1 0x40 DUP5 ADD MLOAD SWAP1 POP SWAP3 POP SWAP3 POP SWAP3 JUMP JUMPDEST PUSH2 0x27A DUP1 PUSH2 0x76 PUSH0 CODECOPY PUSH0 RETURN INVALID PUSH1 0x80 PUSH1 0x40 MSTORE CALLVALUE DUP1 ISZERO PUSH2 0xF JUMPI PUSH0 DUP1 REVERT JUMPDEST POP PUSH1 0x4 CALLDATASIZE LT PUSH2 0x85 JUMPI PUSH0 CALLDATALOAD PUSH1 0xE0 SHR DUP1 PUSH4 0x87CC66DE GT PUSH2 0x58 JUMPI DUP1 PUSH4 0x87CC66DE EQ PUSH2 0xF9 JUMPI DUP1 PUSH4 0xA3C86DAF EQ PUSH2 0x10C JUMPI DUP1 PUSH4 0xA596D3C8 EQ PUSH2 0x121 JUMPI DUP1 PUSH4 0xF5895A0A EQ PUSH2 0x129 JUMPI PUSH0 DUP1 REVERT JUMPDEST DUP1 PUSH4 0x3F83EA3B EQ PUSH2 0x89 JUMPI DUP1 PUSH4 0x50DCA6AB EQ PUSH2 0xA4 JUMPI DUP1 PUSH4 0x5CDEE0C0 EQ PUSH2 0xAD JUMPI DUP1 PUSH4 0x86E73DC3 EQ PUSH2 0xB5 JUMPI JUMPDEST PUSH0 DUP1 REVERT JUMPDEST PUSH2 0x91 PUSH0 SLOAD DUP2 JUMP JUMPDEST PUSH1 0x40 MLOAD SWAP1 DUP2 MSTORE PUSH1 0x20 ADD JUMPDEST PUSH1 0x40 MLOAD DUP1 SWAP2 SUB SWAP1 RETURN JUMPDEST PUSH2 0x91 PUSH1 0x2 SLOAD DUP2 JUMP JUMPDEST PUSH1 0x2 SLOAD PUSH2 0x91 JUMP JUMPDEST PUSH2 0xF7 PUSH2 0xC3 CALLDATASIZE PUSH1 0x4 PUSH2 0x1EA JUMP JUMPDEST PUSH1 0x3 DUP1 SLOAD PUSH1 0x1 DUP2 ADD DUP3 SSTORE PUSH0 SWAP2 SWAP1 SWAP2 MSTORE PUSH32 0xC2575A0E9E593C00F959F8C92F12DB2869C3395A3B0502D05E2516446F71F85B ADD SSTORE JUMP JUMPDEST STOP JUMPDEST PUSH2 0x91 PUSH2 0x107 CALLDATASIZE PUSH1 0x4 PUSH2 0x1EA JUMP JUMPDEST PUSH2 0x132 JUMP JUMPDEST PUSH2 0x114 PUSH2 0x151 JUMP JUMPDEST PUSH1 0x40 MLOAD PUSH2 0x9B SWAP2 SWAP1 PUSH2 0x201 JUMP JUMPDEST PUSH2 0xF7 PUSH2 0x1A7 JUMP JUMPDEST PUSH2 0x91 PUSH1 0x1 SLOAD DUP2 JUMP JUMPDEST PUSH1 0x3 DUP2 DUP2 SLOAD DUP2 LT PUSH2 0x141 JUMPI PUSH0 DUP1 REVERT JUMPDEST PUSH0 SWAP2 DUP3 MSTORE PUSH1 0x20 SWAP1 SWAP2 KECCAK256 ADD SLOAD SWAP1 POP DUP2 JUMP JUMPDEST PUSH1 0x60 PUSH1 0x3 DUP1 SLOAD DUP1 PUSH1 0x20 MUL PUSH1 0x20 ADD PUSH1 0x40 MLOAD SWAP1 DUP2 ADD PUSH1 0x40 MSTORE DUP1 SWAP3 SWAP2 SWAP1 DUP2 DUP2 MSTORE PUSH1 0x20 ADD DUP3 DUP1 SLOAD DUP1 ISZERO PUSH2 0x19D JUMPI PUSH1 0x20 MUL DUP3 ADD SWAP2 SWAP1 PUSH0 MSTORE PUSH1 0x20 PUSH0 KECCAK256 SWAP1 JUMPDEST DUP2 SLOAD DUP2 MSTORE PUSH1 0x20 ADD SWAP1 PUSH1 0x1 ADD SWAP1 DUP1 DUP4 GT PUSH2 0x189 JUMPI JUMPDEST POP POP POP POP POP SWAP1 POP SWAP1 JUMP JUMPDEST PUSH2 0x1B2 PUSH1 0x3 PUSH0 PUSH2 0x1B4 JUMP JUMPDEST JUMP JUMPDEST POP DUP1 SLOAD PUSH0 DUP3 SSTORE SWAP1 PUSH0 MSTORE PUSH1 0x20 PUSH0 KECCAK256 SWAP1 DUP2 ADD SWAP1 PUSH2 0x1CF SWAP2 SWAP1 PUSH2 0x1D2 JUMP JUMPDEST POP JUMP JUMPDEST JUMPDEST DUP1 DUP3 GT ISZERO PUSH2 0x1E6 JUMPI PUSH0 DUP2 SSTORE PUSH1 0x1 ADD PUSH2 0x1D3 JUMP JUMPDEST POP SWAP1 JUMP JUMPDEST PUSH0 PUSH1 0x20 DUP3 DUP5 SUB SLT ISZERO PUSH2 0x1FA JUMPI PUSH0 DUP1 REVERT JUMPDEST POP CALLDATALOAD SWAP2 SWAP1 POP JUMP JUMPDEST PUSH1 0x20 DUP1 DUP3 MSTORE DUP3 MLOAD DUP3 DUP3 ADD DUP2 SWAP1 MSTORE PUSH0 SWAP2 SWAP1 DUP5 DUP3 ADD SWAP1 PUSH1 0x40 DUP6 ADD SWAP1 DUP5 JUMPDEST DUP2 DUP2 LT ISZERO PUSH2 0x238 JUMPI DUP4 MLOAD DUP4 MSTORE SWAP3 DUP5 ADD SWAP3 SWAP2 DUP5 ADD SWAP2 PUSH1 0x1 ADD PUSH2 0x21C JUMP JUMPDEST POP SWAP1 SWAP7 SWAP6 POP POP POP POP POP POP JUMP INVALID LOG2 PUSH5 0x6970667358 0x22 SLT KECCAK256 0xF6 0xDC 0xE7 0xFC 0xB0 ISZERO DUP5 0xD7 0x21 SWAP13 0xA7 EQ 0xD9 PUSH22 0x38950C021B0FDCEE3BCCD17CFA5A0D76690264736F6C PUSH4 0x43000814 STOP CALLER "
		},
		"gasEstimates": {
			"creation": {
				"codeDepositCost": "126800",
				"executionCost": "infinite",
				"totalCost": "infinite"
			},
			"external": {
				"addReport(uint256)": "46612",
				"annualSalary()": "2306",
				"getAnnualCost()": "2325",
				"getReports()": "infinite",
				"idNumber()": "2283",
				"managerId()": "2349",
				"reportIds(uint256)": "4561",
				"resetReports()": "infinite"
			}
		},
		"methodIdentifiers": {
			"addReport(uint256)": "86e73dc3",
			"annualSalary()": "50dca6ab",
			"getAnnualCost()": "5cdee0c0",
			"getReports()": "a3c86daf",
			"idNumber()": "3f83ea3b",
			"managerId()": "f5895a0a",
			"reportIds(uint256)": "87cc66de",
			"resetReports()": "a596d3c8"
		}
	},
	"abi": [
		{
			"inputs": [
				{
					"internalType": "uint256",
					"name": "_idNumber",
					"type": "uint256"
				},
				{
					"internalType": "uint256",
					"name": "_managerId",
					"type": "uint256"
				},
				{
					"internalType": "uint256",
					"name": "_annualSalary",
					"type": "uint256"
				}
			],
			"stateMutability": "nonpayable",
			"type": "constructor"
		},
		{
			"inputs": [
				{
					"internalType": "uint256",
					"name": "_employeeId",
					"type": "uint256"
				}
			],
			"name": "addReport",
			"outputs": [],
			"stateMutability": "nonpayable",
			"type": "function"
		},
		{
			"inputs": [],
			"name": "annualSalary",
			"outputs": [
				{
					"internalType": "uint256",
					"name": "",
					"type": "uint256"
				}
			],
			"stateMutability": "view",
			"type": "function"
		},
		{
			"inputs": [],
			"name": "getAnnualCost",
			"outputs": [
				{
					"internalType": "uint256",
					"name": "",
					"type": "uint256"
				}
			],
			"stateMutability": "view",
			"type": "function"
		},
		{
			"inputs": [],
			"name": "getReports",
			"outputs": [
				{
					"internalType": "uint256[]",
					"name": "",
					"type": "uint256[]"
				}
			],
			"stateMutability": "view",
			"type": "function"
		},
		{
			"inputs": [],
			"name": "idNumber",
			"outputs": [
				{
					"internalType": "uint256",
					"name": "",
					"type": "uint256"
				}
			],
			"stateMutability": "view",
			"type": "function"
		},
		{
			"inputs": [],
			"name": "managerId",
			"outputs": [
				{
					"internalType": "uint256",
					"name": "",
					"type": "uint256"
				}
			],
			"stateMutability": "view",
			"type": "function"
		},
		{
			"inputs": [
				{
					"internalType": "uint256",
					"name": "",
					"type": "uint256"
				}
			],
			"name": "reportIds",
			"outputs": [
				{
					"internalType": "uint256",
					"name": "",
					"type": "uint256"
				}
			],
			"stateMutability": "view",
			"type": "function"
		},
		{
			"inputs": [],
			"name": "resetReports",
			"outputs": [],
			"stateMutability": "nonpayable",
			"type": "function"
		}
	]
}