{
	"data": {
		"bytecode": {
			"linkReferences": {},
			"object": "608060405234801562000010575f80fd5b50604080516101608101825260086101208201908152672a343934b63632b960c11b610140830152815281518083018352600d8082526c4261636b20696e20426c61636b60981b60208381019190915280840192909252835180850185529081526c151a1948109bd91e59dd585c99609a1b818301528284015282518084018452601981527f546865204461726b2053696465206f6620746865204d6f6f6e0000000000000081830152606083015282518084018452601f81527f546865697220477265617465737420486974732028313937312d31393735290081830152608083015282518084018452601081526f486f74656c2043616c69666f726e696160801b8183015260a083015282518084018452600c81526b21b7b6b29027b71027bb32b960a11b8183015260c083015282518084018452600781526652756d6f75727360c81b8183015260e08301528251808401909352601483527f5361747572646179204e6967687420466576657200000000000000000000000090830152610100810191909152620001a990600190600962000217565b505f5b600154811015620002105760015f60018381548110620001d057620001d0620002e7565b905f5260205f2001604051620001e7919062000335565b908152604051908190036020019020805491151560ff19909216919091179055600101620001ac565b50620004df565b828054828255905f5260205f2090810192821562000260579160200282015b828111156200026057825182906200024f908262000413565b509160200191906001019062000236565b506200026e92915062000272565b5090565b808211156200026e575f62000288828262000292565b5060010162000272565b508054620002a090620002fb565b5f825580601f10620002b0575050565b601f0160209004905f5260205f2090810190620002ce9190620002d1565b50565b5b808211156200026e575f8155600101620002d2565b634e487b7160e01b5f52603260045260245ffd5b600181811c908216806200031057607f821691505b6020821081036200032f57634e487b7160e01b5f52602260045260245ffd5b50919050565b5f8083546200034481620002fb565b600182811680156200035f57600181146200037557620003a3565b60ff1984168752821515830287019450620003a3565b875f526020805f205f5b858110156200039a5781548a8201529084019082016200037f565b50505082870194505b50929695505050505050565b634e487b7160e01b5f52604160045260245ffd5b601f8211156200040e57805f5260205f20601f840160051c81016020851015620003ea5750805b601f840160051c820191505b818110156200040b575f8155600101620003f6565b50505b505050565b81516001600160401b038111156200042f576200042f620003af565b6200044781620004408454620002fb565b84620003c3565b602080601f8311600181146200047d575f8415620004655750858301515b5f19600386901b1c1916600185901b178555620004d7565b5f85815260208120601f198616915b82811015620004ad578886015182559484019460019091019084016200048c565b5085821015620004cb57878501515f19600388901b60f8161c191681555b505060018460011b0185555b505050505050565b6108e380620004ed5f395ff3fe608060405234801561000f575f80fd5b5060043610610055575f3560e01c80631cf0830b14610059578063837f887814610077578063c75c333c14610081578063c7853148146100cf578063d81aa8c4146100e2575b5f80fd5b6100616100f5565b60405161006e91906104f7565b60405180910390f35b61007f6101c9565b005b6100bf61008f366004610611565b600260209081525f9283526040909220815180830184018051928152908401929093019190912091525460ff1681565b604051901515815260200161006e565b6100616100dd36600461065c565b61025a565b61007f6100f036600461067c565b610344565b60606001805480602002602001604051908101604052809291908181526020015f905b828210156101c0578382905f5260205f20018054610135906106b6565b80601f0160208091040260200160405190810160405280929190818152602001828054610161906106b6565b80156101ac5780601f10610183576101008083540402835291602001916101ac565b820191905f5260205f20905b81548152906001019060200180831161018f57829003601f168201915b505050505081526020019060010190610118565b50505050905090565b5f5b335f9081526003602052604090205481101561024057335f908152600260209081526040808320600390925290912080548390811061020c5761020c6106ee565b905f5260205f20016040516102219190610702565b908152604051908190036020019020805460ff191690556001016101cb565b50335f9081526003602052604081206102589161042d565b565b6001600160a01b0381165f908152600360209081526040808320805482518185028101850190935280835260609492939192909184015b82821015610339578382905f5260205f200180546102ae906106b6565b80601f01602080910402602001604051908101604052809291908181526020018280546102da906106b6565b80156103255780601f106102fc57610100808354040283529160200191610325565b820191905f5260205f20905b81548152906001019060200180831161030857829003601f168201915b505050505081526020019060010190610291565b505050509050919050565b5f816040516103539190610774565b9081526040519081900360200190205460ff1661038e5780604051634f0ffc1b60e01b8152600401610385919061078f565b60405180910390fd5b335f908152600260205260409081902090516103ab908390610774565b9081526040519081900360200190205460ff1661042a57335f90815260026020526040908190209051600191906103e3908490610774565b9081526040805160209281900383019020805460ff191693151593909317909255335f90815260038252918220805460018101825590835291200161042882826107ed565b505b50565b5080545f8255905f5260205f209081019061042a91905b80821115610460575f6104578282610464565b50600101610444565b5090565b508054610470906106b6565b5f825580601f1061047f575050565b601f0160209004905f5260205f209081019061042a91905b80821115610460575f8155600101610497565b5f5b838110156104c45781810151838201526020016104ac565b50505f910152565b5f81518084526104e38160208601602086016104aa565b601f01601f19169290920160200192915050565b5f60208083016020845280855180835260408601915060408160051b8701019250602087015f5b8281101561054c57603f1988860301845261053a8583516104cc565b9450928501929085019060010161051e565b5092979650505050505050565b80356001600160a01b038116811461056f575f80fd5b919050565b634e487b7160e01b5f52604160045260245ffd5b5f82601f830112610597575f80fd5b813567ffffffffffffffff808211156105b2576105b2610574565b604051601f8301601f19908116603f011681019082821181831017156105da576105da610574565b816040528381528660208588010111156105f2575f80fd5b836020870160208301375f602085830101528094505050505092915050565b5f8060408385031215610622575f80fd5b61062b83610559565b9150602083013567ffffffffffffffff811115610646575f80fd5b61065285828601610588565b9150509250929050565b5f6020828403121561066c575f80fd5b61067582610559565b9392505050565b5f6020828403121561068c575f80fd5b813567ffffffffffffffff8111156106a2575f80fd5b6106ae84828501610588565b949350505050565b600181811c908216806106ca57607f821691505b6020821081036106e857634e487b7160e01b5f52602260045260245ffd5b50919050565b634e487b7160e01b5f52603260045260245ffd5b5f80835461070f816106b6565b60018281168015610727576001811461073c57610768565b60ff1984168752821515830287019450610768565b875f526020805f205f5b8581101561075f5781548a820152908401908201610746565b50505082870194505b50929695505050505050565b5f82516107858184602087016104aa565b9190910192915050565b602081525f61067560208301846104cc565b601f8211156107e857805f5260205f20601f840160051c810160208510156107c65750805b601f840160051c820191505b818110156107e5575f81556001016107d2565b50505b505050565b815167ffffffffffffffff81111561080757610807610574565b61081b8161081584546106b6565b846107a1565b602080601f83116001811461084e575f84156108375750858301515b5f19600386901b1c1916600185901b1785556108a5565b5f85815260208120601f198616915b8281101561087c5788860151825594840194600190910190840161085d565b508582101561089957878501515f19600388901b60f8161c191681555b505060018460011b0185555b50505050505056fea2646970667358221220dc04e9ad8a91728f108831a8f14910e41adab81172fba5c7bdbfb53ae05588a964736f6c63430008170033",
			"opcodes": "PUSH1 0x80 PUSH1 0x40 MSTORE CALLVALUE DUP1 ISZERO PUSH3 0x10 JUMPI PUSH0 DUP1 REVERT JUMPDEST POP PUSH1 0x40 DUP1 MLOAD PUSH2 0x160 DUP2 ADD DUP3 MSTORE PUSH1 0x8 PUSH2 0x120 DUP3 ADD SWAP1 DUP2 MSTORE PUSH8 0x2A343934B63632B9 PUSH1 0xC1 SHL PUSH2 0x140 DUP4 ADD MSTORE DUP2 MSTORE DUP2 MLOAD DUP1 DUP4 ADD DUP4 MSTORE PUSH1 0xD DUP1 DUP3 MSTORE PUSH13 0x4261636B20696E20426C61636B PUSH1 0x98 SHL PUSH1 0x20 DUP4 DUP2 ADD SWAP2 SWAP1 SWAP2 MSTORE DUP1 DUP5 ADD SWAP3 SWAP1 SWAP3 MSTORE DUP4 MLOAD DUP1 DUP6 ADD DUP6 MSTORE SWAP1 DUP2 MSTORE PUSH13 0x151A1948109BD91E59DD585C99 PUSH1 0x9A SHL DUP2 DUP4 ADD MSTORE DUP3 DUP5 ADD MSTORE DUP3 MLOAD DUP1 DUP5 ADD DUP5 MSTORE PUSH1 0x19 DUP2 MSTORE PUSH32 0x546865204461726B2053696465206F6620746865204D6F6F6E00000000000000 DUP2 DUP4 ADD MSTORE PUSH1 0x60 DUP4 ADD MSTORE DUP3 MLOAD DUP1 DUP5 ADD DUP5 MSTORE PUSH1 0x1F DUP2 MSTORE PUSH32 0x546865697220477265617465737420486974732028313937312D313937352900 DUP2 DUP4 ADD MSTORE PUSH1 0x80 DUP4 ADD MSTORE DUP3 MLOAD DUP1 DUP5 ADD DUP5 MSTORE PUSH1 0x10 DUP2 MSTORE PUSH16 0x486F74656C2043616C69666F726E6961 PUSH1 0x80 SHL DUP2 DUP4 ADD MSTORE PUSH1 0xA0 DUP4 ADD MSTORE DUP3 MLOAD DUP1 DUP5 ADD DUP5 MSTORE PUSH1 0xC DUP2 MSTORE PUSH12 0x21B7B6B29027B71027BB32B9 PUSH1 0xA1 SHL DUP2 DUP4 ADD MSTORE PUSH1 0xC0 DUP4 ADD MSTORE DUP3 MLOAD DUP1 DUP5 ADD DUP5 MSTORE PUSH1 0x7 DUP2 MSTORE PUSH7 0x52756D6F757273 PUSH1 0xC8 SHL DUP2 DUP4 ADD MSTORE PUSH1 0xE0 DUP4 ADD MSTORE DUP3 MLOAD DUP1 DUP5 ADD SWAP1 SWAP4 MSTORE PUSH1 0x14 DUP4 MSTORE PUSH32 0x5361747572646179204E69676874204665766572000000000000000000000000 SWAP1 DUP4 ADD MSTORE PUSH2 0x100 DUP2 ADD SWAP2 SWAP1 SWAP2 MSTORE PUSH3 0x1A9 SWAP1 PUSH1 0x1 SWAP1 PUSH1 0x9 PUSH3 0x217 JUMP JUMPDEST POP PUSH0 JUMPDEST PUSH1 0x1 SLOAD DUP2 LT ISZERO PUSH3 0x210 JUMPI PUSH1 0x1 PUSH0 PUSH1 0x1 DUP4 DUP2 SLOAD DUP2 LT PUSH3 0x1D0 JUMPI PUSH3 0x1D0 PUSH3 0x2E7 JUMP JUMPDEST SWAP1 PUSH0 MSTORE PUSH1 0x20 PUSH0 KECCAK256 ADD PUSH1 0x40 MLOAD PUSH3 0x1E7 SWAP2 SWAP1 PUSH3 0x335 JUMP JUMPDEST SWAP1 DUP2 MSTORE PUSH1 0x40 MLOAD SWAP1 DUP2 SWAP1 SUB PUSH1 0x20 ADD SWAP1 KECCAK256 DUP1 SLOAD SWAP2 ISZERO ISZERO PUSH1 0xFF NOT SWAP1 SWAP3 AND SWAP2 SWAP1 SWAP2 OR SWAP1 SSTORE PUSH1 0x1 ADD PUSH3 0x1AC JUMP JUMPDEST POP PUSH3 0x4DF JUMP JUMPDEST DUP3 DUP1 SLOAD DUP3 DUP3 SSTORE SWAP1 PUSH0 MSTORE PUSH1 0x20 PUSH0 KECCAK256 SWAP1 DUP2 ADD SWAP3 DUP3 ISZERO PUSH3 0x260 JUMPI SWAP2 PUSH1 0x20 MUL DUP3 ADD JUMPDEST DUP3 DUP2 GT ISZERO PUSH3 0x260 JUMPI DUP3 MLOAD DUP3 SWAP1 PUSH3 0x24F SWAP1 DUP3 PUSH3 0x413 JUMP JUMPDEST POP SWAP2 PUSH1 0x20 ADD SWAP2 SWAP1 PUSH1 0x1 ADD SWAP1 PUSH3 0x236 JUMP JUMPDEST POP PUSH3 0x26E SWAP3 SWAP2 POP PUSH3 0x272 JUMP JUMPDEST POP SWAP1 JUMP JUMPDEST DUP1 DUP3 GT ISZERO PUSH3 0x26E JUMPI PUSH0 PUSH3 0x288 DUP3 DUP3 PUSH3 0x292 JUMP JUMPDEST POP PUSH1 0x1 ADD PUSH3 0x272 JUMP JUMPDEST POP DUP1 SLOAD PUSH3 0x2A0 SWAP1 PUSH3 0x2FB JUMP JUMPDEST PUSH0 DUP3 SSTORE DUP1 PUSH1 0x1F LT PUSH3 0x2B0 JUMPI POP POP JUMP JUMPDEST PUSH1 0x1F ADD PUSH1 0x20 SWAP1 DIV SWAP1 PUSH0 MSTORE PUSH1 0x20 PUSH0 KECCAK256 SWAP1 DUP2 ADD SWAP1 PUSH3 0x2CE SWAP2 SWAP1 PUSH3 0x2D1 JUMP JUMPDEST POP JUMP JUMPDEST JUMPDEST DUP1 DUP3 GT ISZERO PUSH3 0x26E JUMPI PUSH0 DUP2 SSTORE PUSH1 0x1 ADD PUSH3 0x2D2 JUMP JUMPDEST PUSH4 0x4E487B71 PUSH1 0xE0 SHL PUSH0 MSTORE PUSH1 0x32 PUSH1 0x4 MSTORE PUSH1 0x24 PUSH0 REVERT JUMPDEST PUSH1 0x1 DUP2 DUP2 SHR SWAP1 DUP3 AND DUP1 PUSH3 0x310 JUMPI PUSH1 0x7F DUP3 AND SWAP2 POP JUMPDEST PUSH1 0x20 DUP3 LT DUP2 SUB PUSH3 0x32F JUMPI PUSH4 0x4E487B71 PUSH1 0xE0 SHL PUSH0 MSTORE PUSH1 0x22 PUSH1 0x4 MSTORE PUSH1 0x24 PUSH0 REVERT JUMPDEST POP SWAP2 SWAP1 POP JUMP JUMPDEST PUSH0 DUP1 DUP4 SLOAD PUSH3 0x344 DUP2 PUSH3 0x2FB JUMP JUMPDEST PUSH1 0x1 DUP3 DUP2 AND DUP1 ISZERO PUSH3 0x35F JUMPI PUSH1 0x1 DUP2 EQ PUSH3 0x375 JUMPI PUSH3 0x3A3 JUMP JUMPDEST PUSH1 0xFF NOT DUP5 AND DUP8 MSTORE DUP3 ISZERO ISZERO DUP4 MUL DUP8 ADD SWAP5 POP PUSH3 0x3A3 JUMP JUMPDEST DUP8 PUSH0 MSTORE PUSH1 0x20 DUP1 PUSH0 KECCAK256 PUSH0 JUMPDEST DUP6 DUP2 LT ISZERO PUSH3 0x39A JUMPI DUP2 SLOAD DUP11 DUP3 ADD MSTORE SWAP1 DUP5 ADD SWAP1 DUP3 ADD PUSH3 0x37F JUMP JUMPDEST POP POP POP DUP3 DUP8 ADD SWAP5 POP JUMPDEST POP SWAP3 SWAP7 SWAP6 POP POP POP POP POP POP JUMP JUMPDEST PUSH4 0x4E487B71 PUSH1 0xE0 SHL PUSH0 MSTORE PUSH1 0x41 PUSH1 0x4 MSTORE PUSH1 0x24 PUSH0 REVERT JUMPDEST PUSH1 0x1F DUP3 GT ISZERO PUSH3 0x40E JUMPI DUP1 PUSH0 MSTORE PUSH1 0x20 PUSH0 KECCAK256 PUSH1 0x1F DUP5 ADD PUSH1 0x5 SHR DUP2 ADD PUSH1 0x20 DUP6 LT ISZERO PUSH3 0x3EA JUMPI POP DUP1 JUMPDEST PUSH1 0x1F DUP5 ADD PUSH1 0x5 SHR DUP3 ADD SWAP2 POP JUMPDEST DUP2 DUP2 LT ISZERO PUSH3 0x40B JUMPI PUSH0 DUP2 SSTORE PUSH1 0x1 ADD PUSH3 0x3F6 JUMP JUMPDEST POP POP JUMPDEST POP POP POP JUMP JUMPDEST DUP2 MLOAD PUSH1 0x1 PUSH1 0x1 PUSH1 0x40 SHL SUB DUP2 GT ISZERO PUSH3 0x42F JUMPI PUSH3 0x42F PUSH3 0x3AF JUMP JUMPDEST PUSH3 0x447 DUP2 PUSH3 0x440 DUP5 SLOAD PUSH3 0x2FB JUMP JUMPDEST DUP5 PUSH3 0x3C3 JUMP JUMPDEST PUSH1 0x20 DUP1 PUSH1 0x1F DUP4 GT PUSH1 0x1 DUP2 EQ PUSH3 0x47D JUMPI PUSH0 DUP5 ISZERO PUSH3 0x465 JUMPI POP DUP6 DUP4 ADD MLOAD JUMPDEST PUSH0 NOT PUSH1 0x3 DUP7 SWAP1 SHL SHR NOT AND PUSH1 0x1 DUP6 SWAP1 SHL OR DUP6 SSTORE PUSH3 0x4D7 JUMP JUMPDEST PUSH0 DUP6 DUP2 MSTORE PUSH1 0x20 DUP2 KECCAK256 PUSH1 0x1F NOT DUP7 AND SWAP2 JUMPDEST DUP3 DUP2 LT ISZERO PUSH3 0x4AD JUMPI DUP9 DUP7 ADD MLOAD DUP3 SSTORE SWAP5 DUP5 ADD SWAP5 PUSH1 0x1 SWAP1 SWAP2 ADD SWAP1 DUP5 ADD PUSH3 0x48C JUMP JUMPDEST POP DUP6 DUP3 LT ISZERO PUSH3 0x4CB JUMPI DUP8 DUP6 ADD MLOAD PUSH0 NOT PUSH1 0x3 DUP9 SWAP1 SHL PUSH1 0xF8 AND SHR NOT AND DUP2 SSTORE JUMPDEST POP POP PUSH1 0x1 DUP5 PUSH1 0x1 SHL ADD DUP6 SSTORE JUMPDEST POP POP POP POP POP POP JUMP JUMPDEST PUSH2 0x8E3 DUP1 PUSH3 0x4ED PUSH0 CODECOPY PUSH0 RETURN INVALID PUSH1 0x80 PUSH1 0x40 MSTORE CALLVALUE DUP1 ISZERO PUSH2 0xF JUMPI PUSH0 DUP1 REVERT JUMPDEST POP PUSH1 0x4 CALLDATASIZE LT PUSH2 0x55 JUMPI PUSH0 CALLDATALOAD PUSH1 0xE0 SHR DUP1 PUSH4 0x1CF0830B EQ PUSH2 0x59 JUMPI DUP1 PUSH4 0x837F8878 EQ PUSH2 0x77 JUMPI DUP1 PUSH4 0xC75C333C EQ PUSH2 0x81 JUMPI DUP1 PUSH4 0xC7853148 EQ PUSH2 0xCF JUMPI DUP1 PUSH4 0xD81AA8C4 EQ PUSH2 0xE2 JUMPI JUMPDEST PUSH0 DUP1 REVERT JUMPDEST PUSH2 0x61 PUSH2 0xF5 JUMP JUMPDEST PUSH1 0x40 MLOAD PUSH2 0x6E SWAP2 SWAP1 PUSH2 0x4F7 JUMP JUMPDEST PUSH1 0x40 MLOAD DUP1 SWAP2 SUB SWAP1 RETURN JUMPDEST PUSH2 0x7F PUSH2 0x1C9 JUMP JUMPDEST STOP JUMPDEST PUSH2 0xBF PUSH2 0x8F CALLDATASIZE PUSH1 0x4 PUSH2 0x611 JUMP JUMPDEST PUSH1 0x2 PUSH1 0x20 SWAP1 DUP2 MSTORE PUSH0 SWAP3 DUP4 MSTORE PUSH1 0x40 SWAP1 SWAP3 KECCAK256 DUP2 MLOAD DUP1 DUP4 ADD DUP5 ADD DUP1 MLOAD SWAP3 DUP2 MSTORE SWAP1 DUP5 ADD SWAP3 SWAP1 SWAP4 ADD SWAP2 SWAP1 SWAP2 KECCAK256 SWAP2 MSTORE SLOAD PUSH1 0xFF AND DUP2 JUMP JUMPDEST PUSH1 0x40 MLOAD SWAP1 ISZERO ISZERO DUP2 MSTORE PUSH1 0x20 ADD PUSH2 0x6E JUMP JUMPDEST PUSH2 0x61 PUSH2 0xDD CALLDATASIZE PUSH1 0x4 PUSH2 0x65C JUMP JUMPDEST PUSH2 0x25A JUMP JUMPDEST PUSH2 0x7F PUSH2 0xF0 CALLDATASIZE PUSH1 0x4 PUSH2 0x67C JUMP JUMPDEST PUSH2 0x344 JUMP JUMPDEST PUSH1 0x60 PUSH1 0x1 DUP1 SLOAD DUP1 PUSH1 0x20 MUL PUSH1 0x20 ADD PUSH1 0x40 MLOAD SWAP1 DUP2 ADD PUSH1 0x40 MSTORE DUP1 SWAP3 SWAP2 SWAP1 DUP2 DUP2 MSTORE PUSH1 0x20 ADD PUSH0 SWAP1 JUMPDEST DUP3 DUP3 LT ISZERO PUSH2 0x1C0 JUMPI DUP4 DUP3 SWAP1 PUSH0 MSTORE PUSH1 0x20 PUSH0 KECCAK256 ADD DUP1 SLOAD PUSH2 0x135 SWAP1 PUSH2 0x6B6 JUMP JUMPDEST DUP1 PUSH1 0x1F ADD PUSH1 0x20 DUP1 SWAP2 DIV MUL PUSH1 0x20 ADD PUSH1 0x40 MLOAD SWAP1 DUP2 ADD PUSH1 0x40 MSTORE DUP1 SWAP3 SWAP2 SWAP1 DUP2 DUP2 MSTORE PUSH1 0x20 ADD DUP3 DUP1 SLOAD PUSH2 0x161 SWAP1 PUSH2 0x6B6 JUMP JUMPDEST DUP1 ISZERO PUSH2 0x1AC JUMPI DUP1 PUSH1 0x1F LT PUSH2 0x183 JUMPI PUSH2 0x100 DUP1 DUP4 SLOAD DIV MUL DUP4 MSTORE SWAP2 PUSH1 0x20 ADD SWAP2 PUSH2 0x1AC JUMP JUMPDEST DUP3 ADD SWAP2 SWAP1 PUSH0 MSTORE PUSH1 0x20 PUSH0 KECCAK256 SWAP1 JUMPDEST DUP2 SLOAD DUP2 MSTORE SWAP1 PUSH1 0x1 ADD SWAP1 PUSH1 0x20 ADD DUP1 DUP4 GT PUSH2 0x18F JUMPI DUP3 SWAP1 SUB PUSH1 0x1F AND DUP3 ADD SWAP2 JUMPDEST POP POP POP POP POP DUP2 MSTORE PUSH1 0x20 ADD SWAP1 PUSH1 0x1 ADD SWAP1 PUSH2 0x118 JUMP JUMPDEST POP POP POP POP SWAP1 POP SWAP1 JUMP JUMPDEST PUSH0 JUMPDEST CALLER PUSH0 SWAP1 DUP2 MSTORE PUSH1 0x3 PUSH1 0x20 MSTORE PUSH1 0x40 SWAP1 KECCAK256 SLOAD DUP2 LT ISZERO PUSH2 0x240 JUMPI CALLER PUSH0 SWAP1 DUP2 MSTORE PUSH1 0x2 PUSH1 0x20 SWAP1 DUP2 MSTORE PUSH1 0x40 DUP1 DUP4 KECCAK256 PUSH1 0x3 SWAP1 SWAP3 MSTORE SWAP1 SWAP2 KECCAK256 DUP1 SLOAD DUP4 SWAP1 DUP2 LT PUSH2 0x20C JUMPI PUSH2 0x20C PUSH2 0x6EE JUMP JUMPDEST SWAP1 PUSH0 MSTORE PUSH1 0x20 PUSH0 KECCAK256 ADD PUSH1 0x40 MLOAD PUSH2 0x221 SWAP2 SWAP1 PUSH2 0x702 JUMP JUMPDEST SWAP1 DUP2 MSTORE PUSH1 0x40 MLOAD SWAP1 DUP2 SWAP1 SUB PUSH1 0x20 ADD SWAP1 KECCAK256 DUP1 SLOAD PUSH1 0xFF NOT AND SWAP1 SSTORE PUSH1 0x1 ADD PUSH2 0x1CB JUMP JUMPDEST POP CALLER PUSH0 SWAP1 DUP2 MSTORE PUSH1 0x3 PUSH1 0x20 MSTORE PUSH1 0x40 DUP2 KECCAK256 PUSH2 0x258 SWAP2 PUSH2 0x42D JUMP JUMPDEST JUMP JUMPDEST PUSH1 0x1 PUSH1 0x1 PUSH1 0xA0 SHL SUB DUP2 AND PUSH0 SWAP1 DUP2 MSTORE PUSH1 0x3 PUSH1 0x20 SWAP1 DUP2 MSTORE PUSH1 0x40 DUP1 DUP4 KECCAK256 DUP1 SLOAD DUP3 MLOAD DUP2 DUP6 MUL DUP2 ADD DUP6 ADD SWAP1 SWAP4 MSTORE DUP1 DUP4 MSTORE PUSH1 0x60 SWAP5 SWAP3 SWAP4 SWAP2 SWAP3 SWAP1 SWAP2 DUP5 ADD JUMPDEST DUP3 DUP3 LT ISZERO PUSH2 0x339 JUMPI DUP4 DUP3 SWAP1 PUSH0 MSTORE PUSH1 0x20 PUSH0 KECCAK256 ADD DUP1 SLOAD PUSH2 0x2AE SWAP1 PUSH2 0x6B6 JUMP JUMPDEST DUP1 PUSH1 0x1F ADD PUSH1 0x20 DUP1 SWAP2 DIV MUL PUSH1 0x20 ADD PUSH1 0x40 MLOAD SWAP1 DUP2 ADD PUSH1 0x40 MSTORE DUP1 SWAP3 SWAP2 SWAP1 DUP2 DUP2 MSTORE PUSH1 0x20 ADD DUP3 DUP1 SLOAD PUSH2 0x2DA SWAP1 PUSH2 0x6B6 JUMP JUMPDEST DUP1 ISZERO PUSH2 0x325 JUMPI DUP1 PUSH1 0x1F LT PUSH2 0x2FC JUMPI PUSH2 0x100 DUP1 DUP4 SLOAD DIV MUL DUP4 MSTORE SWAP2 PUSH1 0x20 ADD SWAP2 PUSH2 0x325 JUMP JUMPDEST DUP3 ADD SWAP2 SWAP1 PUSH0 MSTORE PUSH1 0x20 PUSH0 KECCAK256 SWAP1 JUMPDEST DUP2 SLOAD DUP2 MSTORE SWAP1 PUSH1 0x1 ADD SWAP1 PUSH1 0x20 ADD DUP1 DUP4 GT PUSH2 0x308 JUMPI DUP3 SWAP1 SUB PUSH1 0x1F AND DUP3 ADD SWAP2 JUMPDEST POP POP POP POP POP DUP2 MSTORE PUSH1 0x20 ADD SWAP1 PUSH1 0x1 ADD SWAP1 PUSH2 0x291 JUMP JUMPDEST POP POP POP POP SWAP1 POP SWAP2 SWAP1 POP JUMP JUMPDEST PUSH0 DUP2 PUSH1 0x40 MLOAD PUSH2 0x353 SWAP2 SWAP1 PUSH2 0x774 JUMP JUMPDEST SWAP1 DUP2 MSTORE PUSH1 0x40 MLOAD SWAP1 DUP2 SWAP1 SUB PUSH1 0x20 ADD SWAP1 KECCAK256 SLOAD PUSH1 0xFF AND PUSH2 0x38E JUMPI DUP1 PUSH1 0x40 MLOAD PUSH4 0x4F0FFC1B PUSH1 0xE0 SHL DUP2 MSTORE PUSH1 0x4 ADD PUSH2 0x385 SWAP2 SWAP1 PUSH2 0x78F JUMP JUMPDEST PUSH1 0x40 MLOAD DUP1 SWAP2 SUB SWAP1 REVERT JUMPDEST CALLER PUSH0 SWAP1 DUP2 MSTORE PUSH1 0x2 PUSH1 0x20 MSTORE PUSH1 0x40 SWAP1 DUP2 SWAP1 KECCAK256 SWAP1 MLOAD PUSH2 0x3AB SWAP1 DUP4 SWAP1 PUSH2 0x774 JUMP JUMPDEST SWAP1 DUP2 MSTORE PUSH1 0x40 MLOAD SWAP1 DUP2 SWAP1 SUB PUSH1 0x20 ADD SWAP1 KECCAK256 SLOAD PUSH1 0xFF AND PUSH2 0x42A JUMPI CALLER PUSH0 SWAP1 DUP2 MSTORE PUSH1 0x2 PUSH1 0x20 MSTORE PUSH1 0x40 SWAP1 DUP2 SWAP1 KECCAK256 SWAP1 MLOAD PUSH1 0x1 SWAP2 SWAP1 PUSH2 0x3E3 SWAP1 DUP5 SWAP1 PUSH2 0x774 JUMP JUMPDEST SWAP1 DUP2 MSTORE PUSH1 0x40 DUP1 MLOAD PUSH1 0x20 SWAP3 DUP2 SWAP1 SUB DUP4 ADD SWAP1 KECCAK256 DUP1 SLOAD PUSH1 0xFF NOT AND SWAP4 ISZERO ISZERO SWAP4 SWAP1 SWAP4 OR SWAP1 SWAP3 SSTORE CALLER PUSH0 SWAP1 DUP2 MSTORE PUSH1 0x3 DUP3 MSTORE SWAP2 DUP3 KECCAK256 DUP1 SLOAD PUSH1 0x1 DUP2 ADD DUP3 SSTORE SWAP1 DUP4 MSTORE SWAP2 KECCAK256 ADD PUSH2 0x428 DUP3 DUP3 PUSH2 0x7ED JUMP JUMPDEST POP JUMPDEST POP JUMP JUMPDEST POP DUP1 SLOAD PUSH0 DUP3 SSTORE SWAP1 PUSH0 MSTORE PUSH1 0x20 PUSH0 KECCAK256 SWAP1 DUP2 ADD SWAP1 PUSH2 0x42A SWAP2 SWAP1 JUMPDEST DUP1 DUP3 GT ISZERO PUSH2 0x460 JUMPI PUSH0 PUSH2 0x457 DUP3 DUP3 PUSH2 0x464 JUMP JUMPDEST POP PUSH1 0x1 ADD PUSH2 0x444 JUMP JUMPDEST POP SWAP1 JUMP JUMPDEST POP DUP1 SLOAD PUSH2 0x470 SWAP1 PUSH2 0x6B6 JUMP JUMPDEST PUSH0 DUP3 SSTORE DUP1 PUSH1 0x1F LT PUSH2 0x47F JUMPI POP POP JUMP JUMPDEST PUSH1 0x1F ADD PUSH1 0x20 SWAP1 DIV SWAP1 PUSH0 MSTORE PUSH1 0x20 PUSH0 KECCAK256 SWAP1 DUP2 ADD SWAP1 PUSH2 0x42A SWAP2 SWAP1 JUMPDEST DUP1 DUP3 GT ISZERO PUSH2 0x460 JUMPI PUSH0 DUP2 SSTORE PUSH1 0x1 ADD PUSH2 0x497 JUMP JUMPDEST PUSH0 JUMPDEST DUP4 DUP2 LT ISZERO PUSH2 0x4C4 JUMPI DUP2 DUP2 ADD MLOAD DUP4 DUP3 ADD MSTORE PUSH1 0x20 ADD PUSH2 0x4AC JUMP JUMPDEST POP POP PUSH0 SWAP2 ADD MSTORE JUMP JUMPDEST PUSH0 DUP2 MLOAD DUP1 DUP5 MSTORE PUSH2 0x4E3 DUP2 PUSH1 0x20 DUP7 ADD PUSH1 0x20 DUP7 ADD PUSH2 0x4AA JUMP JUMPDEST PUSH1 0x1F ADD PUSH1 0x1F NOT AND SWAP3 SWAP1 SWAP3 ADD PUSH1 0x20 ADD SWAP3 SWAP2 POP POP JUMP JUMPDEST PUSH0 PUSH1 0x20 DUP1 DUP4 ADD PUSH1 0x20 DUP5 MSTORE DUP1 DUP6 MLOAD DUP1 DUP4 MSTORE PUSH1 0x40 DUP7 ADD SWAP2 POP PUSH1 0x40 DUP2 PUSH1 0x5 SHL DUP8 ADD ADD SWAP3 POP PUSH1 0x20 DUP8 ADD PUSH0 JUMPDEST DUP3 DUP2 LT ISZERO PUSH2 0x54C JUMPI PUSH1 0x3F NOT DUP9 DUP7 SUB ADD DUP5 MSTORE PUSH2 0x53A DUP6 DUP4 MLOAD PUSH2 0x4CC JUMP JUMPDEST SWAP5 POP SWAP3 DUP6 ADD SWAP3 SWAP1 DUP6 ADD SWAP1 PUSH1 0x1 ADD PUSH2 0x51E JUMP JUMPDEST POP SWAP3 SWAP8 SWAP7 POP POP POP POP POP POP POP JUMP JUMPDEST DUP1 CALLDATALOAD PUSH1 0x1 PUSH1 0x1 PUSH1 0xA0 SHL SUB DUP2 AND DUP2 EQ PUSH2 0x56F JUMPI PUSH0 DUP1 REVERT JUMPDEST SWAP2 SWAP1 POP JUMP JUMPDEST PUSH4 0x4E487B71 PUSH1 0xE0 SHL PUSH0 MSTORE PUSH1 0x41 PUSH1 0x4 MSTORE PUSH1 0x24 PUSH0 REVERT JUMPDEST PUSH0 DUP3 PUSH1 0x1F DUP4 ADD SLT PUSH2 0x597 JUMPI PUSH0 DUP1 REVERT JUMPDEST DUP2 CALLDATALOAD PUSH8 0xFFFFFFFFFFFFFFFF DUP1 DUP3 GT ISZERO PUSH2 0x5B2 JUMPI PUSH2 0x5B2 PUSH2 0x574 JUMP JUMPDEST PUSH1 0x40 MLOAD PUSH1 0x1F DUP4 ADD PUSH1 0x1F NOT SWAP1 DUP2 AND PUSH1 0x3F ADD AND DUP2 ADD SWAP1 DUP3 DUP3 GT DUP2 DUP4 LT OR ISZERO PUSH2 0x5DA JUMPI PUSH2 0x5DA PUSH2 0x574 JUMP JUMPDEST DUP2 PUSH1 0x40 MSTORE DUP4 DUP2 MSTORE DUP7 PUSH1 0x20 DUP6 DUP9 ADD ADD GT ISZERO PUSH2 0x5F2 JUMPI PUSH0 DUP1 REVERT JUMPDEST DUP4 PUSH1 0x20 DUP8 ADD PUSH1 0x20 DUP4 ADD CALLDATACOPY PUSH0 PUSH1 0x20 DUP6 DUP4 ADD ADD MSTORE DUP1 SWAP5 POP POP POP POP POP SWAP3 SWAP2 POP POP JUMP JUMPDEST PUSH0 DUP1 PUSH1 0x40 DUP4 DUP6 SUB SLT ISZERO PUSH2 0x622 JUMPI PUSH0 DUP1 REVERT JUMPDEST PUSH2 0x62B DUP4 PUSH2 0x559 JUMP JUMPDEST SWAP2 POP PUSH1 0x20 DUP4 ADD CALLDATALOAD PUSH8 0xFFFFFFFFFFFFFFFF DUP2 GT ISZERO PUSH2 0x646 JUMPI PUSH0 DUP1 REVERT JUMPDEST PUSH2 0x652 DUP6 DUP3 DUP7 ADD PUSH2 0x588 JUMP JUMPDEST SWAP2 POP POP SWAP3 POP SWAP3 SWAP1 POP JUMP JUMPDEST PUSH0 PUSH1 0x20 DUP3 DUP5 SUB SLT ISZERO PUSH2 0x66C JUMPI PUSH0 DUP1 REVERT JUMPDEST PUSH2 0x675 DUP3 PUSH2 0x559 JUMP JUMPDEST SWAP4 SWAP3 POP POP POP JUMP JUMPDEST PUSH0 PUSH1 0x20 DUP3 DUP5 SUB SLT ISZERO PUSH2 0x68C JUMPI PUSH0 DUP1 REVERT JUMPDEST DUP2 CALLDATALOAD PUSH8 0xFFFFFFFFFFFFFFFF DUP2 GT ISZERO PUSH2 0x6A2 JUMPI PUSH0 DUP1 REVERT JUMPDEST PUSH2 0x6AE DUP5 DUP3 DUP6 ADD PUSH2 0x588 JUMP JUMPDEST SWAP5 SWAP4 POP POP POP POP JUMP JUMPDEST PUSH1 0x1 DUP2 DUP2 SHR SWAP1 DUP3 AND DUP1 PUSH2 0x6CA JUMPI PUSH1 0x7F DUP3 AND SWAP2 POP JUMPDEST PUSH1 0x20 DUP3 LT DUP2 SUB PUSH2 0x6E8 JUMPI PUSH4 0x4E487B71 PUSH1 0xE0 SHL PUSH0 MSTORE PUSH1 0x22 PUSH1 0x4 MSTORE PUSH1 0x24 PUSH0 REVERT JUMPDEST POP SWAP2 SWAP1 POP JUMP JUMPDEST PUSH4 0x4E487B71 PUSH1 0xE0 SHL PUSH0 MSTORE PUSH1 0x32 PUSH1 0x4 MSTORE PUSH1 0x24 PUSH0 REVERT JUMPDEST PUSH0 DUP1 DUP4 SLOAD PUSH2 0x70F DUP2 PUSH2 0x6B6 JUMP JUMPDEST PUSH1 0x1 DUP3 DUP2 AND DUP1 ISZERO PUSH2 0x727 JUMPI PUSH1 0x1 DUP2 EQ PUSH2 0x73C JUMPI PUSH2 0x768 JUMP JUMPDEST PUSH1 0xFF NOT DUP5 AND DUP8 MSTORE DUP3 ISZERO ISZERO DUP4 MUL DUP8 ADD SWAP5 POP PUSH2 0x768 JUMP JUMPDEST DUP8 PUSH0 MSTORE PUSH1 0x20 DUP1 PUSH0 KECCAK256 PUSH0 JUMPDEST DUP6 DUP2 LT ISZERO PUSH2 0x75F JUMPI DUP2 SLOAD DUP11 DUP3 ADD MSTORE SWAP1 DUP5 ADD SWAP1 DUP3 ADD PUSH2 0x746 JUMP JUMPDEST POP POP POP DUP3 DUP8 ADD SWAP5 POP JUMPDEST POP SWAP3 SWAP7 SWAP6 POP POP POP POP POP POP JUMP JUMPDEST PUSH0 DUP3 MLOAD PUSH2 0x785 DUP2 DUP5 PUSH1 0x20 DUP8 ADD PUSH2 0x4AA JUMP JUMPDEST SWAP2 SWAP1 SWAP2 ADD SWAP3 SWAP2 POP POP JUMP JUMPDEST PUSH1 0x20 DUP2 MSTORE PUSH0 PUSH2 0x675 PUSH1 0x20 DUP4 ADD DUP5 PUSH2 0x4CC JUMP JUMPDEST PUSH1 0x1F DUP3 GT ISZERO PUSH2 0x7E8 JUMPI DUP1 PUSH0 MSTORE PUSH1 0x20 PUSH0 KECCAK256 PUSH1 0x1F DUP5 ADD PUSH1 0x5 SHR DUP2 ADD PUSH1 0x20 DUP6 LT ISZERO PUSH2 0x7C6 JUMPI POP DUP1 JUMPDEST PUSH1 0x1F DUP5 ADD PUSH1 0x5 SHR DUP3 ADD SWAP2 POP JUMPDEST DUP2 DUP2 LT ISZERO PUSH2 0x7E5 JUMPI PUSH0 DUP2 SSTORE PUSH1 0x1 ADD PUSH2 0x7D2 JUMP JUMPDEST POP POP JUMPDEST POP POP POP JUMP JUMPDEST DUP2 MLOAD PUSH8 0xFFFFFFFFFFFFFFFF DUP2 GT ISZERO PUSH2 0x807 JUMPI PUSH2 0x807 PUSH2 0x574 JUMP JUMPDEST PUSH2 0x81B DUP2 PUSH2 0x815 DUP5 SLOAD PUSH2 0x6B6 JUMP JUMPDEST DUP5 PUSH2 0x7A1 JUMP JUMPDEST PUSH1 0x20 DUP1 PUSH1 0x1F DUP4 GT PUSH1 0x1 DUP2 EQ PUSH2 0x84E JUMPI PUSH0 DUP5 ISZERO PUSH2 0x837 JUMPI POP DUP6 DUP4 ADD MLOAD JUMPDEST PUSH0 NOT PUSH1 0x3 DUP7 SWAP1 SHL SHR NOT AND PUSH1 0x1 DUP6 SWAP1 SHL OR DUP6 SSTORE PUSH2 0x8A5 JUMP JUMPDEST PUSH0 DUP6 DUP2 MSTORE PUSH1 0x20 DUP2 KECCAK256 PUSH1 0x1F NOT DUP7 AND SWAP2 JUMPDEST DUP3 DUP2 LT ISZERO PUSH2 0x87C JUMPI DUP9 DUP7 ADD MLOAD DUP3 SSTORE SWAP5 DUP5 ADD SWAP5 PUSH1 0x1 SWAP1 SWAP2 ADD SWAP1 DUP5 ADD PUSH2 0x85D JUMP JUMPDEST POP DUP6 DUP3 LT ISZERO PUSH2 0x899 JUMPI DUP8 DUP6 ADD MLOAD PUSH0 NOT PUSH1 0x3 DUP9 SWAP1 SHL PUSH1 0xF8 AND SHR NOT AND DUP2 SSTORE JUMPDEST POP POP PUSH1 0x1 DUP5 PUSH1 0x1 SHL ADD DUP6 SSTORE JUMPDEST POP POP POP POP POP POP JUMP INVALID LOG2 PUSH5 0x6970667358 0x22 SLT KECCAK256 0xDC DIV 0xE9 0xAD DUP11 SWAP2 PUSH19 0x8F108831A8F14910E41ADAB81172FBA5C7BDBF 0xB5 GASPRICE 0xE0 SSTORE DUP9 0xA9 PUSH5 0x736F6C6343 STOP ADDMOD OR STOP CALLER "
		},
		"gasEstimates": {
			"creation": {
				"codeDepositCost": "455000",
				"executionCost": "infinite",
				"totalCost": "infinite"
			},
			"external": {
				"addRecord(string)": "infinite",
				"getApprovedRecords()": "infinite",
				"getUserFavorites(address)": "infinite",
				"resetUserFavorites()": "infinite",
				"userFavorites(address,string)": "infinite"
			}
		},
		"methodIdentifiers": {
			"addRecord(string)": "d81aa8c4",
			"getApprovedRecords()": "1cf0830b",
			"getUserFavorites(address)": "c7853148",
			"resetUserFavorites()": "837f8878",
			"userFavorites(address,string)": "c75c333c"
		}
	},
	"abi": [
		{
			"inputs": [],
			"stateMutability": "nonpayable",
			"type": "constructor"
		},
		{
			"inputs": [
				{
					"internalType": "string",
					"name": "albumName",
					"type": "string"
				}
			],
			"name": "NotApproved",
			"type": "error"
		},
		{
			"inputs": [
				{
					"internalType": "string",
					"name": "_albumName",
					"type": "string"
				}
			],
			"name": "addRecord",
			"outputs": [],
			"stateMutability": "nonpayable",
			"type": "function"
		},
		{
			"inputs": [],
			"name": "getApprovedRecords",
			"outputs": [
				{
					"internalType": "string[]",
					"name": "",
					"type": "string[]"
				}
			],
			"stateMutability": "view",
			"type": "function"
		},
		{
			"inputs": [
				{
					"internalType": "address",
					"name": "_address",
					"type": "address"
				}
			],
			"name": "getUserFavorites",
			"outputs": [
				{
					"internalType": "string[]",
					"name": "",
					"type": "string[]"
				}
			],
			"stateMutability": "view",
			"type": "function"
		},
		{
			"inputs": [],
			"name": "resetUserFavorites",
			"outputs": [],
			"stateMutability": "nonpayable",
			"type": "function"
		},
		{
			"inputs": [
				{
					"internalType": "address",
					"name": "",
					"type": "address"
				},
				{
					"internalType": "string",
					"name": "",
					"type": "string"
				}
			],
			"name": "userFavorites",
			"outputs": [
				{
					"internalType": "bool",
					"name": "",
					"type": "bool"
				}
			],
			"stateMutability": "view",
			"type": "function"
		}
	]
}