{
	"data": {
		"bytecode": {
			"linkReferences": {},
			"object": "608060405234801561000f575f80fd5b50610b868061001d5f395ff3fe608060405234801561000f575f80fd5b5060043610610055575f3560e01c80632698286c14610059578063341fa05d146100825780634cd1ed3d1461008a5780636dcb78961461009f578063d2d50bd8146100a7575b5f80fd5b61006c610067366004610722565b6100ba565b6040516100799190610792565b60405180910390f35b61006c6102e3565b61009d6100983660046108db565b610501565b005b61009d6105d4565b61009d6100b536600461096e565b6105ed565b6001600160a01b0381165f90815260208181526040808320805482518185028101850190935280835260609492939192909184015b828210156102d8578382905f5260205f2090600402016040518060800160405290815f8201805461011f906109f8565b80601f016020809104026020016040519081016040528092919081815260200182805461014b906109f8565b80156101965780601f1061016d57610100808354040283529160200191610196565b820191905f5260205f20905b81548152906001019060200180831161017957829003601f168201915b505050505081526020016001820180546101af906109f8565b80601f01602080910402602001604051908101604052809291908181526020018280546101db906109f8565b80156102265780601f106101fd57610100808354040283529160200191610226565b820191905f5260205f20905b81548152906001019060200180831161020957829003601f168201915b5050505050815260200160028201805461023f906109f8565b80601f016020809104026020016040519081016040528092919081815260200182805461026b906109f8565b80156102b65780601f1061028d576101008083540402835291602001916102b6565b820191905f5260205f20905b81548152906001019060200180831161029957829003601f168201915b50505050508152602001600382015481525050815260200190600101906100ef565b505050509050919050565b335f90815260208181526040808320805482518185028101850190935280835260609492939192909184015b828210156104f8578382905f5260205f2090600402016040518060800160405290815f8201805461033f906109f8565b80601f016020809104026020016040519081016040528092919081815260200182805461036b906109f8565b80156103b65780601f1061038d576101008083540402835291602001916103b6565b820191905f5260205f20905b81548152906001019060200180831161039957829003601f168201915b505050505081526020016001820180546103cf906109f8565b80601f01602080910402602001604051908101604052809291908181526020018280546103fb906109f8565b80156104465780601f1061041d57610100808354040283529160200191610446565b820191905f5260205f20905b81548152906001019060200180831161042957829003601f168201915b5050505050815260200160028201805461045f906109f8565b80601f016020809104026020016040519081016040528092919081815260200182805461048b906109f8565b80156104d65780601f106104ad576101008083540402835291602001916104d6565b820191905f5260205f20905b8154815290600101906020018083116104b957829003601f168201915b505050505081526020016003820154815250508152602001906001019061030f565b50505050905090565b335f9081526020819052604090205485106105365760405163206480e760e11b81526004810186905260240160405180910390fd5b60408051608081018252858152602080820186905281830185905260608201849052335f908152908190529190912080548790811061057757610577610a30565b5f918252602090912082516004909202019081906105959082610a90565b50602082015160018201906105aa9082610a90565b50604082015160028201906105bf9082610a90565b50606082015181600301559050505050505050565b335f9081526020819052604081206105eb9161067b565b565b335f90815260208181526040808320815160808101835288815280840188905291820186905260608201859052805460018101825590845291909220825160049092020190819061063e9082610a90565b50602082015160018201906106539082610a90565b50604082015160028201906106689082610a90565b5060608201518160030155505050505050565b5080545f8255600402905f5260205f2090810190610699919061069c565b50565b808211156106d8575f6106af82826106dc565b6106bc600183015f6106dc565b6106c9600283015f6106dc565b505f600382015560040161069c565b5090565b5080546106e8906109f8565b5f825580601f106106f7575050565b601f0160209004905f5260205f209081019061069991905b808211156106d8575f815560010161070f565b5f60208284031215610732575f80fd5b81356001600160a01b0381168114610748575f80fd5b9392505050565b5f81518084525f5b8181101561077357602081850181015186830182015201610757565b505f602082860101526020601f19601f83011685010191505092915050565b5f60208083018184528085518083526040925060408601915060408160051b8701018488015f5b8381101561083057603f198984030185528151608081518186526107df8287018261074f565b915050888201518582038a8701526107f7828261074f565b915050878201518582038987015261080f828261074f565b606093840151969093019590955250948701949250908601906001016107b9565b509098975050505050505050565b634e487b7160e01b5f52604160045260245ffd5b5f82601f830112610861575f80fd5b813567ffffffffffffffff8082111561087c5761087c61083e565b604051601f8301601f19908116603f011681019082821181831017156108a4576108a461083e565b816040528381528660208588010111156108bc575f80fd5b836020870160208301375f602085830101528094505050505092915050565b5f805f805f60a086880312156108ef575f80fd5b85359450602086013567ffffffffffffffff8082111561090d575f80fd5b61091989838a01610852565b9550604088013591508082111561092e575f80fd5b61093a89838a01610852565b9450606088013591508082111561094f575f80fd5b5061095c88828901610852565b95989497509295608001359392505050565b5f805f8060808587031215610981575f80fd5b843567ffffffffffffffff80821115610998575f80fd5b6109a488838901610852565b955060208701359150808211156109b9575f80fd5b6109c588838901610852565b945060408701359150808211156109da575f80fd5b506109e787828801610852565b949793965093946060013593505050565b600181811c90821680610a0c57607f821691505b602082108103610a2a57634e487b7160e01b5f52602260045260245ffd5b50919050565b634e487b7160e01b5f52603260045260245ffd5b601f821115610a8b57805f5260205f20601f840160051c81016020851015610a695750805b601f840160051c820191505b81811015610a88575f8155600101610a75565b50505b505050565b815167ffffffffffffffff811115610aaa57610aaa61083e565b610abe81610ab884546109f8565b84610a44565b602080601f831160018114610af1575f8415610ada5750858301515b5f19600386901b1c1916600185901b178555610b48565b5f85815260208120601f198616915b82811015610b1f57888601518255948401946001909101908401610b00565b5085821015610b3c57878501515f19600388901b60f8161c191681555b505060018460011b0185555b50505050505056fea2646970667358221220a4fa794afb1e0ab051e4435babdca970c8633f54782a84897f7a68873de1d63964736f6c63430008170033",
			"opcodes": "PUSH1 0x80 PUSH1 0x40 MSTORE CALLVALUE DUP1 ISZERO PUSH2 0xF JUMPI PUSH0 DUP1 REVERT JUMPDEST POP PUSH2 0xB86 DUP1 PUSH2 0x1D PUSH0 CODECOPY PUSH0 RETURN INVALID PUSH1 0x80 PUSH1 0x40 MSTORE CALLVALUE DUP1 ISZERO PUSH2 0xF JUMPI PUSH0 DUP1 REVERT JUMPDEST POP PUSH1 0x4 CALLDATASIZE LT PUSH2 0x55 JUMPI PUSH0 CALLDATALOAD PUSH1 0xE0 SHR DUP1 PUSH4 0x2698286C EQ PUSH2 0x59 JUMPI DUP1 PUSH4 0x341FA05D EQ PUSH2 0x82 JUMPI DUP1 PUSH4 0x4CD1ED3D EQ PUSH2 0x8A JUMPI DUP1 PUSH4 0x6DCB7896 EQ PUSH2 0x9F JUMPI DUP1 PUSH4 0xD2D50BD8 EQ PUSH2 0xA7 JUMPI JUMPDEST PUSH0 DUP1 REVERT JUMPDEST PUSH2 0x6C PUSH2 0x67 CALLDATASIZE PUSH1 0x4 PUSH2 0x722 JUMP JUMPDEST PUSH2 0xBA JUMP JUMPDEST PUSH1 0x40 MLOAD PUSH2 0x79 SWAP2 SWAP1 PUSH2 0x792 JUMP JUMPDEST PUSH1 0x40 MLOAD DUP1 SWAP2 SUB SWAP1 RETURN JUMPDEST PUSH2 0x6C PUSH2 0x2E3 JUMP JUMPDEST PUSH2 0x9D PUSH2 0x98 CALLDATASIZE PUSH1 0x4 PUSH2 0x8DB JUMP JUMPDEST PUSH2 0x501 JUMP JUMPDEST STOP JUMPDEST PUSH2 0x9D PUSH2 0x5D4 JUMP JUMPDEST PUSH2 0x9D PUSH2 0xB5 CALLDATASIZE PUSH1 0x4 PUSH2 0x96E JUMP JUMPDEST PUSH2 0x5ED JUMP JUMPDEST PUSH1 0x1 PUSH1 0x1 PUSH1 0xA0 SHL SUB DUP2 AND PUSH0 SWAP1 DUP2 MSTORE PUSH1 0x20 DUP2 DUP2 MSTORE PUSH1 0x40 DUP1 DUP4 KECCAK256 DUP1 SLOAD DUP3 MLOAD DUP2 DUP6 MUL DUP2 ADD DUP6 ADD SWAP1 SWAP4 MSTORE DUP1 DUP4 MSTORE PUSH1 0x60 SWAP5 SWAP3 SWAP4 SWAP2 SWAP3 SWAP1 SWAP2 DUP5 ADD JUMPDEST DUP3 DUP3 LT ISZERO PUSH2 0x2D8 JUMPI DUP4 DUP3 SWAP1 PUSH0 MSTORE PUSH1 0x20 PUSH0 KECCAK256 SWAP1 PUSH1 0x4 MUL ADD PUSH1 0x40 MLOAD DUP1 PUSH1 0x80 ADD PUSH1 0x40 MSTORE SWAP1 DUP2 PUSH0 DUP3 ADD DUP1 SLOAD PUSH2 0x11F SWAP1 PUSH2 0x9F8 JUMP JUMPDEST DUP1 PUSH1 0x1F ADD PUSH1 0x20 DUP1 SWAP2 DIV MUL PUSH1 0x20 ADD PUSH1 0x40 MLOAD SWAP1 DUP2 ADD PUSH1 0x40 MSTORE DUP1 SWAP3 SWAP2 SWAP1 DUP2 DUP2 MSTORE PUSH1 0x20 ADD DUP3 DUP1 SLOAD PUSH2 0x14B SWAP1 PUSH2 0x9F8 JUMP JUMPDEST DUP1 ISZERO PUSH2 0x196 JUMPI DUP1 PUSH1 0x1F LT PUSH2 0x16D JUMPI PUSH2 0x100 DUP1 DUP4 SLOAD DIV MUL DUP4 MSTORE SWAP2 PUSH1 0x20 ADD SWAP2 PUSH2 0x196 JUMP JUMPDEST DUP3 ADD SWAP2 SWAP1 PUSH0 MSTORE PUSH1 0x20 PUSH0 KECCAK256 SWAP1 JUMPDEST DUP2 SLOAD DUP2 MSTORE SWAP1 PUSH1 0x1 ADD SWAP1 PUSH1 0x20 ADD DUP1 DUP4 GT PUSH2 0x179 JUMPI DUP3 SWAP1 SUB PUSH1 0x1F AND DUP3 ADD SWAP2 JUMPDEST POP POP POP POP POP DUP2 MSTORE PUSH1 0x20 ADD PUSH1 0x1 DUP3 ADD DUP1 SLOAD PUSH2 0x1AF SWAP1 PUSH2 0x9F8 JUMP JUMPDEST DUP1 PUSH1 0x1F ADD PUSH1 0x20 DUP1 SWAP2 DIV MUL PUSH1 0x20 ADD PUSH1 0x40 MLOAD SWAP1 DUP2 ADD PUSH1 0x40 MSTORE DUP1 SWAP3 SWAP2 SWAP1 DUP2 DUP2 MSTORE PUSH1 0x20 ADD DUP3 DUP1 SLOAD PUSH2 0x1DB SWAP1 PUSH2 0x9F8 JUMP JUMPDEST DUP1 ISZERO PUSH2 0x226 JUMPI DUP1 PUSH1 0x1F LT PUSH2 0x1FD JUMPI PUSH2 0x100 DUP1 DUP4 SLOAD DIV MUL DUP4 MSTORE SWAP2 PUSH1 0x20 ADD SWAP2 PUSH2 0x226 JUMP JUMPDEST DUP3 ADD SWAP2 SWAP1 PUSH0 MSTORE PUSH1 0x20 PUSH0 KECCAK256 SWAP1 JUMPDEST DUP2 SLOAD DUP2 MSTORE SWAP1 PUSH1 0x1 ADD SWAP1 PUSH1 0x20 ADD DUP1 DUP4 GT PUSH2 0x209 JUMPI DUP3 SWAP1 SUB PUSH1 0x1F AND DUP3 ADD SWAP2 JUMPDEST POP POP POP POP POP DUP2 MSTORE PUSH1 0x20 ADD PUSH1 0x2 DUP3 ADD DUP1 SLOAD PUSH2 0x23F SWAP1 PUSH2 0x9F8 JUMP JUMPDEST DUP1 PUSH1 0x1F ADD PUSH1 0x20 DUP1 SWAP2 DIV MUL PUSH1 0x20 ADD PUSH1 0x40 MLOAD SWAP1 DUP2 ADD PUSH1 0x40 MSTORE DUP1 SWAP3 SWAP2 SWAP1 DUP2 DUP2 MSTORE PUSH1 0x20 ADD DUP3 DUP1 SLOAD PUSH2 0x26B SWAP1 PUSH2 0x9F8 JUMP JUMPDEST DUP1 ISZERO PUSH2 0x2B6 JUMPI DUP1 PUSH1 0x1F LT PUSH2 0x28D JUMPI PUSH2 0x100 DUP1 DUP4 SLOAD DIV MUL DUP4 MSTORE SWAP2 PUSH1 0x20 ADD SWAP2 PUSH2 0x2B6 JUMP JUMPDEST DUP3 ADD SWAP2 SWAP1 PUSH0 MSTORE PUSH1 0x20 PUSH0 KECCAK256 SWAP1 JUMPDEST DUP2 SLOAD DUP2 MSTORE SWAP1 PUSH1 0x1 ADD SWAP1 PUSH1 0x20 ADD DUP1 DUP4 GT PUSH2 0x299 JUMPI DUP3 SWAP1 SUB PUSH1 0x1F AND DUP3 ADD SWAP2 JUMPDEST POP POP POP POP POP DUP2 MSTORE PUSH1 0x20 ADD PUSH1 0x3 DUP3 ADD SLOAD DUP2 MSTORE POP POP DUP2 MSTORE PUSH1 0x20 ADD SWAP1 PUSH1 0x1 ADD SWAP1 PUSH2 0xEF JUMP JUMPDEST POP POP POP POP SWAP1 POP SWAP2 SWAP1 POP JUMP JUMPDEST CALLER PUSH0 SWAP1 DUP2 MSTORE PUSH1 0x20 DUP2 DUP2 MSTORE PUSH1 0x40 DUP1 DUP4 KECCAK256 DUP1 SLOAD DUP3 MLOAD DUP2 DUP6 MUL DUP2 ADD DUP6 ADD SWAP1 SWAP4 MSTORE DUP1 DUP4 MSTORE PUSH1 0x60 SWAP5 SWAP3 SWAP4 SWAP2 SWAP3 SWAP1 SWAP2 DUP5 ADD JUMPDEST DUP3 DUP3 LT ISZERO PUSH2 0x4F8 JUMPI DUP4 DUP3 SWAP1 PUSH0 MSTORE PUSH1 0x20 PUSH0 KECCAK256 SWAP1 PUSH1 0x4 MUL ADD PUSH1 0x40 MLOAD DUP1 PUSH1 0x80 ADD PUSH1 0x40 MSTORE SWAP1 DUP2 PUSH0 DUP3 ADD DUP1 SLOAD PUSH2 0x33F SWAP1 PUSH2 0x9F8 JUMP JUMPDEST DUP1 PUSH1 0x1F ADD PUSH1 0x20 DUP1 SWAP2 DIV MUL PUSH1 0x20 ADD PUSH1 0x40 MLOAD SWAP1 DUP2 ADD PUSH1 0x40 MSTORE DUP1 SWAP3 SWAP2 SWAP1 DUP2 DUP2 MSTORE PUSH1 0x20 ADD DUP3 DUP1 SLOAD PUSH2 0x36B SWAP1 PUSH2 0x9F8 JUMP JUMPDEST DUP1 ISZERO PUSH2 0x3B6 JUMPI DUP1 PUSH1 0x1F LT PUSH2 0x38D JUMPI PUSH2 0x100 DUP1 DUP4 SLOAD DIV MUL DUP4 MSTORE SWAP2 PUSH1 0x20 ADD SWAP2 PUSH2 0x3B6 JUMP JUMPDEST DUP3 ADD SWAP2 SWAP1 PUSH0 MSTORE PUSH1 0x20 PUSH0 KECCAK256 SWAP1 JUMPDEST DUP2 SLOAD DUP2 MSTORE SWAP1 PUSH1 0x1 ADD SWAP1 PUSH1 0x20 ADD DUP1 DUP4 GT PUSH2 0x399 JUMPI DUP3 SWAP1 SUB PUSH1 0x1F AND DUP3 ADD SWAP2 JUMPDEST POP POP POP POP POP DUP2 MSTORE PUSH1 0x20 ADD PUSH1 0x1 DUP3 ADD DUP1 SLOAD PUSH2 0x3CF SWAP1 PUSH2 0x9F8 JUMP JUMPDEST DUP1 PUSH1 0x1F ADD PUSH1 0x20 DUP1 SWAP2 DIV MUL PUSH1 0x20 ADD PUSH1 0x40 MLOAD SWAP1 DUP2 ADD PUSH1 0x40 MSTORE DUP1 SWAP3 SWAP2 SWAP1 DUP2 DUP2 MSTORE PUSH1 0x20 ADD DUP3 DUP1 SLOAD PUSH2 0x3FB SWAP1 PUSH2 0x9F8 JUMP JUMPDEST DUP1 ISZERO PUSH2 0x446 JUMPI DUP1 PUSH1 0x1F LT PUSH2 0x41D JUMPI PUSH2 0x100 DUP1 DUP4 SLOAD DIV MUL DUP4 MSTORE SWAP2 PUSH1 0x20 ADD SWAP2 PUSH2 0x446 JUMP JUMPDEST DUP3 ADD SWAP2 SWAP1 PUSH0 MSTORE PUSH1 0x20 PUSH0 KECCAK256 SWAP1 JUMPDEST DUP2 SLOAD DUP2 MSTORE SWAP1 PUSH1 0x1 ADD SWAP1 PUSH1 0x20 ADD DUP1 DUP4 GT PUSH2 0x429 JUMPI DUP3 SWAP1 SUB PUSH1 0x1F AND DUP3 ADD SWAP2 JUMPDEST POP POP POP POP POP DUP2 MSTORE PUSH1 0x20 ADD PUSH1 0x2 DUP3 ADD DUP1 SLOAD PUSH2 0x45F SWAP1 PUSH2 0x9F8 JUMP JUMPDEST DUP1 PUSH1 0x1F ADD PUSH1 0x20 DUP1 SWAP2 DIV MUL PUSH1 0x20 ADD PUSH1 0x40 MLOAD SWAP1 DUP2 ADD PUSH1 0x40 MSTORE DUP1 SWAP3 SWAP2 SWAP1 DUP2 DUP2 MSTORE PUSH1 0x20 ADD DUP3 DUP1 SLOAD PUSH2 0x48B SWAP1 PUSH2 0x9F8 JUMP JUMPDEST DUP1 ISZERO PUSH2 0x4D6 JUMPI DUP1 PUSH1 0x1F LT PUSH2 0x4AD JUMPI PUSH2 0x100 DUP1 DUP4 SLOAD DIV MUL DUP4 MSTORE SWAP2 PUSH1 0x20 ADD SWAP2 PUSH2 0x4D6 JUMP JUMPDEST DUP3 ADD SWAP2 SWAP1 PUSH0 MSTORE PUSH1 0x20 PUSH0 KECCAK256 SWAP1 JUMPDEST DUP2 SLOAD DUP2 MSTORE SWAP1 PUSH1 0x1 ADD SWAP1 PUSH1 0x20 ADD DUP1 DUP4 GT PUSH2 0x4B9 JUMPI DUP3 SWAP1 SUB PUSH1 0x1F AND DUP3 ADD SWAP2 JUMPDEST POP POP POP POP POP DUP2 MSTORE PUSH1 0x20 ADD PUSH1 0x3 DUP3 ADD SLOAD DUP2 MSTORE POP POP DUP2 MSTORE PUSH1 0x20 ADD SWAP1 PUSH1 0x1 ADD SWAP1 PUSH2 0x30F JUMP JUMPDEST POP POP POP POP SWAP1 POP SWAP1 JUMP JUMPDEST CALLER PUSH0 SWAP1 DUP2 MSTORE PUSH1 0x20 DUP2 SWAP1 MSTORE PUSH1 0x40 SWAP1 KECCAK256 SLOAD DUP6 LT PUSH2 0x536 JUMPI PUSH1 0x40 MLOAD PUSH4 0x206480E7 PUSH1 0xE1 SHL DUP2 MSTORE PUSH1 0x4 DUP2 ADD DUP7 SWAP1 MSTORE PUSH1 0x24 ADD PUSH1 0x40 MLOAD DUP1 SWAP2 SUB SWAP1 REVERT JUMPDEST PUSH1 0x40 DUP1 MLOAD PUSH1 0x80 DUP2 ADD DUP3 MSTORE DUP6 DUP2 MSTORE PUSH1 0x20 DUP1 DUP3 ADD DUP7 SWAP1 MSTORE DUP2 DUP4 ADD DUP6 SWAP1 MSTORE PUSH1 0x60 DUP3 ADD DUP5 SWAP1 MSTORE CALLER PUSH0 SWAP1 DUP2 MSTORE SWAP1 DUP2 SWAP1 MSTORE SWAP2 SWAP1 SWAP2 KECCAK256 DUP1 SLOAD DUP8 SWAP1 DUP2 LT PUSH2 0x577 JUMPI PUSH2 0x577 PUSH2 0xA30 JUMP JUMPDEST PUSH0 SWAP2 DUP3 MSTORE PUSH1 0x20 SWAP1 SWAP2 KECCAK256 DUP3 MLOAD PUSH1 0x4 SWAP1 SWAP3 MUL ADD SWAP1 DUP2 SWAP1 PUSH2 0x595 SWAP1 DUP3 PUSH2 0xA90 JUMP JUMPDEST POP PUSH1 0x20 DUP3 ADD MLOAD PUSH1 0x1 DUP3 ADD SWAP1 PUSH2 0x5AA SWAP1 DUP3 PUSH2 0xA90 JUMP JUMPDEST POP PUSH1 0x40 DUP3 ADD MLOAD PUSH1 0x2 DUP3 ADD SWAP1 PUSH2 0x5BF SWAP1 DUP3 PUSH2 0xA90 JUMP JUMPDEST POP PUSH1 0x60 DUP3 ADD MLOAD DUP2 PUSH1 0x3 ADD SSTORE SWAP1 POP POP POP POP POP POP POP JUMP JUMPDEST CALLER PUSH0 SWAP1 DUP2 MSTORE PUSH1 0x20 DUP2 SWAP1 MSTORE PUSH1 0x40 DUP2 KECCAK256 PUSH2 0x5EB SWAP2 PUSH2 0x67B JUMP JUMPDEST JUMP JUMPDEST CALLER PUSH0 SWAP1 DUP2 MSTORE PUSH1 0x20 DUP2 DUP2 MSTORE PUSH1 0x40 DUP1 DUP4 KECCAK256 DUP2 MLOAD PUSH1 0x80 DUP2 ADD DUP4 MSTORE DUP9 DUP2 MSTORE DUP1 DUP5 ADD DUP9 SWAP1 MSTORE SWAP2 DUP3 ADD DUP7 SWAP1 MSTORE PUSH1 0x60 DUP3 ADD DUP6 SWAP1 MSTORE DUP1 SLOAD PUSH1 0x1 DUP2 ADD DUP3 SSTORE SWAP1 DUP5 MSTORE SWAP2 SWAP1 SWAP3 KECCAK256 DUP3 MLOAD PUSH1 0x4 SWAP1 SWAP3 MUL ADD SWAP1 DUP2 SWAP1 PUSH2 0x63E SWAP1 DUP3 PUSH2 0xA90 JUMP JUMPDEST POP PUSH1 0x20 DUP3 ADD MLOAD PUSH1 0x1 DUP3 ADD SWAP1 PUSH2 0x653 SWAP1 DUP3 PUSH2 0xA90 JUMP JUMPDEST POP PUSH1 0x40 DUP3 ADD MLOAD PUSH1 0x2 DUP3 ADD SWAP1 PUSH2 0x668 SWAP1 DUP3 PUSH2 0xA90 JUMP JUMPDEST POP PUSH1 0x60 DUP3 ADD MLOAD DUP2 PUSH1 0x3 ADD SSTORE POP POP POP POP POP POP JUMP JUMPDEST POP DUP1 SLOAD PUSH0 DUP3 SSTORE PUSH1 0x4 MUL SWAP1 PUSH0 MSTORE PUSH1 0x20 PUSH0 KECCAK256 SWAP1 DUP2 ADD SWAP1 PUSH2 0x699 SWAP2 SWAP1 PUSH2 0x69C JUMP JUMPDEST POP JUMP JUMPDEST DUP1 DUP3 GT ISZERO PUSH2 0x6D8 JUMPI PUSH0 PUSH2 0x6AF DUP3 DUP3 PUSH2 0x6DC JUMP JUMPDEST PUSH2 0x6BC PUSH1 0x1 DUP4 ADD PUSH0 PUSH2 0x6DC JUMP JUMPDEST PUSH2 0x6C9 PUSH1 0x2 DUP4 ADD PUSH0 PUSH2 0x6DC JUMP JUMPDEST POP PUSH0 PUSH1 0x3 DUP3 ADD SSTORE PUSH1 0x4 ADD PUSH2 0x69C JUMP JUMPDEST POP SWAP1 JUMP JUMPDEST POP DUP1 SLOAD PUSH2 0x6E8 SWAP1 PUSH2 0x9F8 JUMP JUMPDEST PUSH0 DUP3 SSTORE DUP1 PUSH1 0x1F LT PUSH2 0x6F7 JUMPI POP POP JUMP JUMPDEST PUSH1 0x1F ADD PUSH1 0x20 SWAP1 DIV SWAP1 PUSH0 MSTORE PUSH1 0x20 PUSH0 KECCAK256 SWAP1 DUP2 ADD SWAP1 PUSH2 0x699 SWAP2 SWAP1 JUMPDEST DUP1 DUP3 GT ISZERO PUSH2 0x6D8 JUMPI PUSH0 DUP2 SSTORE PUSH1 0x1 ADD PUSH2 0x70F JUMP JUMPDEST PUSH0 PUSH1 0x20 DUP3 DUP5 SUB SLT ISZERO PUSH2 0x732 JUMPI PUSH0 DUP1 REVERT JUMPDEST DUP2 CALLDATALOAD PUSH1 0x1 PUSH1 0x1 PUSH1 0xA0 SHL SUB DUP2 AND DUP2 EQ PUSH2 0x748 JUMPI PUSH0 DUP1 REVERT JUMPDEST SWAP4 SWAP3 POP POP POP JUMP JUMPDEST PUSH0 DUP2 MLOAD DUP1 DUP5 MSTORE PUSH0 JUMPDEST DUP2 DUP2 LT ISZERO PUSH2 0x773 JUMPI PUSH1 0x20 DUP2 DUP6 ADD DUP2 ADD MLOAD DUP7 DUP4 ADD DUP3 ADD MSTORE ADD PUSH2 0x757 JUMP JUMPDEST POP PUSH0 PUSH1 0x20 DUP3 DUP7 ADD ADD MSTORE PUSH1 0x20 PUSH1 0x1F NOT PUSH1 0x1F DUP4 ADD AND DUP6 ADD ADD SWAP2 POP POP SWAP3 SWAP2 POP POP JUMP JUMPDEST PUSH0 PUSH1 0x20 DUP1 DUP4 ADD DUP2 DUP5 MSTORE DUP1 DUP6 MLOAD DUP1 DUP4 MSTORE PUSH1 0x40 SWAP3 POP PUSH1 0x40 DUP7 ADD SWAP2 POP PUSH1 0x40 DUP2 PUSH1 0x5 SHL DUP8 ADD ADD DUP5 DUP9 ADD PUSH0 JUMPDEST DUP4 DUP2 LT ISZERO PUSH2 0x830 JUMPI PUSH1 0x3F NOT DUP10 DUP5 SUB ADD DUP6 MSTORE DUP2 MLOAD PUSH1 0x80 DUP2 MLOAD DUP2 DUP7 MSTORE PUSH2 0x7DF DUP3 DUP8 ADD DUP3 PUSH2 0x74F JUMP JUMPDEST SWAP2 POP POP DUP9 DUP3 ADD MLOAD DUP6 DUP3 SUB DUP11 DUP8 ADD MSTORE PUSH2 0x7F7 DUP3 DUP3 PUSH2 0x74F JUMP JUMPDEST SWAP2 POP POP DUP8 DUP3 ADD MLOAD DUP6 DUP3 SUB DUP10 DUP8 ADD MSTORE PUSH2 0x80F DUP3 DUP3 PUSH2 0x74F JUMP JUMPDEST PUSH1 0x60 SWAP4 DUP5 ADD MLOAD SWAP7 SWAP1 SWAP4 ADD SWAP6 SWAP1 SWAP6 MSTORE POP SWAP5 DUP8 ADD SWAP5 SWAP3 POP SWAP1 DUP7 ADD SWAP1 PUSH1 0x1 ADD PUSH2 0x7B9 JUMP JUMPDEST POP SWAP1 SWAP9 SWAP8 POP POP POP POP POP POP POP POP JUMP JUMPDEST PUSH4 0x4E487B71 PUSH1 0xE0 SHL PUSH0 MSTORE PUSH1 0x41 PUSH1 0x4 MSTORE PUSH1 0x24 PUSH0 REVERT JUMPDEST PUSH0 DUP3 PUSH1 0x1F DUP4 ADD SLT PUSH2 0x861 JUMPI PUSH0 DUP1 REVERT JUMPDEST DUP2 CALLDATALOAD PUSH8 0xFFFFFFFFFFFFFFFF DUP1 DUP3 GT ISZERO PUSH2 0x87C JUMPI PUSH2 0x87C PUSH2 0x83E JUMP JUMPDEST PUSH1 0x40 MLOAD PUSH1 0x1F DUP4 ADD PUSH1 0x1F NOT SWAP1 DUP2 AND PUSH1 0x3F ADD AND DUP2 ADD SWAP1 DUP3 DUP3 GT DUP2 DUP4 LT OR ISZERO PUSH2 0x8A4 JUMPI PUSH2 0x8A4 PUSH2 0x83E JUMP JUMPDEST DUP2 PUSH1 0x40 MSTORE DUP4 DUP2 MSTORE DUP7 PUSH1 0x20 DUP6 DUP9 ADD ADD GT ISZERO PUSH2 0x8BC JUMPI PUSH0 DUP1 REVERT JUMPDEST DUP4 PUSH1 0x20 DUP8 ADD PUSH1 0x20 DUP4 ADD CALLDATACOPY PUSH0 PUSH1 0x20 DUP6 DUP4 ADD ADD MSTORE DUP1 SWAP5 POP POP POP POP POP SWAP3 SWAP2 POP POP JUMP JUMPDEST PUSH0 DUP1 PUSH0 DUP1 PUSH0 PUSH1 0xA0 DUP7 DUP9 SUB SLT ISZERO PUSH2 0x8EF JUMPI PUSH0 DUP1 REVERT JUMPDEST DUP6 CALLDATALOAD SWAP5 POP PUSH1 0x20 DUP7 ADD CALLDATALOAD PUSH8 0xFFFFFFFFFFFFFFFF DUP1 DUP3 GT ISZERO PUSH2 0x90D JUMPI PUSH0 DUP1 REVERT JUMPDEST PUSH2 0x919 DUP10 DUP4 DUP11 ADD PUSH2 0x852 JUMP JUMPDEST SWAP6 POP PUSH1 0x40 DUP9 ADD CALLDATALOAD SWAP2 POP DUP1 DUP3 GT ISZERO PUSH2 0x92E JUMPI PUSH0 DUP1 REVERT JUMPDEST PUSH2 0x93A DUP10 DUP4 DUP11 ADD PUSH2 0x852 JUMP JUMPDEST SWAP5 POP PUSH1 0x60 DUP9 ADD CALLDATALOAD SWAP2 POP DUP1 DUP3 GT ISZERO PUSH2 0x94F JUMPI PUSH0 DUP1 REVERT JUMPDEST POP PUSH2 0x95C DUP9 DUP3 DUP10 ADD PUSH2 0x852 JUMP JUMPDEST SWAP6 SWAP9 SWAP5 SWAP8 POP SWAP3 SWAP6 PUSH1 0x80 ADD CALLDATALOAD SWAP4 SWAP3 POP POP POP JUMP JUMPDEST PUSH0 DUP1 PUSH0 DUP1 PUSH1 0x80 DUP6 DUP8 SUB SLT ISZERO PUSH2 0x981 JUMPI PUSH0 DUP1 REVERT JUMPDEST DUP5 CALLDATALOAD PUSH8 0xFFFFFFFFFFFFFFFF DUP1 DUP3 GT ISZERO PUSH2 0x998 JUMPI PUSH0 DUP1 REVERT JUMPDEST PUSH2 0x9A4 DUP9 DUP4 DUP10 ADD PUSH2 0x852 JUMP JUMPDEST SWAP6 POP PUSH1 0x20 DUP8 ADD CALLDATALOAD SWAP2 POP DUP1 DUP3 GT ISZERO PUSH2 0x9B9 JUMPI PUSH0 DUP1 REVERT JUMPDEST PUSH2 0x9C5 DUP9 DUP4 DUP10 ADD PUSH2 0x852 JUMP JUMPDEST SWAP5 POP PUSH1 0x40 DUP8 ADD CALLDATALOAD SWAP2 POP DUP1 DUP3 GT ISZERO PUSH2 0x9DA JUMPI PUSH0 DUP1 REVERT JUMPDEST POP PUSH2 0x9E7 DUP8 DUP3 DUP9 ADD PUSH2 0x852 JUMP JUMPDEST SWAP5 SWAP8 SWAP4 SWAP7 POP SWAP4 SWAP5 PUSH1 0x60 ADD CALLDATALOAD SWAP4 POP POP POP JUMP JUMPDEST PUSH1 0x1 DUP2 DUP2 SHR SWAP1 DUP3 AND DUP1 PUSH2 0xA0C JUMPI PUSH1 0x7F DUP3 AND SWAP2 POP JUMPDEST PUSH1 0x20 DUP3 LT DUP2 SUB PUSH2 0xA2A JUMPI PUSH4 0x4E487B71 PUSH1 0xE0 SHL PUSH0 MSTORE PUSH1 0x22 PUSH1 0x4 MSTORE PUSH1 0x24 PUSH0 REVERT JUMPDEST POP SWAP2 SWAP1 POP JUMP JUMPDEST PUSH4 0x4E487B71 PUSH1 0xE0 SHL PUSH0 MSTORE PUSH1 0x32 PUSH1 0x4 MSTORE PUSH1 0x24 PUSH0 REVERT JUMPDEST PUSH1 0x1F DUP3 GT ISZERO PUSH2 0xA8B JUMPI DUP1 PUSH0 MSTORE PUSH1 0x20 PUSH0 KECCAK256 PUSH1 0x1F DUP5 ADD PUSH1 0x5 SHR DUP2 ADD PUSH1 0x20 DUP6 LT ISZERO PUSH2 0xA69 JUMPI POP DUP1 JUMPDEST PUSH1 0x1F DUP5 ADD PUSH1 0x5 SHR DUP3 ADD SWAP2 POP JUMPDEST DUP2 DUP2 LT ISZERO PUSH2 0xA88 JUMPI PUSH0 DUP2 SSTORE PUSH1 0x1 ADD PUSH2 0xA75 JUMP JUMPDEST POP POP JUMPDEST POP POP POP JUMP JUMPDEST DUP2 MLOAD PUSH8 0xFFFFFFFFFFFFFFFF DUP2 GT ISZERO PUSH2 0xAAA JUMPI PUSH2 0xAAA PUSH2 0x83E JUMP JUMPDEST PUSH2 0xABE DUP2 PUSH2 0xAB8 DUP5 SLOAD PUSH2 0x9F8 JUMP JUMPDEST DUP5 PUSH2 0xA44 JUMP JUMPDEST PUSH1 0x20 DUP1 PUSH1 0x1F DUP4 GT PUSH1 0x1 DUP2 EQ PUSH2 0xAF1 JUMPI PUSH0 DUP5 ISZERO PUSH2 0xADA JUMPI POP DUP6 DUP4 ADD MLOAD JUMPDEST PUSH0 NOT PUSH1 0x3 DUP7 SWAP1 SHL SHR NOT AND PUSH1 0x1 DUP6 SWAP1 SHL OR DUP6 SSTORE PUSH2 0xB48 JUMP JUMPDEST PUSH0 DUP6 DUP2 MSTORE PUSH1 0x20 DUP2 KECCAK256 PUSH1 0x1F NOT DUP7 AND SWAP2 JUMPDEST DUP3 DUP2 LT ISZERO PUSH2 0xB1F JUMPI DUP9 DUP7 ADD MLOAD DUP3 SSTORE SWAP5 DUP5 ADD SWAP5 PUSH1 0x1 SWAP1 SWAP2 ADD SWAP1 DUP5 ADD PUSH2 0xB00 JUMP JUMPDEST POP DUP6 DUP3 LT ISZERO PUSH2 0xB3C JUMPI DUP8 DUP6 ADD MLOAD PUSH0 NOT PUSH1 0x3 DUP9 SWAP1 SHL PUSH1 0xF8 AND SHR NOT AND DUP2 SSTORE JUMPDEST POP POP PUSH1 0x1 DUP5 PUSH1 0x1 SHL ADD DUP6 SSTORE JUMPDEST POP POP POP POP POP POP JUMP INVALID LOG2 PUSH5 0x6970667358 0x22 SLT KECCAK256 LOG4 STATICCALL PUSH26 0x4AFB1E0AB051E4435BABDCA970C8633F54782A84897F7A68873D 0xE1 0xD6 CODECOPY PUSH5 0x736F6C6343 STOP ADDMOD OR STOP CALLER "
		},
		"gasEstimates": {
			"creation": {
				"codeDepositCost": "590000",
				"executionCost": "623",
				"totalCost": "590623"
			},
			"external": {
				"addCar(string,string,string,uint256)": "infinite",
				"getMyCars()": "infinite",
				"getUserCars(address)": "infinite",
				"resetMyGarage()": "infinite",
				"updateCar(uint256,string,string,string,uint256)": "infinite"
			}
		},
		"methodIdentifiers": {
			"addCar(string,string,string,uint256)": "d2d50bd8",
			"getMyCars()": "341fa05d",
			"getUserCars(address)": "2698286c",
			"resetMyGarage()": "6dcb7896",
			"updateCar(uint256,string,string,string,uint256)": "4cd1ed3d"
		}
	},
	"abi": [
		{
			"inputs": [
				{
					"internalType": "uint256",
					"name": "index",
					"type": "uint256"
				}
			],
			"name": "BadCarIndex",
			"type": "error"
		},
		{
			"inputs": [
				{
					"internalType": "string",
					"name": "_make",
					"type": "string"
				},
				{
					"internalType": "string",
					"name": "_model",
					"type": "string"
				},
				{
					"internalType": "string",
					"name": "_color",
					"type": "string"
				},
				{
					"internalType": "uint256",
					"name": "_numberOfDoors",
					"type": "uint256"
				}
			],
			"name": "addCar",
			"outputs": [],
			"stateMutability": "nonpayable",
			"type": "function"
		},
		{
			"inputs": [],
			"name": "getMyCars",
			"outputs": [
				{
					"components": [
						{
							"internalType": "string",
							"name": "make",
							"type": "string"
						},
						{
							"internalType": "string",
							"name": "model",
							"type": "string"
						},
						{
							"internalType": "string",
							"name": "color",
							"type": "string"
						},
						{
							"internalType": "uint256",
							"name": "numberOfDoors",
							"type": "uint256"
						}
					],
					"internalType": "struct GarageManager.Car[]",
					"name": "",
					"type": "tuple[]"
				}
			],
			"stateMutability": "view",
			"type": "function"
		},
		{
			"inputs": [
				{
					"internalType": "address",
					"name": "_user",
					"type": "address"
				}
			],
			"name": "getUserCars",
			"outputs": [
				{
					"components": [
						{
							"internalType": "string",
							"name": "make",
							"type": "string"
						},
						{
							"internalType": "string",
							"name": "model",
							"type": "string"
						},
						{
							"internalType": "string",
							"name": "color",
							"type": "string"
						},
						{
							"internalType": "uint256",
							"name": "numberOfDoors",
							"type": "uint256"
						}
					],
					"internalType": "struct GarageManager.Car[]",
					"name": "",
					"type": "tuple[]"
				}
			],
			"stateMutability": "view",
			"type": "function"
		},
		{
			"inputs": [],
			"name": "resetMyGarage",
			"outputs": [],
			"stateMutability": "nonpayable",
			"type": "function"
		},
		{
			"inputs": [
				{
					"internalType": "uint256",
					"name": "_index",
					"type": "uint256"
				},
				{
					"internalType": "string",
					"name": "_make",
					"type": "string"
				},
				{
					"internalType": "string",
					"name": "_model",
					"type": "string"
				},
				{
					"internalType": "string",
					"name": "_color",
					"type": "string"
				},
				{
					"internalType": "uint256",
					"name": "_numberOfDoors",
					"type": "uint256"
				}
			],
			"name": "updateCar",
			"outputs": [],
			"stateMutability": "nonpayable",
			"type": "function"
		}
	]
}