{
	"data": {
		"bytecode": {
			"linkReferences": {},
			"object": "608060405234801561000f575f80fd5b5060405161015e38038061015e83398101604081905261002e9161003e565b5f92909255600155600255610069565b5f805f60608486031215610050575f80fd5b8351925060208401519150604084015190509250925092565b60e9806100755f395ff3fe6080604052348015600e575f80fd5b50600436106044575f3560e01c80633f83ea3b14604857806359a7b3fe1460615780635cdee0c0146069578063f5895a0a14606f575b5f80fd5b604f5f5481565b60405190815260200160405180910390f35b604f60025481565b604f6077565b604f60015481565b5f60025461082060869190608b565b905090565b808202811582820484141760ad57634e487b7160e01b5f52601160045260245ffd5b9291505056fea2646970667358221220c8b08e13d82571fe3962513470dff2cf9d66efae4c48af1fadf6253151f3be0a64736f6c63430008140033",
			"opcodes": "PUSH1 0x80 PUSH1 0x40 MSTORE CALLVALUE DUP1 ISZERO PUSH2 0xF JUMPI PUSH0 DUP1 REVERT JUMPDEST POP PUSH1 0x40 MLOAD PUSH2 0x15E CODESIZE SUB DUP1 PUSH2 0x15E DUP4 CODECOPY DUP2 ADD PUSH1 0x40 DUP2 SWAP1 MSTORE PUSH2 0x2E SWAP2 PUSH2 0x3E JUMP JUMPDEST PUSH0 SWAP3 SWAP1 SWAP3 SSTORE PUSH1 0x1 SSTORE PUSH1 0x2 SSTORE PUSH2 0x69 JUMP JUMPDEST PUSH0 DUP1 PUSH0 PUSH1 0x60 DUP5 DUP7 SUB SLT ISZERO PUSH2 0x50 JUMPI PUSH0 DUP1 REVERT JUMPDEST DUP4 MLOAD SWAP3 POP PUSH1 0x20 DUP5 ADD MLOAD SWAP2 POP PUSH1 0x40 DUP5 ADD MLOAD SWAP1 POP SWAP3 POP SWAP3 POP SWAP3 JUMP JUMPDEST PUSH1 0xE9 DUP1 PUSH2 0x75 PUSH0 CODECOPY PUSH0 RETURN INVALID PUSH1 0x80 PUSH1 0x40 MSTORE CALLVALUE DUP1 ISZERO PUSH1 0xE JUMPI PUSH0 DUP1 REVERT JUMPDEST POP PUSH1 0x4 CALLDATASIZE LT PUSH1 0x44 JUMPI PUSH0 CALLDATALOAD PUSH1 0xE0 SHR DUP1 PUSH4 0x3F83EA3B EQ PUSH1 0x48 JUMPI DUP1 PUSH4 0x59A7B3FE EQ PUSH1 0x61 JUMPI DUP1 PUSH4 0x5CDEE0C0 EQ PUSH1 0x69 JUMPI DUP1 PUSH4 0xF5895A0A EQ PUSH1 0x6F JUMPI JUMPDEST PUSH0 DUP1 REVERT JUMPDEST PUSH1 0x4F PUSH0 SLOAD DUP2 JUMP JUMPDEST PUSH1 0x40 MLOAD SWAP1 DUP2 MSTORE PUSH1 0x20 ADD PUSH1 0x40 MLOAD DUP1 SWAP2 SUB SWAP1 RETURN JUMPDEST PUSH1 0x4F PUSH1 0x2 SLOAD DUP2 JUMP JUMPDEST PUSH1 0x4F PUSH1 0x77 JUMP JUMPDEST PUSH1 0x4F PUSH1 0x1 SLOAD DUP2 JUMP JUMPDEST PUSH0 PUSH1 0x2 SLOAD PUSH2 0x820 PUSH1 0x86 SWAP2 SWAP1 PUSH1 0x8B JUMP JUMPDEST SWAP1 POP SWAP1 JUMP JUMPDEST DUP1 DUP3 MUL DUP2 ISZERO DUP3 DUP3 DIV DUP5 EQ OR PUSH1 0xAD JUMPI PUSH4 0x4E487B71 PUSH1 0xE0 SHL PUSH0 MSTORE PUSH1 0x11 PUSH1 0x4 MSTORE PUSH1 0x24 PUSH0 REVERT JUMPDEST SWAP3 SWAP2 POP POP JUMP INVALID LOG2 PUSH5 0x6970667358 0x22 SLT KECCAK256 0xC8 0xB0 DUP15 SGT 0xD8 0x25 PUSH18 0xFE3962513470DFF2CF9D66EFAE4C48AF1FAD 0xF6 0x25 BALANCE MLOAD RETURN 0xBE EXP PUSH5 0x736F6C6343 STOP ADDMOD EQ STOP CALLER "
		},
		"gasEstimates": {
			"creation": {
				"codeDepositCost": "46600",
				"executionCost": "infinite",
				"totalCost": "infinite"
			},
			"external": {
				"getAnnualCost()": "2417",
				"hourlyRate()": "2282",
				"idNumber()": "2259",
				"managerId()": "2326"
			}
		},
		"methodIdentifiers": {
			"getAnnualCost()": "5cdee0c0",
			"hourlyRate()": "59a7b3fe",
			"idNumber()": "3f83ea3b",
			"managerId()": "f5895a0a"
		}
	},
	"abi": [
		{
			"inputs": [
				{
					"internalType": "uint256",
					"name": "_idNumber",
					"type": "uint256"
				},
				{
					"internalType": "uint256",
					"name": "_managerId",
					"type": "uint256"
				},
				{
					"internalType": "uint256",
					"name": "_hourlyRate",
					"type": "uint256"
				}
			],
			"stateMutability": "nonpayable",
			"type": "constructor"
		},
		{
			"inputs": [],
			"name": "getAnnualCost",
			"outputs": [
				{
					"internalType": "uint256",
					"name": "",
					"type": "uint256"
				}
			],
			"stateMutability": "view",
			"type": "function"
		},
		{
			"inputs": [],
			"name": "hourlyRate",
			"outputs": [
				{
					"internalType": "uint256",
					"name": "",
					"type": "uint256"
				}
			],
			"stateMutability": "view",
			"type": "function"
		},
		{
			"inputs": [],
			"name": "idNumber",
			"outputs": [
				{
					"internalType": "uint256",
					"name": "",
					"type": "uint256"
				}
			],
			"stateMutability": "view",
			"type": "function"
		},
		{
			"inputs": [],
			"name": "managerId",
			"outputs": [
				{
					"internalType": "uint256",
					"name": "",
					"type": "uint256"
				}
			],
			"stateMutability": "view",
			"type": "function"
		}
	]
}